:020000040000FA
:0400000080312928FA
:100008007E1480312E00161C0A280B2813280C1C7D
:100018000E280F2813288131E721803127280B1F4C
:100028001628172827281A1C1A281B282728101CC6
:100038001E281F28272881315E218031272827285C
:100048002728272827287E10090080312B28F70128
:10005800F801F901FA012000A601A7017E1020008D
:10006800803194282000A901F51F3B283C2844280A
:10007800F409F509F40A0319F50AA901A90A44289B
:10008800F31F472848284E28F209F309F20A0319F2
:10009800F30A4E2872087304031953285428832836
:1000A800A801A80A61280130F235F30D890B5828F8
:1000B8000130F6007608A8076128F31F6428652830
:1000C80057286728672873087502031D6D2872086A
:1000D8007402031C7028712876287208F4027308C9
:1000E800F53B76280130F336F20C890B772801307E
:1000F800A802031D802881286728832883282908C7
:100108000319872888288E28F409F509F40A0319A1
:10011800F50A8E287508F3007408F2009328080081
:1001280081319F2180318B170B171330F20001307A
:10013800F3008131DB2180317630F2000130F300A9
:100148008131E1218031A928A92820009616AC2800
:10015800F330840081308500003FF200013FF30056
:100168007808F5007708F400803136208031BC2803
:10017800F330840081308500003FF200013FF30036
:100188007808F5007708F400803136208031CC28D3
:10019800F330840081308500003FF200013FF30016
:1001A8007808F5007708F400803136208031A928D6
:1001B800A928A9288031292820009A0199019601A7
:1001C80097019801073095000F309100FF30920099
:1001D800FF309300FF309400FF303E00D900DF303D
:1001E800CE00EF30C3000730E4000F30B800DA016A
:1001F800E501C401B901CF01E601BA01C501D00189
:10020800DB01FF30BB00FF30C600FF30D100FF30FC
:10021800DC000730E7000C303D009000080001309A
:10022800F7070030F83D3C3077067804031D1D2998
:100238001E2925290130F9070030FA3DF701F80198
:1002480025293C3079067A04031D2B292C293429C9
:1002580001302000A6070030A73DF901FA01342932
:1002680020000C1A382939293C2916163F293F291C
:1002780016123F293F29080024008F0190010430FD
:10028800910086308D00E8308C000D082000A50014
:1002980024000C082000A4002E0010101A14F530B9
:1002A800F2000130F3008131DB2181310530240077
:1002B8008E0008002E00101020002508F1002408E8
:1002C800F00081318D218131200022082304031997
:1002D8006E296F29752923088A0022080A008131AE
:1002E8007529080020000C1B7A297B2981291617FB
:1002F8007D298131F0218131882920001613842934
:100308008131ED2181318829FA300032890B892920
:10031800080024000E1D9129922999290E107108B0
:100328008D0070088C000E149E2971088D007008CD
:100338008C009E2908008131D32181318031E02051
:1003480081318131CA2181318131BD2181318131B0
:100358004021813108002000200821040319B52913
:10036800B629BC2921088A0020080A008131BC2945
:1003780008002E000C100B14F630F2000130F300C8
:100388008131E12181312E001614080062303100DC
:100398008D008F01910102309300920108002F0017
:1003A80096019701980199019A019B010800730829
:1003B8002000A3007208A200080073082000A10012
:1003C8007208A00008002E000C108131AF21813185
:1003D800080024000E10080024000E14080003343E
:0603E800003408000800CB
:020000040001F9
:0A000E00EC3FFF3F9F3FFF3FFF3F25
:00000001FF
