:020000040000FA
:1000000080317928080008007E1480312E00161CEB
:100010000A280B2813280C1C0E280F2813289B31A4
:100020003623803177280B1F162817287728991C2C
:100030001A281B2821288F1C1E281F2821287728D2
:100040007728191C242825282B280F1C2828292824
:100050002B2877287728191E2E282F283A280F1E9C
:10006000322833283A2822006F088A006E080A00D6
:1000700080317728991E3D283E2849288F1E412827
:100080004228492822006D088A006C080A00803145
:1000900077289A1D4C284D285528901D5028512806
:1000A00055289C310D24803177281A1D582859284D
:1000B0006128101D5C285D2861289D310325803151
:1000C00077281A1C642865287728101C6828692856
:1000D00077289C31EB248031772877287728772878
:1000E00077287728772877287728772877287E1029
:1000F000090080317B28AA3084009B308500E330E2
:100100008600003087000C309B3142238031603004
:100110008400003085000F309B313C238031D63085
:100120008400003085000D309B313C23803120302D
:100130008400013085003E309B313C238031A0306B
:1001400084000130850010309B313C2380317E10CB
:10015000200088318228220023082100B4002200D8
:1001600022082100B300FD309C314D248031220053
:1001700022089C314D248031A62D20006C089C3132
:100180004D24803121005C089C314D2480312100B8
:100190005A089C314D248031B92D220025082000B9
:1001A000ED00220024082000EC0022002708210096
:1001B000DD00220026082100DC00220029082100A1
:1001C000DB00220028082100DA006730A000703030
:1001D000A100220024082100B1003108A2009E31B4
:1001E0003E26803168302100A0007030A10022003E
:1001F00026082100B1003108A2009E313E26803140
:10020000B92D200066089C314D248031210056080C
:100210009C314D248031B92D21006B089C314D2437
:10022000803121006D089C314D248031B92D220090
:1002300025082100EC00220024082100EB00B92D44
:10024000220025082100EE00220024082100ED00F4
:10025000B92D65089C314D248031210067089C31FF
:100260004D248031210069089C314D248031B92D05
:10027000220025082100E600220024082100E500D4
:10028000220027082100E800220026082100E700BC
:100290007E30A0007030A100220026082100B100AD
:1002A0003108A2009E313E2680317D302100A00021
:1002B0007030A100220024082100B1003108A20002
:1002C0009E313E268031B92D220025082100EA000A
:1002D000220024082100E900B92D6E30AF007030F3
:1002E000B0009C312D2480312100B100B2013108D1
:1002F000BF003208C0003F089C314D2480316F3070
:100300002100AF007030B0009C312D2480312100DD
:10031000B100B2013108BF003208C0003F089C3173
:100320004D24803170302100AF007030B0009C311E
:100330002D2480312100B100B2013108BF00320804
:10034000C0003F089C314D24803171302100AF0046
:100350007030B0009C312D2480312100B100B201F9
:100360003108BF003208C0003F089C314D24803165
:1003700072302100AF007030B0009C312D248031EC
:100380002100B100B2013108BF003208C0003F08AF
:100390009C314D24803169302100AF007030B000B5
:1003A0009C312D2480312100B100B2013108BF0001
:1003B0003208C0003F089C314D2480316A30210052
:1003C000AF007030B0009C312D2480312100B1008D
:1003D000B2013108BF003208C0003F089C314D24F3
:1003E00080316B302100AF007030B0009C312D2483
:1003F00080312100B100B2013108BF003208C000D5
:100400003F089C314D2480316C302100AF007030AA
:10041000B0009C312D2480312100B100B20131089F
:10042000BF003208C0003F089C314D2480316D3040
:100430002100AF007030B0009C312D2480312100AC
:10044000B100B2013108BF003208C0003F089C3142
:100450004D24803178302100AF007030B0009C31E5
:100460002D2480312100B100B2013108BF003208D3
:10047000C0003F089C314D24803179302100AF000D
:100480007030B0009C312D2480312100B100B201C8
:100490003108BF003208C0003F089C314D24803134
:1004A0007A302100AF007030B0009C312D248031B3
:1004B0002100B100B2013108BF003208C0003F087E
:1004C0009C314D2480317B302100AF007030B00072
:1004D0009C312D2480312100B100B2013108BF00D0
:1004E0003208C0003F089C314D2480317C3021000F
:1004F000AF007030B0009C312D2480312100B1005C
:10050000B2013108BF003208C0003F089C314D24C1
:10051000803173302100AF007030B0009C312D2449
:1005200080312100B100B2013108BF003208C000A3
:100530003F089C314D24803174302100AF00703071
:10054000B0009C312D2480312100B100B20131086E
:10055000BF003208C0003F089C314D248031753007
:100560002100AF007030B0009C312D24803121007B
:10057000B100B2013108BF003208C0003F089C3111
:100580004D24803176302100AF007030B0009C31B6
:100590002D2480312100B100B2013108BF003208A2
:1005A000C0003F089C314D24803177302100AF00DE
:1005B0007030B0009C312D2480312100B100B20197
:1005C0003108BF003208C0003F089C314D24803103
:1005D000B92D71302100A0007030A100A2019E3120
:1005E0003E2680316D302100A0007030A100A201B4
:1005F0009E313E2680317B302100A0007030A1006A
:10060000C830B1003108A2009E313E2680317730DB
:100610002100A0007030A1000530B1003108A20017
:100620009E313E268031B92D14309C314D248031CD
:1006300066302100AF007030B0009C312D24803135
:100640009C314D24803165302100AF007030B00006
:100650009C312D2480319C314D2480316430210027
:10066000AF007030B0009C312D2480319C314D247E
:100670008031B92D220025082100BC002200240869
:100680002100BB006530AF007030B0009C312D24DC
:1006900080312100B100B2013108BD003208BE0036
:1006A0006630AF007030B0009C312D2480312100C5
:1006B000B100B2013108B9003208BA003A08803AF4
:1006C000B1003C08803A3102031D682B3B08390217
:1006D00003186B2B6C2B722B21003A08BC003908D5
:1006E000BB007B2B2100BC1F762B772B7B2BBB0108
:1006F000BC017B2B7B2B3B089C314D24803121009E
:10070000B501B601442C01302100BD070030BE3DCB
:100710003E08803AB10080303102031D912B143025
:100720003D02031C942B952B992B2100BD01BE018A
:10073000992B21003E08AA003D08A9000530AB0016
:100740000030AC009D31B025803121002908003EE9
:10075000AF0070302A3DB0009C312D248031210043
:10076000B100B2013108BF003208C0003F089C311F
:100770004D24803121003E08AA003D08A900053023
:10078000AB000030AC009D31B0258031210029083C
:10079000013EAF0070302A3DB0009C312D248031E5
:1007A0002100B100B2013108BF003208C0003F088B
:1007B0009C314D24803121003E08AA003D08A9004B
:1007C0000530AB000030AC009D31B02580312100F8
:1007D0002908023EAF0070302A3DB0009C312D2424
:1007E00080312100B100B2013108BF003208C000E1
:1007F0003F089C314D24803121003E08AA003D086D
:10080000A9000530AB000030AC009D31B02580312F
:1008100021002908033EAF0070302A3DB0009C3112
:100820002D2480312100B100B2013108BF0032080F
:10083000C0003F089C314D24803121003E08AA00B1
:100840003D08A9000530AB000030AC009D31B0255B
:10085000803121002908043EAF0070302A3DB000ED
:100860009C312D2480312100B100B2013108BF003C
:100870003208C0003F089C314D24803101302100F6
:10088000B5070030B63D442C3608803AB1003C082C
:10089000803A3102031D4E2C3B083502031C512CBB
:1008A000522C832B532C65302100A0007030A10006
:1008B0003D08B1003108A2009E313E268031B92D9D
:1008C000220025082100BC00220024082100BB00D2
:1008D000220027082100BE00220026082100BD00BA
:1008E0006630AF007030B0009C312D248031210083
:1008F000B100B2013108B9003208BA003A08803AB2
:10090000B1003C08803A3102031D882C3B083902B3
:1009100003188B2C8C2C922C21003A08BC0039082F
:10092000BB009B2C2100BC1F962C972C9B2CBB0141
:10093000BC019B2C9B2C3B089C314D248031210019
:10094000BE1BA32CA42CB22C3E08803AB1008030F0
:100950003102031DAD2C15303D02031CB02CB12C0F
:10096000B62CB22C2100BD01BE01B62C21003D08E1
:100970009C314D2480312100B701B801802D013018
:100980002100BD070030BE3D3E08803AB1008030F6
:100990003102031DCD2C14303D02031CD02CD12C70
:1009A000D52C2100BD01BE01D52C21003E08AA0096
:1009B0003D08A9000530AB000030AC009D31B025EA
:1009C000803121002908003EAF0070302A3DB00080
:1009D0009C312D2480312100B100B2013108BF00CB
:1009E0003208C0003F089C314D24803121003E0870
:1009F000AA003D08A9000530AB000030AC009D31D5
:100A0000B025803121002908013EAF0070302A3D19
:100A1000B0009C312D2480312100B100B201310899
:100A2000BF003208C0003F089C314D2480312100B6
:100A30003E08AA003D08A9000530AB000030AC001C
:100A40009D31B025803121002908023EAF00703071
:100A50002A3DB0009C312D2480312100B100B2012B
:100A60003108BF003208C0003F089C314D2480315E
:100A700021003E08AA003D08A9000530AB00003067
:100A8000AC009D31B025803121002908033EAF0024
:100A900070302A3DB0009C312D2480312100B100FE
:100AA000B2013108BF003208C0003F089C314D241C
:100AB000803121003E08AA003D08A9000530AB00A6
:100AC0000030AC009D31B025803121002908043E62
:100AD000AF0070302A3DB0009C312D2480312100C0
:100AE000B100B2013108BF003208C0003F089C319C
:100AF0004D24803101302100B7070030B83D802DF2
:100B00003808803AB1003C08803A3102031D8A2D32
:100B10003B083702031C8D2D8E2DBF2C8F2D653089
:100B20002100A0007030A1003D08B1003108A200F2
:100B30009E313E268031B92D1E309C314D248031AE
:100B4000B92D1F309C314D248031B92D210034083E
:100B5000003A0319AC2DA12D3308403E031CA12DF2
:100B600084000F3004020318A12D98310435003E93
:100B70008200FE309C314D2480310800200027087F
:100B80008039A8002808B1002735A8002808B80037
:100B9000A61FCB2DCC2DCE2D3814CE2D3808031901
:100BA000D22DD32DE42D380A031DD72DD82DE12DBC
:100BB0000030A7000030A6000030A5000030A400DF
:100BC000E12DA617A701ED2D0030A7000030A600EB
:100BD0000030A5000030A400ED2D23088039A800C6
:100BE0002808B1062335A8002808B900A21FF92D4E
:100BF000FA2DFC2D3914FC2D39080319002E012E75
:100C0000122E390A031D052E062E0F2E0030A300CA
:100C10000030A2000030A1000030A0000F2EA2176B
:100C2000A3011A2E0030A3000030A2000030A10062
:100C30000030A0002308220421042004031D212EDB
:100C4000222E3C2E0030A7000030A6000030A50068
:100C50000030A4008030A6047F30A7043108A8002B
:100C60002808A7042708A3002608A2002508A10039
:100C70002408A0009C2F9C2F3808031D402E412ED5
:100C8000532E0030A7000030A6000030A500003031
:100C9000A4002708A3002608A2002508A100240814
:100CA000A0009C2F9C2F3908A800A901A809A90918
:100CB000A80A0319A90A38082807AA00290803184E
:100CC000290AAB002A087F3EB20000302B3DB3005A
:100CD0002708B0002608AF002508AE002408AD00A4
:100CE0000030A7000030A6000030A5000030A400AE
:100CF0000030B7000030B6000030B5000030B4005E
:100D0000B901C42E39080319862E872EA32E01306F
:100D1000AD35AE0DAF0DB00D890B882E0130A43569
:100D2000A50DA60DA70D890B8F2EB71F982E992EF6
:100D30009B2E24149B2E0130B435B50DB60DB70D86
:100D4000890B9C2EA32E23083002031DB12E2208EE
:100D50002F02031DB12E21082E02031DB12E2008E3
:100D60002D02031CB42EB52EBF2E37172008AD025E
:100D70002108AE3B2208AF3B2308B03BBF2E013019
:100D8000A8002808B907C42E1A303902031CC92E3E
:100D9000CA2E822ECB2E30082F042E042D040319C8
:100DA000D22ED32EEF2E3414EF2EEF2E0130A43599
:100DB000A50DA60DA70D890BD72EB71FE02EE12E8E
:100DC000E32E2414E32E0130B435B50DB60DB70D66
:100DD000890BE42EFF30B207FF30B33DEF2EA61F84
:100DE000F22EF32ED62EF42EB901B71FF82EF92EBF
:100DF000192FFF303405A800FF303505A900FF305A
:100E00003605AA007F303705AB002B082A042904D9
:100E1000280403190C2F0D2F102FB901B90A192F0F
:100E2000241C132F142F192FB901B90A192F192FA8
:100E3000192F390803191D2F1E2F482F0130A40721
:100E40000030A53D0030A63D0030A73D271C292FCE
:100E50002A2F482F2408A8002508A9002608AA0040
:100E60002708AB000130AC00AB37AA0CA90CA80CCA
:100E7000AC0B342F2B08A7002A08A6002908A500D0
:100E80002808A4000130B2070030B33D482F482F96
:100E90003308803AA80080302802031D512FFF300C
:100EA0003202031C542F552F622FFF302000B20056
:100EB0000030B3000030A7000030A6000030A500CD
:100EC0000030A40020003308803AA80080302802B7
:100ED000031D6C2F0130320203186F2F702F7C2FEF
:100EE0002000B201B3010030A7000030A60000309E
:100EF000A5000030A400B10120003208A800280895
:100F0000B800381C842F852F872FA6178B2F7F3092
:100F1000A8002808A6053836A8002808A700310828
:100F2000A8002808A7042708A3002608A20025086F
:100F3000A1002408A0009C2F08002100B701B41FC5
:100F4000A22FA32FAB2FB309B409B30A0319B40A14
:100F5000B701B70AAB2FB21FAE2FAF2FB52FB10914
:100F6000B209B10A0319B20AB52F310832040319C4
:100F7000BA2FBB2FEA2FB601B60AC82F0130B13500
:100F8000B20D890BBF2F0130B5003508B607C82F49
:100F9000B21FCB2FCC2FBE2FCE2FCE2F3208340234
:100FA000031DD42F31083302031CD72FD82FDD2F78
:100FB0003108B3023208B43BDD2F0130B236B10C38
:100FC000890BDE2F0130B602031DE72FE82FCE2F4D
:100FD000EA2FEA2F37080319EE2FEF2FF52FB30969
:100FE000B409B30A0319B40AF52F3408B200330860
:100FF000B100FA2F080021006F08FE2F080008003A
:1010000008009B311623883108007E302100AF0094
:101010007030B0009C312D2488312100B500B6011C
:101020003508E7003608E8007D30AF007030B000CA
:101030009C312D2488312100B500B6013508E5002A
:101040003608E6003408803AB5006808803A350270
:10105000031D2C286708330203182F283028402846
:1010600021003208803AB5006608803A3502031D37
:101070003B2865083102031C3E283F2846284028AB
:1010800001302100D8000030D90046282100580343
:101090005904031D4C284D28672820006A086B045A
:1010A000031D532854286728210069036A04031D7F
:1010B0005A285B2867288831012088319B31192301
:1010C000883101302000EA000030EB008128210047
:1010D00058085904031D6D286E28812820006A03D2
:1010E0006B04031D74287528812800302100A0009E
:1010F000A1009D311B2588312000EA01EB018128E8
:10110000812808009D318E2588319C313D2488310D
:101110002000931513163E00CF154F168B170B1793
:1011200000302100A0001030A1009B318F238831B6
:10113000A7302100A0001130A1009B31A1238831EC
:1011400063302100A0001E30A1009B317D23883137
:10115000AA302100A0001230A1009B3198238831D1
:101160009B310D2388319B31322388319C311D24E2
:10117000883100302100A000A1009D311B2588315D
:1011800019302100E5000030E6009431F124883167
:10119000C9282100630A031DD128640A031DD12830
:1011A000D22871296C08B2006B08B1005B08B4004A
:1011B0005A08B30087319D27883121003108320455
:1011C000031DE328E428FF2890312F2088312100D7
:1011D0002508D7002408D6005708A1005608A0000B
:1011E0009D31D325883100302100B100B20057086D
:1011F000B4005608B300883105208831FF2821004B
:101200006C08B2006B08B1005B08B4005A08B30068
:1012100087319D278831210031033204031D1129B4
:101220001229342900008931D72188312100D100C9
:101230005108D3005308D100D20151082000E60024
:10124000210052082000E70000002000670821006C
:10125000B200200066082100B1000030B300B400E5
:10126000883105208831342921006C08B2006B08D0
:10127000B1005B08B4005A08B30087319D2788315C
:101280000230210031063204031D4729482967290D
:101290005708B2005608B100200067082100B400CA
:1012A000200066082100B3008C31EC248831003026
:1012B0002100B100B2000030B300B4008831052035
:1012C00088316729672990317A20883167299B31D5
:1012D0002A238831003A031D6E296F296329C92802
:1012E000C9289B311F2388319B312E23883101303F
:1012F0002100D4000030D500C22920008E1A812997
:1013000082299929210054035504031D882989291C
:1013100099298B316023883111302100D1003A3076
:10132000890B9029D10B902900002100D401D5010F
:10133000AB2920008E1E9D299E29AB29210054082F
:101340005504031DA429A529AB290130D400003080
:10135000D500AB29AB29220058035904031DB1293C
:10136000B229C229D801D9019631F326883111302A
:101370002100D1003A30890BBB29D10BBB290000D9
:10138000C229C2292100630A031DCA29640A031D58
:10139000CA29CB297D29CC299B31322388319B3125
:1013A0001C238831C928C928C92880317928D9291E
:1013B000D92923000F0C890C01392100A200230038
:1013C00011081F3921002204031DE729E829D92922
:1013D00023001114EB291118EE29EF29EB29F2292A
:1013E000F229F22923000F0C890C01392100A200F7
:1013F000230011081F3921002204031D002A012A9D
:10140000F229022A9A3091313A218931082A082A90
:1014100023000F0C890C01392100A20023001108C0
:101420001F3921002204031D162A172A082A182A08
:10143000013091313A2189311E2A1E2A23000F0CD6
:10144000890C01392100A200230011081F39210055
:101450002204031D2C2A2D2A1E2A23009114302A2F
:101460009118332A342A302A372A372A372A230078
:101470000F0C890C01392100A200230011081F392B
:1014800021002204031D452A462A372A472A9B3079
:1014900091313A2189314D2A4D2A23000F0C890CB4
:1014A00001392100A200230011081F392100220464
:1014B000031D5B2A5C2A4D2A5D2A9D31F625893160
:1014C0002100A2002208A300662A662A23000F0C2E
:1014D000890C01392100A200230011081F392100C5
:1014E0002204031D742A752A662A230091161116F8
:1014F000792A111A7C2A7D2A792A802A802A802A30
:1015000023000F0C890C01392100A20023001108CF
:101510001F3921002204031D8E2A8F2A802A2300CE
:101520001115922A1119952A962A922A2100231F11
:101530009A2A9B2AD7299E2A9E2A9E2A23000F0C8C
:10154000890C01392100A200230011081F39210054
:101550002204031DAC2AAD2A9E2A23001114B02AAE
:101560001118B32AB42AB02AB72AB72AB72A2300F7
:101570000F0C890C01392100A200230011081F392A
:1015800021002204031DC52AC62AB72AC72A9A3079
:1015900091313A218931CD2ACD2A23000F0C890CB3
:1015A00001392100A200230011081F392100220463
:1015B000031DDB2ADC2ACD2ADD2A003091313A21B5
:1015C0008931E32AE32A23000F0C890C0139210019
:1015D000A200230011081F3921002204031DF12A53
:1015E000F22AE32A23009114F52A9118F82AF92AFD
:1015F000F52AFC2AFC2AFC2A23000F0C890C01394D
:101600002100A200230011081F3921002204031D1C
:101610000A2B0B2BFC2A0C2B9B3091313A21893160
:10162000122B122B23000F0C890C01392100A20070
:10163000230011081F3921002204031D202B212B18
:10164000122B222B9D31F62589312100A200220880
:10165000A3002B2B2B2B23000F0C890C013921000D
:10166000A200230011081F3921002204031D392B79
:101670003A2B2B2B2300911611163E2B111A412BBE
:10168000422B3E2B452B452B452B23000F0C890C61
:1016900001392100A200230011081F392100220472
:1016A000031D532B542B452B23001115572B1119B8
:1016B0005A2B5B2B572B5C2B210023085F2B080038
:1016C000D32C67302100AF007030B0009C312D2446
:1016D0008B312100C600C7014608C8004708C90071
:1016E0004908A5004808A4009E31F8268B31013036
:1016F0002100E3000030E4009C315E248B31FF3098
:101700002000E400FF30E500EB2C67302100B8003A
:101710007030B9000130BA000030BB000030BC00AE
:10172000BD009531E8258B3121003908C900380802
:10173000C8004908A5004808A4009E31F8268B314E
:10174000EB2C67302100B8007030B9000030BA00CF
:10175000BB000030BC00BD009531E8258B31210075
:101760003908C9003808C8004908A5004808A4007D
:101770009E31F8268B31EB2C68302100B800703098
:10178000B9000130BA000030BB000130BC000030AD
:10179000BD009531E8258B3121003908C900380892
:1017A000C8004908A5004808A4009E31F8268B31DE
:1017B000EB2C68302100B8007030B9000030BA005E
:1017C000BB000130BC000030BD009531E8258B31F5
:1017D00021003908C9003808C8004908A500480890
:1017E000A4009E31F8268B31EB2C9C315E248B318A
:1017F000FF302000E400FF30E500210069086A04A2
:101800000319032C042C082C200016160C2C0C2C6D
:10181000200016120C2C0C2C06302100E3000030A6
:10182000E400EB2C69036A04031D172C182C1F2CF1
:10183000E901EA011B2C20001612292C292C013069
:101840002100E9000030EA00252C20001616292C82
:10185000292C81302100A0007030A1006908C60049
:101860004608A2009E313E268B31EB2C7D302100B4
:10187000AF007030B0009C312D248B312100C600A8
:10188000C7014608C8004708C9004908A50048081C
:10189000A4009E31F8268B319C315E248B31FF30C1
:1018A0002000E400FF30E50008302100E3000030B4
:1018B000E400EB2C7D30B8007030B9000130BA0084
:1018C0000030BB000230BC000030BD009531E8257F
:1018D0008B3121003908C9003808C8004908A50023
:1018E0004808A4009E31F8268B31EB2C7D30210076
:1018F000B8007030B9000030BA00BB000230BC0044
:101900000030BD009531E8258B3121003908C90030
:101910003808C8004908A5004808A4009E31F826E8
:101920008B31EB2C9C315E248B31FF302000E400A6
:10193000FF30E5007E302100AF007030B0009C31F8
:101940002D248B312100C600C7014608C800470876
:10195000C9004908A5004808A4009E31F8268B312B
:101960000B302100E3000030E400EB2C7E30B800A7
:101970007030B9000030BA00BB000330BC0000304A
:10198000BD009531E8258B3121003908C9003808A0
:10199000C8004908A5004808A4009E31F8268B31EC
:1019A000EB2CEB2CEB2C21006408003A0319DC2C07
:1019B000FF3A0319E62CEB2C630884000C30040278
:1019C0000318EB2C983104351E3E82006308FF3A61
:1019D0000319EB2CEB2C080066302100AF007030AF
:1019E000B0009C312D248C312100B500B6013508A2
:1019F000CD003608CE006430AF007030B0009C31AE
:101A00002D248C312100B500B6013508CF003608F1
:101A1000D0004D084E0403190E2D0F2D3D2D5008FA
:101A20004E06031D152D4F084D060319182D192DAF
:101A3000212D14304D064E04031D1F2D202D3D2D4C
:101A4000212D4E08803AB50080303502031D2A2D25
:101A500015304D0203182D2D2E2D3D2D210050083F
:101A6000803AB50080303502031D382D15304F0205
:101A7000031C3B2D3C2D842D3D2D2100CD01CE019D
:101A8000CF01D0016630A0007030A1004D08B50034
:101A90003508A2009E313E268C3164302100A00022
:101AA0007030A1004F08B5003508A2009E313E26D7
:101AB0008C3171302100A0007030A100A2019E3154
:101AC0003E268C316D302100A0007030A100A201B3
:101AD0009E313E268C317B302100A0007030A10069
:101AE000C830B5003508A2009E313E268C317730D3
:101AF0002100A0007030A1000530B5003508A2001B
:101B00009E313E268C31842D9B311F238C31200049
:101B10006D082100CA0020006C082100C9005D0882
:101B2000CC005C08CB005B08C8005A08C7009B319A
:101B30001C238C3167302100A0007030A1004908BF
:101B4000B5003508A2009E313E268C316830210058
:101B5000A0007030A1004B08B5003508A2009E31EE
:101B60003E268C312100BF01C001C101C2014D08D8
:101B70004E040319BC2DBD2DDE2D4F08033EAF00D2
:101B80007030503DB0009C312D248C312100B500C7
:101B9000B6013508BF003608C0004F08023EAF004E
:101BA0007030503DB0009C312D248C312100B500A7
:101BB000B6013508C1003608C200DE2D40083206E5
:101BC000031DE42D3F083106031DE72DE82DF32DFD
:101BD00042083406031DEE2D410833060319F12D8A
:101BE000F22DFA2DF32D4D084E04031DF82DF92D7D
:101BF000012EFA2D4D084E04031DFF2D002E972EA9
:101C0000012EC301C4015008803AB500803035026E
:101C1000031D0C2E13304F02031C0F2E102E142EFA
:101C20002100C301C4011C2E21004F08013EC30046
:101C30000030503DC4001C2EC501C6014E08803A3C
:101C4000B50080303502031D272E14304D020318D5
:101C50002A2E2B2E332E21004D08013EC5000030C8
:101C60004E3DC600392E21004E08C6004D08C50065
:101C7000392E6430A0007030A1004308B50035084B
:101C8000A2009E313E268C3166302100A0007030CB
:101C9000A1004508B5003508A2009E313E268C31D2
:101CA00021004F08003EA0007030503DA1004908BF
:101CB000B5003508A2009E313E268C3121004F0828
:101CC000013EA0007030503DA1004B08B500350822
:101CD000A2009E313E268C3121004F08023EA0001A
:101CE0007030503DA1004708B5003508A2009E3174
:101CF0003E268C3121004F08033EA0007030503D3D
:101D0000A1003308B5003508A2009E313E268C3173
:101D100021004F08043EA0007030503DA100310862
:101D2000B5003508A2009E313E268C31972E7130C9
:101D30002100AF007030B0009C312D248C31210087
:101D4000B500B6013508B7003608B8006D30AF00F1
:101D50007030B0009C312D248C312100B500B601CB
:101D60003508B9003608BA007B30AF007030B000DB
:101D70009C312D248C312100B500B6013508BB0003
:101D80003608BC007730AF007030B0009C312D2495
:101D90008C312100B500B6013508BD003608BE0003
:101DA0003408803AB5003808803A3502031DDA2E2F
:101DB00037083302031CDD2EDE2E1B2FD530210009
:101DC000A000E030A1004908B5003508A2009E310E
:101DD0003E268C316F302100A0007030A1004B08EE
:101DE000B5003508A2009E313E268C3170302100AE
:101DF000A0007030A1004708B5003508A2009E3150
:101E00003E268C3171302100A0007030A1003308D3
:101E1000B5003508A2009E313E268C31723021007B
:101E2000A0007030A1003108B5003508A2009E3135
:101E30003E268C311B2F21003208803AB5003A082B
:101E4000803A3502031D262F39083102031C292F41
:101E50002A2F672FD0302100A000E030A1004908D0
:101E6000B5003508A2009E313E268C316A30210033
:101E7000A0007030A1004B08B5003508A2009E31CB
:101E80003E268C316B302100A0007030A100470845
:101E9000B5003508A2009E313E268C316C30210001
:101EA000A0007030A1003308B5003508A2009E31B3
:101EB0003E268C316D302100A0007030A100310829
:101EC000B5003508A2009E313E268C31672F2100D7
:101ED0003C08803AB5003408803A3502031D722F61
:101EE00033083B02031C752F762FB32FDF30210000
:101EF000A000E030A1004908B5003508A2009E31DD
:101F00003E268C3179302100A0007030A1004B08B2
:101F1000B5003508A2009E313E268C317A30210072
:101F2000A0007030A1004708B5003508A2009E311E
:101F30003E268C317B302100A0007030A100330898
:101F4000B5003508A2009E313E268C317C30210040
:101F5000A0007030A1003108B5003508A2009E3104
:101F60003E268C31B32F21003E08803AB50032085E
:101F7000803A3502031DBE2F31083D02031CC12FDC
:101F8000C22FFF2FDA302100A000E030A100490865
:101F9000B5003508A2009E313E268C3174302100F8
:101FA000A0007030A1004B08B5003508A2009E319A
:101FB0003E268C3175302100A0007030A10047080A
:101FC000B5003508A2009E313E268C3176302100C6
:101FD000A0007030A1003308B5003508A2009E3182
:101FE0003E268C3177302100A0007030A1003108EE
:101FF000B5003508A2009E313E268C31FF2F080027
:1020000001302100DA070030DB3D3C305A065B042A
:10201000031D0B280C2813280130DC070030DD3DA0
:10202000DA01DB0113283C305C065D04031D19282E
:102030001A28232801302000EC070030ED3D210054
:10204000DC01DD01232820008C1B272828282B28D1
:1020500096172E282E2896132E282E280800023098
:102060002100A6000030A70000309C31932490315D
:10207000210021082000E900210020082000E800BC
:102080000130690200300319680203184828492802
:102090004D282100A601A701742802302000690202
:1020A0000030031968020318562857285D280130AC
:1020B0002100A6000030A700742803302000690228
:1020C0000030031968020318662867286D2802305B
:1020D0002100A6000030A700742803302100A600CC
:1020E0000030A700742874282708A5002608A4003B
:1020F000792808009E31C32690312100C100410893
:10210000C300FD304306031D862887289B2843080B
:10211000C100C20120006035203E860001308700EA
:1021200021004108C03F4208C13F01302000E007C4
:102130000030E13DCF2820006108803A2100C10035
:1021400080304102031DA728013020006002031CDB
:10215000AA28AB28CF2821004308C100C2012000D3
:102160006035203E86000130870021004108C03FD5
:102170004208C13F01302000E0070030E13DFE3061
:1021800021004306031DC528C628CF288031AB2077
:1021900090312000E001E101CF28CF28CF280800AE
:1021A0002100A601A11FD528D628DE28A009A10953
:1021B000A00A0319A10AA601A60ADE28A31FE12886
:1021C000E228EC28A209A309A20A0319A30A0130F4
:1021D000A4002408A606EC28A701A80120082104D1
:1021E0000319F328F4282929A501A50A012901309A
:1021F000A035A10D890BF8280130A4002408A507FB
:102200000129A11F04290529F728072907290130D9
:10221000A735A80D890B082921082302031D1229BF
:1022200020082202031C152916291C292008A202B5
:102230002108A33B27141C290130A136A00C890BCF
:102240001D290130A502031D26292729072929292F
:102250002929260803192D292E293429A709A80977
:10226000A70A0319A80A34292808A1002708A000F2
:10227000392908002100A100210823008C00901FAB
:10228000422943294629A629A629A6290F30100547
:102290002100A0000830200603194F2950296E297B
:1022A0000F30230010052100A0000B302006031979
:1022B0005A295B296E29230010165E292E000F1C57
:1022C000622963295E2923000F1967296829A62935
:1022D0000F08A629A629A629A629A6290F3023007A
:1022E00010052100A000083020060319782979295B
:1022F00086290F30230010052100A0000B30200696
:10230000031D83298429A6298629862923000F18DD
:102310008A298B2986298E298E298E2923000F0C44
:10232000890C01392100A000230011081F39210068
:102330002004031D9C299D298E2923001108A6290C
:10234000A629A629A629A629A629A629080020008B
:10235000640A031DB029650A0319AF29B029142A9C
:10236000220056085704031DB629B729FB29CD2999
:10237000CD2920001616E129E1299616E129E12947
:10238000FC30F0000330F1009C31A8249131E129A8
:1023900020009617E129E129E12920006508003A8B
:1023A0000319D329E1296408023A0319B929013A2A
:1023B0000319BD29073A0319C029013A0319C8298D
:1023C000E12901302200D6000030D700142AFB2971
:1023D000200016120F2A0F2A96120F2A0F2A0030F9
:1023E000F000F1009C31A82491310F2A20009613AF
:1023F0000F2A0F2A0F2A20006508003A0319012A24
:102400000F2A6408023A0319E829013A0319EC2952
:10241000073A0319EF29013A0319F6290F2A220076
:10242000D601D701142A142A080020004E08D20031
:102430004F08D3005008D4005108D5000310540DA4
:10244000550DD6005608D8005808031D282A292AF9
:10245000332A0030D1000030D0000030CF000030EF
:10246000CE00A92AA92A4E08D2004F08D30050084E
:10247000D4005108D5001F30D536D40CD30CD20C63
:10248000890B3C2A5208D6005608D700D017FF30D7
:10249000CE05FF30CF05FF30D0050030D105963096
:1024A000D802D81F542A552A782A5808803A973ECD
:1024B00003185B2A5C2A672A0030D1000030D00064
:1024C0000030CF000030CE00A92AA92A672A0130A7
:1024D000D136D00CCF0CCE0C890B682A0130D2003B
:1024E0005208D807031D752A762A672A992A992A3D
:1024F00020305802031C7D2A7E2A922A0030D10007
:102500000030D0000030CF000030CE00A92AA92A28
:10251000922A0130CE35CF0DD00DD10D890B8A2AEC
:102520000130D8025808031D962A972A892A992A29
:10253000992A570803199D2A9E2AA92ACE09CF094C
:10254000D009D109CE0A0319CF0A0319D00A0319F9
:10255000D10A0800200062086304031DB02AB12AD2
:10256000B42A9B31FD23923121006D08F0006E08E2
:10257000F100890D893B8909F200F30001309331A4
:102580004E23923173082000A7007208A60071083C
:10259000A5007008A4003E30A3004C30A200CC304F
:1025A000A100CD30A0008531BE2592312000230846
:1025B000DD002208DC002108DB002008DA004430BE
:1025C000A7007A30A6000030A5000030A4005D0806
:1025D000A3005C08A2005B08A1005A08A000853196
:1025E000BE25923120002308BD002208BC0021082E
:1025F000BB002008BA0094310224923120003D082B
:10260000D1003C08D0003B08CF003A08CE00923100
:102610001522923120004F08DF004E08DE005E08D0
:10262000E2075F08E33D220054085504031D192BFF
:102630001A2B272BFC30F0000330F1009C31A8242A
:10264000923101302200D4000030D500312B00300F
:10265000F000F1009C31A82492312200D401D50170
:10266000312B20006308803AD90083305902031DC2
:102670003B2BE8306202031C3E2B3F2B4D2B9B3142
:102680000A2392312000E201E301FC30F000033024
:10269000F1009C31A82492314D2B0800F8007808F5
:1026A0000319532B542B682BF31F572B582B682BD4
:1026B0007009FA007109FB007209FC007309FD0042
:1026C000FA0A0319FB0A0319FC0A0319FD0A702B05
:1026D0007308FD007208FC007108FB007008FA0026
:1026E0007308720471047004031D772B782B822BFE
:1026F0000030F3000030F2000030F1000030F00054
:10270000012C012C9630F4007408F900932B013051
:10271000F4007408F9070130FD36FC0CFB0CFA0CD0
:10272000890B8C2B932BFE307D05031D982B992B49
:10273000872BAE2BAE2B0130F4007408F907013063
:10274000FA070030FB3D0030FC3D0030FD3D01301C
:10275000FD36FC0CFB0CFA0C890BA82BFF307D0519
:10276000031DB32BB42B9B2BC02BC02B0130F902C4
:102770000130FA35FB0DFC0DFD0D890BB92BC02B7B
:10278000FC1BC32BC42BCB2B023079020318C92BA3
:10279000CA2BB62BCB2B7918CE2BCF2BD72BFF30B8
:1027A000FA05FF30FB057F30FC05FF30FD05031007
:1027B000F90C7908F400F501F601F7011830F43549
:1027C000F50DF60DF70D890BDF2B7408FA0475086B
:1027D000FB047608FC047708FD0478080319F12B44
:1027E000F22BF82BF31FF52BF62BF82BFD17F82BFC
:1027F0007D08F3007C08F2007B08F1007A08F00005
:10280000012C0800220053082000CD0022005208AD
:102810002000CC00220051082000CB0022005008EC
:102820002000CA003D08CD003C08CC003B08CB008E
:102830003A08CA004A08BE004B08BF004C08C00056
:102840004D08C1001730C136C00CBF0CBE0C890B3F
:10285000232CFF303E05C20000303F05C300420874
:10286000813EC800FF30433DC9004908803ABE00A0
:1028700080303E02031D3E2C17304802031C412CC1
:10288000422C432CF02C2000C91B472C482CA62C92
:10289000FF30BE00FF30BF007F30C0000030C100FD
:1028A000480A562CC137C00CBF0CBE0C890B522CE9
:1028B0004108C7004008C6003F08C5003E08C400E4
:1028C0004A084405BE004B084505BF004C084605B4
:1028D000C0004D084705C100410840043F043E04C4
:1028E000031D732C742C752CF02C4A08BE004B0869
:1028F000BF004C08C0004D08C1001F30C136C00CDD
:10290000BF0CBE0C890B7E2C410840043F043E04E2
:10291000031D8B2C8C2C952C4408CA074508CB3DF5
:102920004608CC3D4708CD3D952C4409BE004509DD
:10293000BF004609C0004709C1003E08CA053F085C
:10294000CB054008CC054108CD05E72C4A08BE0060
:102950004B08BF004C08C0004D08C1001F30C136F5
:10296000C00CBF0CBE0C890BAF2C410840043F04C7
:102970003E040319BC2CBD2CC62C8030CD00003089
:10298000CC000030CB000030CA00E72C4A08BE0063
:102990004B08BF004C08C0004D08C1000130BE35D7
:1029A000BF0DC00DC10D890BCF2C410840043F0461
:1029B0003E040319DC2CDD2CE72C3F30CD008030A9
:1029C000CC000030CB000030CA00E72CE72C4D08CB
:1029D000BD004C08BC004B08BB004A08BA00F02CF4
:1029E000080066302100AF007030B0009C312D240B
:1029F00094312100B100B2013108B5003208B600AF
:102A00006430AF007030B0009C312D24943121002F
:102A1000B100B2013108B3003208B40014303506F9
:102A200036040319142D152D272D34083606031DE1
:102A30001B2D33083506031D1E2D1F2DAA2D143006
:102A4000350636040319252D262DAA2D272D3608E7
:102A5000803AB10080303102031D302D153035022F
:102A60000318332D342DAA2D21003408803AB100EB
:102A700080303102031D3E2D153033020318412DE5
:102A8000422DAA2D67302100AF007030B0009C317C
:102A90002D2494312100B100B20131082000EC0056
:102AA000210032082000ED0068302100AF007030B6
:102AB000B0009C312D2494312100B100B2013108C5
:102AC000DC003208DD007E30AF007030B0009C3199
:102AD0002D2494312100B100B2013108E700320801
:102AE000E8007D30AF007030B0009C312D2494316F
:102AF0002100B100B2013108E5003208E600803063
:102B0000AF007030B0009C312D2494312100B10011
:102B1000B2013108EB003208EC007F30AF007030BA
:102B2000B0009C312D2494312100B100B201310854
:102B3000ED003208EE008130AF007030B0009C3103
:102B40002D2494312100B100B2013108E90032088E
:102B5000EA00E72D7E302100A0007030A100670858
:102B6000B1003108A2009E313E2694317D30210013
:102B7000A0007030A1006508B1003108A2009E31AC
:102B80003E26943180302100A0007030A1006B08F7
:102B9000B1003108A2009E313E2694317F302100E1
:102BA000A0007030A1006D08B1003108A2009E3174
:102BB0003E2694317F302100A0007030A1006908CA
:102BC000B1003108A2009E313E269431E72D080065
:102BD0000F2E5430840098308500003F2100C20041
:102BE000013FC300232E5230840098308500003FFF
:102BF000C200013FC300232E50308400983085006E
:102C0000003FC200013FC300232E4E3084009830A5
:102C10008500003FC200013FC300232E232E210068
:102C20003D08003A0319152E232E3C08003A0319DB
:102C3000E92D013A0319F32D033A0319FC2D013A4A
:102C40000319052E232E3A083B040319282E292E9A
:102C5000762E3908B0003808AF009C312D2495310C
:102C60000A3E2100C400003003180130C5004508A9
:102C7000803ABE004308803A3E02031D412E4208BE
:102C80004402031C442E452E562E0A302100B1006A
:102C90000030B2004508B4004408B30087319D27D6
:102CA000953121003208C5003108C40021003908DF
:102CB000A1003808A0004408BE003E08A2009E31D2
:102CC0003E2695310A302100A0000030A1004508C1
:102CD000A3004408A2009031D020953121002108A2
:102CE000B9002008B800F22EF22EF22E3908B000FA
:102CF0003808AF009C312D249531013E2100C400DD
:102D0000003003180130C5004408FF3EC000FF300A
:102D1000453DC1004508803ABE004308803A3E0266
:102D2000031D942E42084402031C972E982E9C2EBD
:102D30002100C401C501E02E0A302100A0000030AE
:102D4000A1004108A3004008A2009031D020953195
:102D500021002008BE002108BF000A30A00000307A
:102D6000A1004508A3004408A2009031D02095316D
:102D7000210021083F06031DBF2E20083E0603192F
:102D8000C22EC32EE02E0A30A0000030A100410860
:102D9000A3004008A2009031D020953121002108E5
:102DA000AA002008A9000A30AB000030AC009D3119
:102DB000B025953121002A08C5002908C400E02E5D
:102DC0003908A1003808A0004408BE003E08A2004F
:102DD0009E313E26953121004508B9004408B800CF
:102DE000F22EF22E0800E72F9C315E24963104303B
:102DF0002000E4000030E50005302100E300003051
:102E0000E400FF2F6730AF007030B0009C312D24FC
:102E100096312100B800B9013808BA003908BB0062
:102E20003B08A5003A08A4009E31F82696310230EE
:102E30002100E3000030E400FF2F0A30B100003031
:102E4000B2006830AF007030B0009C312D24963154
:102E50002100B800B9013808B3003908B40087313F
:102E60009D27963121003208BB003108BA003B088B
:102E7000A5003A08A4009E31F826963103302100BF
:102E8000E3000030E400FF2F6830AF007030B00086
:102E90009C312D2496312100B800B9013808BA00C0
:102EA0003908BB003B08A5003A08A4009E31F8266B
:102EB000963104302100E3000030E400FF2F3B088E
:102EC000A5003A08A4009E31F8269631053021006D
:102ED000E3000030E400FF2F0730E3000030E4009F
:102EE0009C315E24963103302000E4000030E50080
:102EF000FF2F07302100E3000030E4009C315E2406
:102F0000963103302000E4000030E500FF2F9C31B3
:102F10005E24963102302000E4000030E5000A30E3
:102F20002100E3000030E400FF2F9C315E24963145
:102F3000FF302000E400FF30E5007D302100AF00CD
:102F40007030B0009C312D2496312100B800B901B9
:102F50003808BA003908BB003B08A5003A08A400AD
:102F60009E31F826963109302100E3000030E4005C
:102F7000FF2F0A30E3000030E400FF2F9C315E2475
:102F80009631FF302000E400FF30E500FF302100E3
:102F9000E300FF30E400FF2F9C315E249631FF30C8
:102FA0002000E400FF30E500FF302100E300FF30A7
:102FB000E400FF2F9C315E24963103302000E400B2
:102FC0000030E500FF2F2100E301E401FF2F210085
:102FD0006408003A0319F02FFF3A0319FA2FFF2F64
:102FE000630884000C3004020318FF2F9831043565
:102FF000363E82006308FF3A0319DA2FFF2F0800DC
:103000008031BD288031CD288131012981310C29C1
:1030100081311729813120298131292981313829AC
:103020008131642981316D298231E92A8331142B60
:1030300083313A2B8431602C85319C2D8B31612B6F
:103040008B31852B8B31A12B8B31BC2B8B31D92B29
:103050008B31F52B8C31122C8C31362C8C315A2C37
:103060008C31762C8C31922C8C31B62C9631F42EFE
:103070009731022F97311D2F9731442F97315F2FB2
:1030800097316C2F9731792F9731872F9731952F63
:103090009731B92F9731BE2F9731CC2F043400349C
:0C30A000323400343C3400341834003466
:1036120008002400141008002400141008002500DB
:103622009417080025009413080025008E1708003F
:1036320024001414080024000E14080024000E10A4
:1036420008009D3134259B31080022001D121D16F1
:10365200080021005E082D2B08009B3110239B31AE
:1036620008009B3113239B3108002E000C109B3164
:10367200C3239B310800640080010131890B3D2B7B
:103682000034FE0012001E00FE0B432B00342F00FC
:1036920096019701980199019A019B010800210066
:1036A20021082300B100210020082300B0000800F7
:1036B200210021082200DF00210020082200DE0074
:1036C2000800210021082300B30021002008230064
:1036D200B2000800210021082200ED00210020088C
:1036E2002200EC000800210021082200EF00210046
:1036F20020082200EE000800210021082200E70035
:10370200210020082200E6000800623031008D000E
:103712008F019101023093009201080021002108DB
:103722002200E900210020082200E8000800210010
:1037320021082200E300210020082200E200080004
:10374200210021082200E100210020082200E000DF
:103752000800FF34FF3419340034023400340134D9
:1037620000340334003402340034803027008E00E9
:103772007C308D00C0308C0024001F08F3390438DF
:103782009F0008002200660867040319C92BCA2B90
:10379200D02B67088A0066080A009B31D02B0800EC
:1037A2002E000C100B1400302100A0000830A100E4
:1037B2009B317D239B312E00161408000130250019
:1037C20090008F019101F9308D008C012E00901034
:1037D200903025008E00080020001612F02B961261
:1037E200F22B0030F000F1009C31A8249B31F92B20
:1037F20020009613FC2B080055303D008F00AA30A4
:103802008F000F100E303E00960055303D008F00A5
:10381200AA308F000F1408002E00901122006008B9
:1038220061040319152C162C1C2C61088A006008EF
:103832000A009C311C2C080055303D008F00AA3034
:103842008F000F100E303E00960055303D008F0065
:10385200AA308F000F1408002100300830009B00AE
:1038620021002F0830009A001E171E1400000000CD
:1038720030001C083C2C08002300901A412C422CDA
:103882004C2C8F0128309000910103308D004C2C7C
:103892004C2C4C2C4C2C08002100A2008731FB2719
:1038A2009C31003A0319562C572C5D2C210022081A
:1038B2009E3193269C315D2C080020001612612C4B
:1038C2009612632C00302100A000A1009D311B251F
:1038D2009C316B2C200096136E2C080024000E1DC8
:1038E200732C742C7B2C0E1071088D0070088C00C8
:1038F2000E14802C71088D0070088C00802C08003A
:103902002400141D852C862C8D2C14107108930014
:10391200700892001414922C71089300700892009F
:10392200922C08002100A30023089E009317131372
:10393200131400009C2C21001318A02CA12C9C2CE9
:10394200A22C0D08A1000C08A000A72C08007108E9
:10395200F3007008F200F336F20CF336F20C720840
:1039620027008D0070080339F2000530F235FF3E62
:10397200031DB72C72358C00080022008E018F01C6
:1039820090019101920193018D0121009E019B0101
:1039920094019501960197019A0199019801843049
:1039A20093009D01080004302500960095019701BF
:1039B200F130930092012E0090119A15FF302100F0
:1039C200A0000730A1009B31A1239C31D0302500FB
:1039D200940008002E00101022006B08F1006A0803
:1039E200F0009C316F249C3122006808690403199D
:1039F200FB2CFC2C022D69088A0068080A009D3104
:103A0200022D08002E00101122006508F100640842
:103A1200F0009C3181249D31220062086304031965
:103A2200132D142D1A2D63088A0062080A009D3195
:103A32001A2D080021002108A3002008A200A336A5
:103A4200A20CA336A20C220827008D002100200818
:103A52000339A2000530A235FF3E031D2C2D22356D
:103A620027008C00080022001908F00021006008DD
:103A7200A03E860001308700700881000130F0000E
:103A82007008E00708306002031C482D492D4B2DB9
:103A9200E0014B2D0130F0007008DE070800240021
:103AA2008F0190010430910086308D00E8308C0047
:103AB2000D082200EB0024000C082200EA002E0070
:103AC20010101A1402302100A0000030A1009B3116
:103AD2008F239D31053024008E00080024009501BB
:103AE200960104309700E7309300C8309200130823
:103AF2002200E500240012082200E4002E0010112A
:103B02001A1503302100A0000030A1009B31982338
:103B12009D3101302400940008009B3148239D31DF
:103B22009F3136279D319B3186239D319B31B623B0
:103B32009D319C31BE249D319D316F259D319C313B
:103B4200D4249D319B31DF239D319B31D1239D3183
:103B52009D3150259D319F31BB279D3108002100A9
:103B6200AD01AE01B42D291CB72DB82DBC2D2B08EB
:103B7200AD072C08AE3D0130AB35AC0D890BBD2D28
:103B82000130AA36A90C890BC22D29082A04031D6B
:103B9200CB2DCC2DB42DCD2D2E08AA002D08A90099
:103BA200D22D080021002108803AA2008030220292
:103BB200031DDD2D02302002031CE02DE12DE52D39
:103BC20020009616E82DE82D20009612E82D2100FF
:103BD200201CEC2DED2DF12D20001616F52DF52DC6
:103BE20020001612F52DF52D08000F3023001005C8
:103BF2002100A000083020060319002E012E0C2EF1
:103C02000F30230010052100A0000B302006031DF9
:103C12000B2E0C2E102E23009115102E102E230089
:103C22000F1C142E152E102E162E0C08182E0800FE
:103C3200083021006F0203181F2E202E3A2E610831
:103C4200A83E860001308700010822009A00013058
:103C5200F00070082100E10708306102031C322ED7
:103C6200332E352EE101352E0130F0007008EF07BA
:103C72003D2E2E0019123D2E080000308B1B013004
:103C82002100A300210830009B0021002008300001
:103C92009A002100220830009C001E171E158B136B
:103CA20055309F00AA309F009E14572E9E185A2E00
:103CB2005B2E572E1E112100230C031C8B1303189D
:103CC2008B170800210058035904031D692E6A2E20
:103CD200732ED801D9010030F000F1009C31A824E4
:103CE2009E318E2E2100630A031D7B2E640A031D62
:103CF2007B2E7C2E882E9B31ED239E3105302000B9
:103D0200E4000030E5002100E301E4018E2E0130E1
:103D12002200D8000030D9008E2EFA300032890BF2
:103D22008F2E08002100A100972E972E6F080319ED
:103D32009B2E9C2E972E2E00191AA02EA12EA62E57
:103D42002100210822009A00C02E19122100210808
:103D5200A0006208A83E860001308700200881008A
:103D62000130A0002008E20708306202031CBA2ECC
:103D7200BB2EBD2EE201BD2E0130EF02C02E2E0061
:103D8200191608002100A101C72EC72E5E080319CB
:103D9200CB2ECC2EC72ECD2E5F08483E860001309A
:103DA20087000108A00020082000EE0021005F0823
:103DB200A03E8600013087000108A0002008A10073
:103DC2000130A0002008DF0708305F02031CEA2E42
:103DD200EB2EED2EDF01ED2E2E0099120130210087
:103DE200DE022E00991621002108F72E08009C31D0
:103DF2005E249E312100241CFF2E002F042F200060
:103E02001616072F072F20001612072F2100A41CB9
:103E12000B2F0C2F102F20009616132F132F20007C
:103E22009612132F2100241D172F182F202FFF3039
:103E3200A0000330A1009D311B259E31282F0030A8
:103E42002100A000A1009D311B259E31282F2100B9
:103E5200A41D2C2F2D2F312F20009617352F352FF3
:103E620020009613352F352F080020009A01990162
:103E7200960197019801073095000F309100FF30AD
:103E82009200BF309300FF309400FF303E00D90013
:103E92004730CE00EF30C3000730E4000F30B800E7
:103EA200DA01E501C401B901CF01E601BA01C50198
:103EB200D001DB01FF30BB00FF30C600FF30D10074
:103EC200FF30DC000730E7000C303D009000173077
:103ED200CB001330C50014303E00A3001530A400FF
:103EE2001030A60014303D00C60008002100600812
:103EF200483E860001308700810122001D1D822F6D
:103F0200832F912F21006008483E860001308700F0
:103F1200811422005F088A005E080A009F31912FF7
:103F220022009D1C952F962FA42F21006008483E49
:103F32008600013087000115230033088A00320809
:103F42000A009F31A42F21006008483E86000130FC
:103F5200870001080319AE2FAF2FB62F23003108B7
:103F62008A0030080A009F31BA2F9D3134259F31D3
:103F7200BA2F08002E00991277302100A0001F30BE
:103F8200A1009B316B239F312E00191219302100A1
:103F9200A0001E30A1009B3174239F310830220003
:103FA2009F0090309D0024309E0019309B009C01A0
:103FB20009302100A0001B30A1009B3159239F3101
:103FC20026302100A0001B30A1009B3162239F31CB
:103FD20022302100A0001B30A1009B3150239F31D1
:103FE2002000EE012100E201E1010830A2002208D6
:0E3FF200EF00E001DF01DE012E00991608004D
:020000040001F9
:0A000E00EC3FFF3F9F3FFF3FFF3F25
:00000001FF
