:020000040000FA
:1000000080315928080008007E1480312E00161C0B
:100010000A280B2813280C1C0E280F2813289731A8
:100020005927803157280B1F162817285728991C45
:100030001A281B2821288F1C1E281F2821285728F2
:100040005728191C242825282B280F1C2828292844
:100050002B28572857289A1D2E282F283728901DDF
:100060003228332837289731F027803157281A1D36
:100070003A283B284328101D3E283F284328883132
:10008000E520803157281A1C462847285728101C7D
:100090004A284B2857288831CD20803157285728A7
:1000A00057285728572857285728572857287E1049
:1000B000090080315B2885308400973085006530E9
:1000C0008600003087000830883131208031F60109
:1000D000F701F801F9014530840000308500143043
:1000E0009731772780317E1020008631822E65304F
:1000F000F4007030F5009731A72780312000A70069
:10010000A8012708BF002808C0006430F400703040
:10011000F5009731A72780312000A700A801270804
:10012000C1002808C2003F084004031998289928F4
:10013000C72842084006031D9F2841083F060319AF
:10014000A228A328AB2814303F064004031DA92889
:10015000AA28C728AB284008803AA7008030270289
:10016000031DB42815303F020318B728B828C72844
:1001700020004208803AA70080302702031DC228D1
:1001800015304102031CC528C6280E29C7282000A7
:10019000BF01C001C101C2016530A0007030A100E3
:1001A0003F08A7002708A2008931EA218031643086
:1001B0002000A0007030A1004108A7002708A2007D
:1001C0008931EA21803170302000A0007030A10018
:1001D000A2018931EA2180316C302000A00070300A
:1001E000A100A2018931EA2180317A302000A000EB
:1001F0007030A100C830A7002708A2008931EA2189
:10020000803176302000A0007030A1000530A700BA
:100210002708A2008931EA2180310E298731FD2784
:10022000803120005408BC005308BB005208BE00B7
:100230005108BD005008BA004F08B90097314A274D
:10024000803166302000A0007030A1003B08A7007C
:100250002708A2008931EA21803167302000A00000
:100260007030A1003D08A7002708A2008931EA21CB
:1002700080312000B101B201B301B4013F08400454
:1002800003194329442965294108033EF4007030CD
:10029000423DF5009731A72780312000A700A80133
:1002A0002708B1002808B2004108023EF40070306F
:1002B000423DF5009731A72780312000A700A80113
:1002C0002708B3002808B400652932082406031D56
:1002D0006B2931082306031D6E296F297A293408FA
:1002E0002606031D7529330825060319782979295F
:1002F00081297A293F084004031D7F298029882904
:1003000081293F084004031D862987291E2A882940
:10031000B501B6014208803AA70080302702031DCC
:10032000932913304102031C962997299B29200009
:10033000B501B601A32920004108013EB5000030F7
:10034000423DB600A329B701B8014008803AA70092
:1003500080302702031DAE2914303F020318B12953
:10036000B229BA2920003F08013EB7000030403DC5
:10037000B800C02920004008B8003F08B700C029D5
:100380006430A0007030A1003508A7002708A20043
:100390008931EA21803165302000A0007030A10051
:1003A0003708A7002708A2008931EA218031200000
:1003B0004108003EA0007030423DA1003B08A7006C
:1003C0002708A2008931EA21803120004108013E3E
:1003D000A0007030423DA1003D08A7002708A20000
:1003E0008931EA21803120004108023EA0007030AE
:1003F000423DA1003908A7002708A2008931EA215F
:10040000803120004108033EA0007030423DA10031
:100410002508A7002708A2008931EA2180312000A1
:100420004108043EA0007030423DA1002308A7000F
:100430002708A2008931EA2180311E2A7030F40099
:100440007030F5009731A72780312000A700A80160
:100450002708A9002808AA006C30F4007030F500C5
:100460009731A72780312000A700A8012708AB00FB
:100470002808AC007A30F4007030F5009731A727D7
:1004800080312000A700A8012708AD002808AE0091
:100490007630F4007030F5009731A72780312000C6
:1004A000A700A8012708AF002808B0002608803A56
:1004B000A7002A08803A2702031D602A290825027E
:1004C000031C632A642AA12AD3302000A000E03054
:1004D000A1003B08A7002708A2008931EA2180314A
:1004E0006E302000A0007030A1003D08A700270852
:1004F000A2008931EA2180316F302000A0007030E5
:10050000A1003908A7002708A2008931EA2180311B
:1005100070302000A0007030A1002508A700270837
:10052000A2008931EA21803171302000A0007030B2
:10053000A1002308A7002708A2008931EA21803101
:10054000A12A20002408803AA7002C08803A27021C
:10055000031DAC2A2B082302031CAF2AB02AED2A64
:10056000CE302000A000E030A1003B08A700270803
:10057000A2008931EA21803169302000A00070306A
:10058000A1003D08A7002708A2008931EA21803197
:100590006A302000A0007030A1003908A7002708A9
:1005A000A2008931EA2180316B302000A000703038
:1005B000A1002508A7002708A2008931EA2180317F
:1005C0006C302000A0007030A1002308A70027088D
:1005D000A2008931EA218031ED2A20002E08803ADC
:1005E000A7002608803A2702031DF82A25082D02B5
:1005F000031CFB2AFC2A392BDD302000A000E03050
:10060000A1003B08A7002708A2008931EA21803118
:1006100078302000A0007030A1003D08A700270816
:10062000A2008931EA21803179302000A0007030A9
:10063000A1003908A7002708A2008931EA218031EA
:100640007A302000A0007030A1002508A7002708FC
:10065000A2008931EA2180317B302000A000703077
:10066000A1002308A7002708A2008931EA218031D0
:10067000392B20003008803AA7002408803A27024E
:10068000031D442B23082F02031C472B482B852BCB
:10069000D8302000A000E030A1003B08A7002708C8
:1006A000A2008931EA21803173302000A00070302F
:1006B000A1003D08A7002708A2008931EA21803166
:1006C00074302000A0007030A1003908A70027086E
:1006D000A2008931EA21803175302000A0007030FD
:1006E000A1002508A7002708A2008931EA2180314E
:1006F00076302000A0007030A1002308A700270852
:10070000A2008931EA218031852B0800882B882BB3
:1007100023000F0C890C01392000A00023001108D0
:100720001F3920002004031D962B972B882B2300B4
:1007300011149A2B11189D2B9E2B9A2BA12BA12BB8
:10074000A12B23000F0C890C01392000A0002300ED
:1007500011081F3920002004031DAF2BB02BA12B43
:10076000B12B9A308B31A6238331B72BB72B2300C3
:100770000F0C890C01392000A000230011081F393B
:1007800020002004031DC52BC62BB72BC72B01301F
:100790008B31A6238331CD2BCD2B23000F0C890C5D
:1007A00001392000A000230011081F392000200477
:1007B000031DDB2BDC2BCD2B23009114DF2B911899
:1007C000E22BE32BDF2BE62BE62BE62B23000F0C93
:1007D000890C01392000A000230011081F392000D6
:1007E0002004031DF42BF52BE62BF62B9B308B31CD
:1007F000A6238331FC2BFC2B23000F0C890C013921
:100800002000A000230011081F3920002004031D30
:100810000A2C0B2CFC2B0C2C89316A2183312000F3
:10082000A0002008A100152C152C23000F0C890C0A
:1008300001392000A000230011081F3920002004E6
:10084000031D232C242C152C230091161116282C63
:10085000111A2B2C2C2C282C2F2C2F2C2F2C230036
:100860000F0C890C01392000A000230011081F394A
:1008700020002004031D3D2C3E2C2F2C230011159D
:10088000412C1119442C452C412C2000211F492CAE
:100890004A2C862B4D2C4D2C4D2C23000F0C890CF3
:1008A00001392000A000230011081F392000200476
:1008B000031D5B2C5C2C4D2C230011145F2C111894
:1008C000622C632C5F2C662C662C662C23000F0C8C
:1008D000890C01392000A000230011081F392000D5
:1008E0002004031D742C752C662C762C9A308B31C9
:1008F000A62383317C2C7C2C23000F0C890C01391E
:100900002000A000230011081F3920002004031D2F
:100910008A2C8B2C7C2C8C2C00308B31A6238331A1
:10092000922C922C23000F0C890C01392000A0007E
:10093000230011081F3920002004031DA02CA12C26
:10094000922C23009114A42C9118A72CA82CA42C31
:10095000AB2CAB2CAB2C23000F0C890C01392000E5
:10096000A000230011081F3920002004031DB92C0A
:10097000BA2CAB2CBB2C9B308B31A6238331C12CE2
:10098000C12C23000F0C890C01392000A00023008A
:1009900011081F3920002004031DCF2CD02CC12C9E
:1009A000D12C89316A2183312000A0002008A100C8
:1009B000DA2CDA2C23000F0C890C01392000A0005E
:1009C000230011081F3920002004031DE82CE92C06
:1009D000DA2C230091161116ED2C111AF02CF12CA3
:1009E000ED2CF42CF42CF42C23000F0C890C013981
:1009F0002000A000230011081F3920002004031D3F
:100A0000022D032DF42C23001115062D1119092D8B
:100A10000A2D062D0B2D200021080E2D0800692E11
:100A20006630F4007030F5009731A727853120003B
:100A3000BC00BD013C08BE003D08BF003F08A3004C
:100A40003E08A2008A319422853101302000E50061
:100A50000030E600883157208531FF30F800FF3044
:100A6000F900812E66302000AE007030AF000130FA
:100A7000B0000030B1000030B200B3008E31F52676
:100A8000853120002F08BF002E08BE003F08A300BC
:100A90003E08A2008A3194228531812E66302000E2
:100AA000AE007030AF000030B000B1000030B200D6
:100AB000B3008E31F526853120002F08BF002E08A7
:100AC000BE003F08A3003E08A2008A31942285316F
:100AD000812E67302000AE007030AF000130B000D2
:100AE0000030B1000130B2000030B3008E31F52685
:100AF000853120002F08BF002E08BE003F08A3004C
:100B00003E08A2008A3194228531812E6730200070
:100B1000AE007030AF000030B000B1000130B20064
:100B20000030B3008E31F526853120002F08BF003C
:100B30002E08BE003F08A3003E08A2008A3194227E
:100B40008531812E883157208531FF30F800FF3004
:100B5000F90020006B086C040319AF2DB02DB32DE4
:100B60001616B62DB62D1612B62DB62D0630E5008A
:100B70000030E600812E6B036C04031DC02DC12DD7
:100B8000C72DEB01EC01C42D1612812E812E0130F0
:100B9000EB000030EC00CC2D1616812E812E812E1C
:100BA0007C30F4007030F5009731A72785312000A4
:100BB000BC00BD013C08BE003D08BF003F08A300CB
:100BC0003E08A2008A319422853188315720853130
:100BD000FF30F800FF30F90008302000E500003059
:100BE000E600812E7C30AE007030AF000130B000E6
:100BF0000030B1000230B2000030B3008E31F52673
:100C0000853120002F08BF002E08BE003F08A3003A
:100C10003E08A2008A3194228531812E7C3020004A
:100C2000AE007030AF000030B000B1000230B20052
:100C30000030B3008E31F526853120002F08BF002B
:100C40002E08BE003F08A3003E08A2008A3194226D
:100C50008531812E883157208531FF30F800FF30F3
:100C6000F9007D30F4007030F5009731A727853109
:100C70002000BC00BD013C08BE003D08BF003F088D
:100C8000A3003E08A2008A31942285310B30200057
:100C9000E5000030E600812E7D30AE007030AF0000
:100CA0000030B000B1000330B2000030B3008E312C
:100CB000F526853120002F08BF002E08BE003F0812
:100CC000A3003E08A2008A3194228531812E812E14
:100CD000812E20006608003A0319722EFF3A03198C
:100CE0007C2E812E650884000C3004020318812EAE
:100CF00088310435003E82006508FF3A0319812ED1
:100D0000812E08008931882186318831472086313B
:100D10002000931513163E00CF154F168B170B1797
:100D20000E30F4000A30F500973165278631043023
:100D3000F4000C30F5009731712786316630F400ED
:100D40000A30F50097315F2786313A30F4000A30D7
:100D5000F50097316B27863197313B2786319731E4
:100D6000512786318831372086310030F400F50074
:100D70008931152186312100A501A601A101A20119
:100D800019302000E7000030E8008D314E25863113
:100D9000C92E2000650A031DD12E660A031DD12E1F
:100DA000D22E8F2F0A30840098308500003FA0009B
:100DB000013FA1005008A3004F08A2008B31482337
:100DC0008631200020082104031DE72EE82E132F72
:100DD0008B3106238631200024082100A600200044
:100DE00023082100A5002608F5002508F400893114
:100DF000A721863100302000A200A3002100260890
:100E00002000A500210025082000A4008C31D72453
:100E1000863120004D084E04031D0F2F102F132F75
:100E20006300132F132F0A30840098308500003F91
:100E30002000A000013FA1005008A3004F08A2001D
:100E40008B3148238631200020032104031D292FE4
:100E50002A2F572F00008331862386312000C300BC
:100E600043082100A00020082000C300C40143085B
:100E70002100A100200044082100A2000000210060
:100E800022082000A300210021082000A200003039
:100E9000A400A5008C31D724863120004D084E04D3
:100EA000031D532F542F572F6300572F572F0A30EE
:100EB000840098308500003F2000A000013FA10081
:100EC0005008A3004F08A2008B314823863102301E
:100ED000200020062104031D6E2F6F2FC92E210034
:100EE00026082000A400210025082000A3002100DE
:100EF00022082000A600210021082000A500803142
:100F00007720863100302000A200A3000030A4002A
:100F1000A5008C31D72486316300C92EC92E8731B4
:100F2000FD27863197314D27863101302100A300FE
:100F30000030A400DF2F8E1A9E2F9F2FB62F210086
:100F400023032404031DA52FA62FB62F85310F25BB
:100F5000863111302000C3003A30890BAD2FC30B0E
:100F6000AD2F00002100A301A401C82F20008E1E78
:100F7000BA2FBB2FC82F210023082404031DC12F23
:100F8000C22FC82F0130A3000030A400C82FC82FE3
:100F9000200047034804031DCE2FCF2FDF2FC701AA
:100FA000C8018D31F125863111302000C3003A305F
:100FB000890BD82FC30BD82F0000DF2FDF2F200085
:100FC000650A031DE72F660A031DE72FE82F9B2FF5
:100FD000E92F97315127863197314A278631C92E1B
:100FE000C92EC92E80315928623031008D008F0101
:100FF0009101023093009201080024000E100800B5
:101000008531102D8531322D85314E2D8531692D5B
:101010008531862D8531A22D8531BB2D8531D02D91
:101020008531F22D86310E2E86312A2E86314C2EB8
:101030008D31F22D8D31FF2D8E311A2E8E31412EB4
:101040008E315C2E8E31692E8E31752E8E31822E30
:101050008E318F2E8E31B12E8E31B62E8E31C32E23
:101060000800FE0012001E00FE0B3228003455302E
:101070003D008F00AA308F000F100E303E0096000A
:1010800055303D008F00AA308F000F140800230058
:10109000901A4B284C2856288F0128309000910137
:1010A00003308D0056285628562856280800200060
:1010B00016125A2896125C280030F400F500893187
:1010C0001521883163282000961366280800240023
:1010D0000E1D6B286C2873280E1071088D00700887
:1010E0008C000E14782871088D0070088C00782808
:1010F00008002400141D7D287E28852814107108FE
:1011000093007008920014148A28710893007008E4
:1011100092008A2808007108F3007008F200F33684
:10112000F20CF336F20C720827008D0070080339B8
:10113000F2000530F235FF3E031D9A2872358C000F
:10114000080022008E018F0190019101920193010C
:101150008D0121009E019B0194019501960197014B
:101160009A0199019801843093009D010800043090
:101170002500960095019701F130930092012E0011
:1011800090119A150330F4000030F5009731712763
:101190008831D0302500940008002E001010200067
:1011A0006408F1006308F00088316720883120006E
:1011B000610862040319DD28DE28E42862088A0039
:1011C00061080A008831E42808002E001011200070
:1011D0005E08F1005D08F000883179208831200038
:1011E0005B085C040319F528F628FC285C088A00D3
:1011F0005B080A008831FC280800F400740821000C
:101200009E009317131313140000062921001318CE
:101210000A290B2906290C290D082000A10021000C
:101220000C082000A0001429080075082000A10067
:101230007408A000A136A00CA136A00C200827003D
:101240008D00740803392000A0000530A035FF3E52
:10125000031D2629203527008C00080024008F015B
:1012600090010430910086308D00E8308C000D082C
:101270002000E40024000C082000E3002E001010E1
:101280001A143030F4000830F500973165278931A1
:10129000053024008E0008002400950196010430DA
:1012A0009700E7309300C830920013082000DE005A
:1012B000240012082000DD002E0010111A15023043
:1012C000F4000030F50097316B278931013024009C
:1012D000940008000F3023001005F4000830740655
:1012E0000319732974297D290F301005F4000B3080
:1012F0007406031D7C297D29802991158029802968
:101300000F1C83298429802985290C088729080036
:1013100097317D2789318A31C92289318731F42774
:10132000893197319A2789318831A12089318931D2
:101330004C2189318831B72089319731C2278931D1
:1013400089312E21893197318D278931080075081F
:10135000803A2000A00080302002031DB129023015
:101360007402031CB429B529B92920009616BC299A
:10137000BC2920009612BC29741CBF29C029C3298E
:101380001616C629C6291612C629C6290800200025
:10139000AC01AD01CB29281CCE29CF29D3292A089D
:1013A000AC072B08AD3D0130AA35AB0D890BD42914
:1013B0000130A936A80C890BD92928082904031D56
:1013C000E229E329CB29E4292D08A9002C08A8004B
:1013D000E929080000308B1B0130F40020002108AF
:1013E00030009B002000200830009A0020002208D6
:1013F00030009C001E171E158B1355309F00AA301D
:101400009F009E14032A9E18062A072A032A1E11EB
:10141000740C031C8B1303188B1708000130200079
:10142000CF070030D03D3C304F065004031D192A31
:101430001A2A212A0130D1070030D23DCF01D00134
:10144000212A3C3051065204031D272A282A2F2A1C
:101450000130D3070030D43DD101D2012F2A8C1B9B
:10146000322A332A362A9617392A392A9613392AE4
:10147000392A080076087704031D3F2A402A442AA7
:101480009731E0278A31442A6430F6070030F73D6F
:101490007708F1007608F00088318B208A31E83037
:1014A0007606033003197706031D572A582A652A42
:1014B000973138278A31F601F701FC30F00003300C
:1014C000F10088318B208A31652A080020004D0305
:1014D0004E04031D6C2A6D2A762ACD01CE01003000
:1014E000F000F10088318B208A318F2A2000650AB4
:1014F000031D7E2A660A031D7E2A7F2A8A2A9731C7
:10150000D0278A310530F8000030F9002000E501CD
:10151000E6018F2A0130C7000030C8008F2AFA3058
:101520000032890B902A0800883157208A31200028
:10153000221C9B2A9C2A9F2A1616A12AA12A16122F
:10154000A12AA21CA42AA52AA82A9616AA2AAA2A4F
:101550009612AA2A221DAD2AAE2AB62AFF30F4001E
:101560000330F500893115218A31BD2A0030F4009D
:10157000F500893115218A31BD2A2000A21DC12A1A
:10158000C22AC52A9617C82AC82A9613C82AC82A62
:10159000080020009A0199019601970198010730EF
:1015A00095000F309100FF309200FF309300FF3024
:1015B0009400FF303E00D900C730CE00EF30C300AA
:1015C0000730E4000F30B800DA01E501C401B901C9
:1015D000CF01E601BA01C501D001DB01FF30BB003C
:1015E000FF30C600FF30D100FF30DC000730E700DD
:1015F0000C303D0090001330C50014303E00A300B5
:101600001530A40014303D00C60008000230200050
:10161000A5000030A60000308831FD208B3120006D
:101620002108CA002008C90001304A02003003190D
:10163000490203181C2B1D2B202BA501A601422BB0
:1016400002304A020030031949020318282B292BC3
:101650002E2B0130A5000030A600422B03304A0299
:101660000030031949020318362B372B3C2B02306C
:10167000A5000030A600422B0330A5000030A600D4
:10168000422B422B2608A4002508A300472B080064
:101690002000A601A31F4D2B4E2B562BA209A309F8
:1016A000A20A0319A30AA601A60A562BA11F592BA9
:1016B0005A2B602BA009A109A00A0319A10A602BCB
:1016C000200821040319652B662B952BA501A50A7B
:1016D000732B0130A035A10D890B6A2B0130A400BA
:1016E0002408A507732BA11F762B772B692B792B49
:1016F000792B21082302031D7F2B20082202031CC3
:10170000822B832B882B2008A2022108A33B882B45
:101710000130A136A00C890B892B0130A502031DD5
:10172000922B932B792B952B952B26080319992B0C
:101730009A2BA02BA209A309A20A0319A30AA02B82
:101740002308A1002208A000A52B0800F5007508B9
:1017500023008C00901FAD2BAE2BB12B032C032C40
:10176000032C0F301005F400083074060319B92B50
:10177000BA2BD52B0F301005F4000B30740603196B
:10178000C22BC32BD52B1016C52B2E000F1CC92B1B
:10179000CA2BC52B23000F19CE2BCF2B032C0F08E0
:1017A000032C032C032C032C032C0F301005F40006
:1017B000083074060319DD2BDE2BE92B0F301005E2
:1017C000F4000B307406031DE62BE72B032CE92BEA
:1017D000E92B0F18EC2BED2BE92BF02BF02BF02B3A
:1017E0000F0C890C0139F40011081F397404031D12
:1017F000FA2BFB2BF02B1108032C032C032C032CAE
:10180000032C032C032C0800780A031D0C2C790AE6
:1018100003190B2C0C2C6C2C200045084604031DCE
:10182000122C132C542C282C282C16163B2C3B2C19
:1018300096163B2C3B2CFC30F0000330F100883135
:101840008B208C313B2C200096173B2C3B2C3B2CC7
:101850007908003A03192D2C3B2C7808023A031919
:10186000152C013A0319182C073A03191B2C013ABD
:101870000319232C3B2C01302000C5000030C6008A
:101880006C2C542C1612672C672C9612672C672C24
:101890000030F000F10088318B208C31672C200063
:1018A0009613672C672C672C7908003A0319592C7A
:1018B000672C7808023A0319422C013A0319452C87
:1018C000073A0319482C013A03194F2C672C2000C2
:1018D000C501C6016C2C6C2C08002000A501A11FBD
:1018E000722C732C7B2CA009A109A00A0319A10A50
:1018F000A501A50A7B2CA31F7E2C7F2C892CA20975
:10190000A309A20A0319A30A0130F4007408A5066A
:10191000892CA601A701200821040319902C912CE1
:10192000C62CA401A40A9E2C0130A035A10D890B60
:10193000952C0130F4007408A4079E2CA11FA12C43
:10194000A22C942CA42CA42C0130A635A70D890B15
:10195000A52C21082302031DAF2C20082202031C02
:10196000B22CB32CB92C2008A2022108A33B2614C8
:10197000B92C0130A136A00C890BBA2C0130A4027D
:10198000031DC32CC42CA42CC62CC62C250803195B
:10199000CA2CCB2CD12CA609A709A60A0319A70A81
:1019A000D12C2708A1002608A000D62C08007D30E5
:1019B000F4007030F5009731A7278C312000A60085
:1019C000A7012608E9002708EA007C30F4007030FF
:1019D000F5009731A7278C312000A600A701260823
:1019E000E7002708E8002508803AA6006A08803A40
:1019F0002602031DFD2C690824020318002D012D69
:101A0000112D20002308803AA6006808803A26029B
:101A1000031D0C2D67082202031C0F2D102D172DFE
:101A2000112D01302000CD000030CE00172D2000F8
:101A30004D034E04031D1D2D1E2D362D4B084C0449
:101A4000031D232D242D362D6B036C04031D292D1E
:101A50002A2D362D973155278C31973147278C31D8
:101A600001302000CB000030CC004D2D4D084E043D
:101A7000031D3B2D3C2D4D2D4B034C04031D412DCF
:101A8000422D4D2D0030F400F500893115218C31A7
:101A90002000CB01CC014D2D4D2D08006530F40008
:101AA0007030F5009731A7278D312000A300A401E5
:101AB0002308A7002408A8006430F4007030F50063
:101AC0009731A7278D312000A300A4012308A5008A
:101AD0002408A6001430270628040319702D712D40
:101AE000832D26082806031D772D25082706031DAC
:101AF0007A2D7B2DD72D1430270628040319812D2C
:101B0000822DD72D832D2808803AA3008030230210
:101B1000031D8C2D1530270203188F2D902DD72DE6
:101B200020002608803AA30080302302031D9A2D4E
:101B30001530250203189D2D9E2DD72D6630F400FB
:101B40007030F5009731A7278D312000A300A40144
:101B50002308D3002408D4006730F4007030F50067
:101B60009731A7278D312000A300A4012308D100BD
:101B70002408D2007D30F4007030F5009731A7279B
:101B80008D312000A300A4012308E9002408EA0005
:101B90007C30F4007030F5009731A7278D3120009C
:101BA000A300A4012308E7002408E800F02D7D30FD
:101BB0002000A0007030A1006908A3002308A20043
:101BC0008931EA218D317C302000A0007030A100E5
:101BD0006708A3002308A2008931EA218D31F02D86
:101BE0000800DC2E883157208D310430F800003099
:101BF000F90005302000E5000030E600F42E6630E4
:101C0000F4007030F5009731A7278D312000A70030
:101C1000A8012708A9002808AA002A08A300290863
:101C2000A2008A3194228D3102302000E50000307C
:101C3000E600F42E0A30A0000030A1006730F40066
:101C40007030F5009731A7278D312000A700A8013B
:101C50002708A2002808A3008B3148238D312000DB
:101C60002108AA002008A9002A08A3002908A20028
:101C70008A3194228D3103302000E5000030E600E7
:101C8000F42E6730F4007030F5009731A7278D31BE
:101C90002000A700A8012708A9002808AA002A08F0
:101CA000A3002908A2008A3194228D31043020003B
:101CB000E5000030E600F42E2A08A3002908A2005F
:101CC0008A3194228D3105302000E5000030E60095
:101CD000F42E0730E5000030E600883157208D31C2
:101CE0000330F8000030F900F42E07302000E50042
:101CF0000030E600883157208D310330F800003085
:101D0000F900F42E883157208D310230F800003070
:101D1000F9000A302000E5000030E600F42E88319A
:101D200057208D31FF30F800FF30F9007C30F4008F
:101D30007030F5009731A7278D312000A700A8014A
:101D40002708A9002808AA002A08A3002908A20039
:101D50008A3194228D3109302000E5000030E60000
:101D6000F42E0A30E5000030E600F42E88315720CA
:101D70008D31FF30F800FF30F900FF302000E50022
:101D8000FF30E600F42E883157208D31FF30F80007
:101D9000FF30F900FF302000E500FF30E600F42EB0
:101DA000883157208D310330F8000030F900F42ECF
:101DB0002000E501E601F42E20006608003A031930
:101DC000E52EFF3A0319EF2EF42E650884000C303F
:101DD00004020318F42E88310435183E8200650889
:101DE000FF3A0319D02EF42E08001C2F0630840071
:101DF00098308500003F2000B800013FB900302F27
:101E00000430840098308500003FB800013FB900DD
:101E1000302F0230840098308500003FB800013F29
:101E2000B900302F0030840098308500003FB800A2
:101E3000013FB900302F302F20003308003A03193A
:101E4000222F302F3208003A0319F62E013A0319D7
:101E5000002F033A0319092F013A0319122F302FCB
:101E6000300831040319352F362F832F2F08F50042
:101E70002E08F4009731A7278E310A3E2000BA00C1
:101E8000003003180130BB003B08803AB400390829
:101E9000803A3402031D4E2F38083A02031C512F9A
:101EA000522F632F0A302000A0000030A1003B0811
:101EB000A3003A08A2008B3148238E31200021086C
:101EC000BB002008BA0020002F08A1002E08A000A7
:101ED0003A08B4003408A2008931EA218E310A3070
:101EE0002000A0000030A1003B08A3003A08A20097
:101EF0008C316D248E3120002108AF002008AE0007
:101F0000FF2FFF2FFF2F2F08F5002E08F400973129
:101F1000A7278E31013E2000BA000030031801309F
:101F2000BB003A08FF3EB600FF303B3DB7003B0820
:101F3000803AB4003908803A3402031DA12F3808D2
:101F40003A02031CA42FA52FA92F2000BA01BB0120
:101F5000ED2F0A302000A0000030A1003708A300B8
:101F60003608A2008C316D248E3120002008B40088
:101F70002108B5000A30A0000030A1003B08A300F2
:101F80003A08A2008C316D248E31200021083506DC
:101F9000031DCC2F200834060319CF2FD02FED2F8F
:101FA0000A30A0000030A1003708A3003608A200C4
:101FB0008C316D248E3120002108A9002008A80052
:101FC0000A30AA000030AB008931C7218E312000D1
:101FD0002908BB002808BA00ED2F2F08A1002E0801
:101FE000A0003A08B4003408A2008931EA218E31F9
:101FF00020003B08AF003A08AE00FF2FFF2F08007B
:102E6E000800240014100800240014100800250087
:102E7E009417080025009413080025008E170800EB
:102E8E0024001414080024000E14080097313E2765
:102E9E009731080097314127973108009731442721
:102EAE00973108002E000C109731B4279731080087
:102EBE0075082000E0007408DF0008007508200087
:102ECE00E2007408E100080075082000DC007408B8
:102EDE00DB00080075082000DA007408D90008002D
:102EEE00640080010131890B782F00342F00960188
:102EFE009701980199019A019B010800FF34FF3454
:102F0E001934003402340034013400342E000C1015
:102F1E000B143730F4001730F50097315F279731D7
:102F2E002E0016140800803027008E007C308D0095
:102F3E00C0308C0024001F08F33904389F000800AD
:102F4E00750830009B0074089A001E171E140000AE
:102F5E00000030001C08B32F080020005F0860043A
:102F6E000319BA2FBB2FC12F60088A005F080A0011
:102F7E009731C12F08000130250090008F0191017B
:102F8E00F9308D008C012E009010903025008E00AF
:102F9E00080020001612D32F9612D52F0030F00005
:102FAE00F10088318B209731DC2F20009613DF2F14
:102FBE00080055303D008F00AA308F000F100E30E4
:102FCE003E00960055303D008F00AA308F000F1442
:102FDE0008002E009011200059085A040319F82FEA
:102FEE00F92FFF2F5A088A0059080A009731FF2F30
:102FFE00080004340034323400343C3400341834C5
:0A300E0000340234003403340034AF
:020000040001F9
:0A000E00EC3FFF3F9F3FFF3FFF3F25
:00000001FF
