:020000040000FA
:1000000080315928080008007E1480312E00161C0B
:100010000A280B2813280C1C0E280F2813288831B7
:100020003A20803157280B1F162817285728991C6B
:100030001A281B2821288F1C1E281F2821285728F2
:100040005728191C242825282B280F1C2828292844
:100050002B28572857289A1D2E282F283728901DDF
:100060003228332837288831E020803157281A1D5C
:100070003A283B284328101D3E283F284328893131
:100080009E21803157281A1C462847285728101CC3
:100090004A284B28572889318621803157285728EC
:1000A00057285728572857285728572857287E1049
:1000B000090080315B286C30840088308500653011
:1000C000860000308700083088315E208031F601DC
:1000D000F701F801F9014530840000308500143043
:1000E0008831582080317E1020008331862B653086
:1000F000F4007030F5008831972080312000A7008F
:10010000A8012708BF002808C0006430F400703040
:10011000F5008831972080312000A700A80127082A
:10012000C1002808C2003F084004031998289928F4
:10013000C72842084006031D9F2841083F060319AF
:10014000A228A328AB2814303F064004031DA92889
:10015000AA28C728AB284008803AA7008030270289
:10016000031DB42815303F020318B728B828C72844
:1001700020004208803AA70080302702031DC228D1
:1001800015304102031CC528C6280E29C7282000A7
:10019000BF01C001C101C2016530A0007030A100E3
:1001A0003F08A7002708A2008A31A32280316430CB
:1001B0002000A0007030A1004108A7002708A2007D
:1001C0008A31A322803170302000A0007030A1005D
:1001D000A2018A31A32280316C302000A00070304F
:1001E000A100A2018A31A32280317A302000A00030
:1001F0007030A100C830A7002708A2008A31A322CE
:10020000803176302000A0007030A1000530A700BA
:100210002708A2008A31A32280310E299731FD27B9
:10022000803120005408BC005308BB005208BE00B7
:100230005108BD005008BA004F08B9009731FA279D
:10024000803166302000A0007030A1003B08A7007C
:100250002708A2008A31A322803167302000A00045
:100260007030A1003D08A7002708A2008A31A32210
:1002700080312000B101B201B301B4013F08400454
:1002800003194329442965294108033EF4007030CD
:10029000423DF5008831972080312000A700A80159
:1002A0002708B1002808B2004108023EF40070306F
:1002B000423DF5008831972080312000A700A80139
:1002C0002708B3002808B400652932082406031D56
:1002D0006B2931082306031D6E296F297A293408FA
:1002E0002606031D7529330825060319782979295F
:1002F00081297A293F084004031D7F298029882904
:1003000081293F084004031D862987291E2A882940
:10031000B501B6014208803AA70080302702031DCC
:10032000932913304102031C962997299B29200009
:10033000B501B601A32920004108013EB5000030F7
:10034000423DB600A329B701B8014008803AA70092
:1003500080302702031DAE2914303F020318B12953
:10036000B229BA2920003F08013EB7000030403DC5
:10037000B800C02920004008B8003F08B700C029D5
:100380006430A0007030A1003508A7002708A20043
:100390008A31A322803165302000A0007030A10096
:1003A0003708A7002708A2008A31A3228031200045
:1003B0004108003EA0007030423DA1003B08A7006C
:1003C0002708A2008A31A322803120004108013E83
:1003D000A0007030423DA1003D08A7002708A20000
:1003E0008A31A322803120004108023EA0007030F3
:1003F000423DA1003908A7002708A2008A31A322A4
:10040000803120004108033EA0007030423DA10031
:100410002508A7002708A2008A31A32280312000E6
:100420004108043EA0007030423DA1002308A7000F
:100430002708A2008A31A32280311E2A7030F400DE
:100440007030F5008831972080312000A700A80186
:100450002708A9002808AA006C30F4007030F500C5
:100460008831972080312000A700A8012708AB0021
:100470002808AC007A30F4007030F50088319720FD
:1004800080312000A700A8012708AD002808AE0091
:100490007630F4007030F5008831972080312000EC
:1004A000A700A8012708AF002808B0002608803A56
:1004B000A7002A08803A2702031D602A290825027E
:1004C000031C632A642AA12AD3302000A000E03054
:1004D000A1003B08A7002708A2008A31A32280318F
:1004E0006E302000A0007030A1003D08A700270852
:1004F000A2008A31A32280316F302000A00070302A
:10050000A1003908A7002708A2008A31A322803160
:1005100070302000A0007030A1002508A700270837
:10052000A2008A31A322803171302000A0007030F7
:10053000A1002308A7002708A2008A31A322803146
:10054000A12A20002408803AA7002C08803A27021C
:10055000031DAC2A2B082302031CAF2AB02AED2A64
:10056000CE302000A000E030A1003B08A700270803
:10057000A2008A31A322803169302000A0007030AF
:10058000A1003D08A7002708A2008A31A3228031DC
:100590006A302000A0007030A1003908A7002708A9
:1005A000A2008A31A32280316B302000A00070307D
:1005B000A1002508A7002708A2008A31A3228031C4
:1005C0006C302000A0007030A1002308A70027088D
:1005D000A2008A31A3228031ED2A20002E08803A21
:1005E000A7002608803A2702031DF82A25082D02B5
:1005F000031CFB2AFC2A392BDD302000A000E03050
:10060000A1003B08A7002708A2008A31A32280315D
:1006100078302000A0007030A1003D08A700270816
:10062000A2008A31A322803179302000A0007030EE
:10063000A1003908A7002708A2008A31A32280312F
:100640007A302000A0007030A1002508A7002708FC
:10065000A2008A31A32280317B302000A0007030BC
:10066000A1002308A7002708A2008A31A322803115
:10067000392B20003008803AA7002408803A27024E
:10068000031D442B23082F02031C472B482B852BCB
:10069000D8302000A000E030A1003B08A7002708C8
:1006A000A2008A31A322803173302000A000703074
:1006B000A1003D08A7002708A2008A31A3228031AB
:1006C00074302000A0007030A1003908A70027086E
:1006D000A2008A31A322803175302000A000703042
:1006E000A1002508A7002708A2008A31A322803193
:1006F00076302000A0007030A1002308A700270852
:10070000A2008A31A3228031852B08008A31412240
:1007100083318931002183312000931513163E0067
:10072000CF154F168B170B17EE30F4000A30F5007B
:10073000883146208331B630F4000C30F500883122
:1007400052208331C730F4000A30F5008831402050
:1007500083311A30F4000B30F50088314C2083319E
:100760009731F12783318731FB2783318831F0209E
:1007700083310030F400F5008931CE21833121002E
:10078000A501A601A101A20119302000E700003057
:10079000E800CA2B2000650A031DD22B660A031D40
:1007A000D22BD32B022D0A30840098308500003FD5
:1007B000A000013FA1005008A3004F08A2008B3108
:1007C000FA238331200020082104031DE82BE92BA4
:1007D000512C8B31B8238331200024082100A6003E
:1007E000200023082100A5002608F5002508F400B4
:1007F0008A316022833121002608803A2000C3001C
:100800006A08803A4302031D082C6908210025026A
:10081000031C0B2C0C2C122C01302000CD000030BE
:10082000CE00122C20004D034E04031D182C192C51
:10083000312C4B084C04031D1E2C1F2C312C6B0338
:100840006C04031D242C252C312C8831322083315B
:100850009731EE27833101302000CB000030CC00EF
:10086000482C4D084E04031D362C372C482C4B03C6
:100870004C04031D3C2C3D2C482C0030F400F500AA
:100880008931CE2183312000CB01CC01482C482C6A
:100890004D084E04031D4D2C4E2C512C6300512C41
:1008A000512C0A30840098308500003F2000A000C1
:1008B000013FA1005008A3004F08A2008B31FA238A
:1008C0008331200020032104031D672C682CD32CC6
:1008D00000008531672583312000C30043082100D3
:1008E000A00020082000C300C40143082100A1008B
:1008F000200044082100A200000021002208803AC4
:100900002000C3006808803A4302031D8A2C670850
:1009100021002102031C8D2C8E2C942C01302000F0
:10092000CD000030CE00942C20004D034E04031D5A
:100930009A2C9B2CB32C4B084C04031DA02CA12CEF
:10094000B32C6B036C04031DA62CA72CB32C88318D
:10095000322083319731EE27833101302000CB00E4
:100960000030CC00CA2C4D084E04031DB82CB92C05
:10097000CA2C4B034C04031DBE2CBF2CCA2C0030C8
:10098000F400F5008931CE2183312000CB01CC0168
:10099000CA2CCA2C4D084E04031DCF2CD02CD32CAE
:1009A0006300D32CD32C0A30840098308500003F9C
:1009B0002000A000013FA1005008A3004F08A200A2
:1009C0008B31FA2383310230200020062104031DDD
:1009D000EA2CEB2CCA2B210026082000A4002100C1
:1009E00025082000A300210022082000A6002100E5
:1009F00021082000A50080317720833100006300AA
:100A0000CA2BCA2B9731FD27833188313620833199
:100A100001302100A3000030A400522D8E1A112DA8
:100A2000122D292D210023032404031D182D192D17
:100A3000292D8E318D26833111302000C3003A30AC
:100A4000890B202DC30B202D00002100A301A40140
:100A50003B2D20008E1E2D2D2E2D3B2D21002308F9
:100A60002404031D342D352D3B2D0130A30000300F
:100A7000A4003B2D3B2D200047034804031D412DBE
:100A8000422D522DC701C8018D3189258331113086
:100A90002000C3003A30890B4B2DC30B4B2D0000B7
:100AA000522D522D2000650A031D5A2D660A031D82
:100AB0005A2D5B2D0E2D5C2D8731FB27833197310D
:100AC000FA278331CA2BCA2BCA2B80315928692DAA
:100AD000692D23000F0C890C01392000A000230090
:100AE00011081F3920002004031D772D782D692D52
:100AF000230011147B2D11187E2D7F2D7B2D822D2F
:100B0000822D822D23000F0C890C01392000A000BA
:100B1000230011081F3920002004031D902D912D62
:100B2000822D922D9A308C3158248531982D982D14
:100B300023000F0C890C01392000A00023001108AC
:100B40001F3920002004031DA62DA72D982DA82DA8
:100B500001308C3158248531AE2DAE2D23000F0C81
:100B6000890C01392000A000230011081F39200042
:100B70002004031DBC2DBD2DAE2D23009114C02DCE
:100B80009118C32DC42DC02DC72DC72DC72D2300EF
:100B90000F0C890C01392000A000230011081F3917
:100BA00020002004031DD52DD62DC72DD72D9B3019
:100BB0008C3158248531DD2DDD2D23000F0C890C5F
:100BC00001392000A000230011081F392000200453
:100BD000031DEB2DEC2DDD2DED2D8A3123228531EA
:100BE0002000A0002008A100F62DF62D23000F0CF8
:100BF000890C01392000A000230011081F392000B2
:100C00002004031D042E052EF62D23009116111627
:100C1000092E111A0C2E0D2E092E102E102E102E0C
:100C200023000F0C890C01392000A00023001108BB
:100C30001F3920002004031D1E2E1F2E102E2300FE
:100C40001115222E1119252E262E222E2000211FAD
:100C50002A2E2B2E672D2E2E2E2E2E2E23000F0CFD
:100C6000890C01392000A000230011081F39200041
:100C70002004031D3C2E3D2E2E2E23001114402E49
:100C80001118432E442E402E472E472E472E230068
:100C90000F0C890C01392000A000230011081F3916
:100CA00020002004031D552E562E472E572E9A3015
:100CB0008C31582485315D2E5D2E23000F0C890C5C
:100CC00001392000A000230011081F392000200452
:100CD000031D6B2E6C2E5D2E6D2E00308C31582432
:100CE0008531732E732E23000F0C890C01392000DF
:100CF000A000230011081F3920002004031D812EAD
:100D0000822E732E23009114852E9118882E892E01
:100D1000852E8C2E8C2E8C2E23000F0C890C0139E5
:100D20002000A000230011081F3920002004031D0B
:100D30009A2E9B2E8C2E9C2E9B308C3158248531E4
:100D4000A22EA22E23000F0C890C01392000A00036
:100D5000230011081F3920002004031DB02EB12EDE
:100D6000A22EB22E8A31232285312000A000200835
:100D7000A100BB2EBB2E23000F0C890C01392000D3
:100D8000A000230011081F3920002004031DC92ED4
:100D9000CA2EBB2E230091161116CE2E111AD12E5B
:100DA000D22ECE2ED52ED52ED52E23000F0C890C6B
:100DB00001392000A000230011081F392000200461
:100DC000031DE32EE42ED52E23001115E72E111955
:100DD000EA2EEB2EE72EEC2E20002108EF2E080045
:100DE000172F0630840098308500003F2000B8009F
:100DF000013FB9002B2F0430840098308500003F5C
:100E0000B800013FB9002B2F0230840098308500D4
:100E1000003FB800013FB9002B2F0030840098300C
:100E20008500003FB800013FB9002B2F2B2F200079
:100E30003308003A03191D2F2B2F3208003A0319EB
:100E4000F12E013A0319FB2E033A0319042F013A3C
:100E500003190D2F2B2F300831040319302F312F98
:100E60007E2F2F08F5002E08F40088319720863158
:100E70000A3E2000BA00003003180130BB003B08D6
:100E8000803AB4003908803A3402031D492F3808EB
:100E90003A02031C4C2F4D2F5E2F0A302000A00079
:100EA0000030A1003B08A3003A08A2008B31FA23CE
:100EB000863120002108BB002008BA0020002F083E
:100EC000A1002E08A0003A08B4003408A2008A311C
:100ED000A32286310A302000A0000030A1003B0888
:100EE000A3003A08A2008D311F2586312000210879
:100EF000AF002008AE00FA2FFA2FFA2F2F08F500C6
:100F00002E08F400883197208631013E2000BA0077
:100F1000003003180130BB003A08FF3EB600FF3036
:100F20003B3DB7003B08803AB4003908803A3402B0
:100F3000031D9C2F38083A02031C9F2FA02FA42FBB
:100F40002000BA01BB01E82F0A302000A0000030C9
:100F5000A1003708A3003608A2008D311F25863175
:100F600020002008B4002108B5000A30A00000309D
:100F7000A1003B08A3003A08A2008D311F2586314D
:100F8000200021083506031DC72F20083406031949
:100F9000CA2FCB2FE82F0A30A0000030A10037085D
:100FA000A3003608A2008D311F25863120002108BC
:100FB000A9002008A8000A30AA000030AB008A313E
:100FC0008022863120002908BB002808BA00E82FBB
:100FD0002F08A1002E08A0003A08B4003408A2008F
:100FE0008A31A322863120003B08AF003A08AE00C8
:100FF000FA2FFA2F08009731F727873108000800E9
:101000008E318E2E8E31B02E8E31CC2E8E31E72E3B
:101010008F31042F8F31202F8F31392F8F314E2F69
:101020008F31702F8F318C2F8F31A82F8F31CA2F96
:101030008D318A2D8D31972D8D31B22D8D31D92D58
:101040008D31F42D8E31012E8E310D2E8E311A2ED2
:101050008E31272E8E31492E8E314E2E8E315B2EC3
:1010620008009731EB27883108009731F42788313F
:1010720008002E000C108831A42088310800750861
:101082002000E0007408DF00080075082000E2007C
:101092007408E100080075082000DC007408DB0019
:1010A200080075082000DA007408D90008006400FE
:1010B20080010131890B59280034FE0012001E0004
:1010C200FE0B5F2800342F009601970198019901C9
:1010D2009A019B010800FF34FF34193400340234B2
:1010E200003401340034623031008D008F019101EF
:1010F20002309300920108002E000C100B143130C4
:10110200F4000830F5008831402088312E00161492
:101112000800803027008E007C308D00C0308C00AB
:1011220024001F08F33904389F00080075083000B6
:101132009B0074089A001E171E1400000000300065
:101142001C08A328080020005F0860040319AA28CD
:10115200AB28B12860088A005F080A008831B128EC
:1011620008000130250090008F019101F9308D00B7
:101172008C012E009010903025008E000800200077
:101182001612C3289612C5280030F000F1008931EA
:1011920044218831CC2820009613CF2808005530EE
:1011A2003D008F00AA308F000F100E303E009600D7
:1011B20055303D008F00AA308F000F1408002E001A
:1011C2009011200059085A040319E828E928EF2849
:1011D2005A088A0059080A008831EF280800553059
:1011E2003D008F00AA308F000F100E303E00960097
:1011F20055303D008F00AA308F000F1408002300E5
:10120200901A042905290F298F0128309000910195
:1012120003308D000F290F290F290F290800200004
:1012220016121329961215290030F400F50089319F
:10123200CE2189311C29200096131F290800240081
:101242000E1D242925292C290E1071088D007008E5
:101252008C000E14312971088D0070088C00312920
:1012620008002400141D362937293E29141071085C
:1012720093007008920014144329710893007008B7
:101282009200432908007108F3007008F200F33657
:10129200F20CF336F20C720827008D007008033945
:1012A200F2000530F235FF3E031D532972358C00E2
:1012B200080022008E018F01900191019201930199
:1012C2008D0121009E019B019401950196019701D8
:1012D2009A0199019801843093009D01080004301D
:1012E2002500960095019701F130930092012E009E
:1012F20090119A15FF30F4000730F5008831522022
:101302008931D0302500940008002E0010102000F2
:101312006408F1006308F00089312021893120003E
:10132200610862040319962997299D2962088A0097
:1013320061080A0089319D2908002E001011200041
:101342005E08F1005D08F000893132218931200008
:101352005B085C040319AE29AF29B5295C088A0031
:101362005B080A008931B5290800F40074082100DD
:101372009E009317131313140000BF2921001318A2
:10138200C329C429BF29C5290D082000A1002100B5
:101392000C082000A000CD29080075082000A1003B
:1013A2007408A000A136A00CA136A00C20082700CA
:1013B2008D00740803392000A0000530A035FF3EDF
:1013C200031DDF29203527008C00080024008F012F
:1013D20090010430910086308D00E8308C000D08B9
:1013E2002000E40024000C082000E3002E0010106E
:1013F2001A140230F4000030F50088314620893199
:10140200053024008E000800240095019601043066
:101412009700E7309300C830920013082000DE00E6
:10142200240012082000DD002E0010111A150330CE
:10143200F4000030F50088314C208A31013024005C
:10144200940008000F3023001005F40008307406E1
:1014520003192C2A2D2A362A0F301005F4000B30DE
:101462007406031D352A362A392A9115392A392A52
:101472000F1C3C2A3D2A392A3E2A0C08402A080021
:10148200883164208A318B317B238A318831742000
:101492008A3188318A208A3189315A218A318A31C6
:1014A20005228A31893170218A318831B2208A310C
:1014B2008931E7218A3188317D208A310800750817
:1014C200803A2000A00080302002031D6A2A0230E8
:1014D2007402031C6D2A6E2A722A20009616752A3F
:1014E200752A20009612752A741C782A792A7C2A79
:1014F20016167F2A7F2A16127F2A7F2A08002000CA
:10150200AC01AD01842A281C872A882A8C2A2A0841
:10151200AC072B08AD3D0130AA35AB0D890B8D2AE6
:101522000130A936A80C890B922A28082904031D28
:101532009B2A9C2A842A9D2A2D08A9002C08A800EF
:10154200A22A080000308B1B0130F4002000210881
:1015520030009B002000200830009A002000220862
:1015620030009C001E171E158B1355309F00AA30A9
:101572009F009E14BC2A9E18BF2AC02ABC2A1E1194
:10158200740C031C8B1303188B17080020004D03E7
:101592004E04031DCD2ACE2AD12ACD01CE01E92A3D
:1015A200650A031DD82A660A031DD82AD92AE42A05
:1015B2008831C0208A310530F8000030F90020005F
:1015C200E501E601E92A0130C7000030C800E92A36
:1015D200FA300032890BEA2A080001302000CF07D6
:1015E2000030D03D3C304F065004031DF92AFA2A40
:1015F200012B0130D1070030D23DCF01D001012BA8
:101602003C3051065204031D072B082B0F2B0130CF
:10161200D3070030D43DD101D2010F2B8C1B122BEA
:10162200132B162B9617192B192B9613192B192BD3
:10163200080076087704031D1F2B202B242B8831EA
:10164200D0208B31242B6430F6070030F73D770829
:10165200F1007608F000893144218B31E8307606BA
:10166200033003197706031D372B382B452B97318F
:10167200E8278B31F601F701FC30F0000330F1006E
:10168200893144218B31452B0800893110218B315E
:101692002000221C4D2B4E2B512B1616532B532B55
:1016A2001612532BA21C562B572B5A2B96165C2B19
:1016B2005C2B96125C2B221D5F2B602B682BFF305C
:1016C200F4000330F5008931CE218B316F2B0030CD
:1016D200F400F5008931CE218B316F2B2000A21D41
:1016E200732B742B772B96177A2B7A2B96137A2BD4
:1016F2007A2B080020009A0199019601970198011E
:10170200073095000F309100FF309200FF309300B8
:10171200FF309400FF303E00D900C730CE00EF30DA
:10172200C3000730E4000F30B800DA01E501C4015C
:10173200B901CF01E601BA01C501D001DB01FF30D9
:10174200BB00FF30C600FF30D100FF30DC000730A5
:10175200E7000C303D0090001330C50014303E000D
:10176200A3001530A40014303D00C600080002306A
:101772002000A5000030A60000308931B6218B314F
:1017820020002108CA002008C90001304A020030A6
:10179200031949020318CE2BCF2BD22BA501A60188
:1017A200F42B02304A020030031949020318DA2BE3
:1017B200DB2BE02B0130A5000030A600F42B033018
:1017C2004A020030031949020318E82BE92BEE2BD9
:1017D2000230A5000030A600F42B0330A500003033
:1017E200A600F42BF42B2608A4002508A300F92B4D
:1017F20008002000A601A31FFF2B002C082CA20921
:10180200A309A20A0319A30AA601A60A082CA11F6A
:101812000B2C0C2C122CA009A109A00A0319A10A55
:10182200122C200821040319172C182C472CA5016F
:10183200A50A252C0130A035A10D890B1C2C0130E5
:10184200A4002408A507252CA11F282C292C1B2C19
:101852002B2C2B2C21082302031D312C20082202C1
:10186200031C342C352C3A2C2008A2022108A33B5D
:101872003A2C0130A136A00C890B3B2C0130A50279
:10188200031D442C452C2B2C472C472C26080319CE
:101892004B2C4C2C522CA209A309A20A0319A30A0D
:1018A200522C2308A1002208A000572C0800F500A2
:1018B200750823008C00901F5F2C602C632CB52CC4
:1018C200B52CB52C0F301005F4000830740603193E
:1018D2006B2C6C2C872C0F301005F4000B30740627
:1018E2000319742C752C872C1016772C2E000F1CC4
:1018F2007B2C7C2C772C23000F19802C812CB52C6F
:101902000F08B52CB52CB52CB52CB52C0F30100505
:10191200F4000830740603198F2C902C9B2C0F3086
:101922001005F4000B307406031D982C992CB52C6D
:101932009B2C9B2C0F189E2C9F2C9B2CA22CA22CF8
:10194200A22C0F0C890C0139F40011081F39740400
:10195200031DAC2CAD2CA22C1108B52CB52CB52C2A
:10196200B52CB52CB52CB52C0800780A031DBE2C5D
:10197200790A0319BD2CBE2C1E2D200045084604F1
:10198200031DC42CC52C062DDA2CDA2C1616ED2CD0
:10199200ED2C9616ED2CED2CFC30F0000330F1000E
:1019A200893144218C31ED2C20009617ED2CED2C41
:1019B200ED2C7908003A0319DF2CED2C7808023A55
:1019C2000319C72C013A0319CA2C073A0319CD2C63
:1019D200013A0319D52CED2C01302000C50000304E
:1019E200C6001E2D062D1612192D192D9612192D0F
:1019F200192D0030F000F100893144218C31192D6C
:101A020020009613192D192D192D7908003A031962
:101A12000B2D192D7808023A0319F42C013A0319F7
:101A2200F72C073A0319FA2C013A0319012D192D43
:101A32002000C501C6011E2D1E2D08002000A50193
:101A4200A11F242D252D2D2DA009A109A00A0319BE
:101A5200A10AA501A50A2D2DA31F302D312D3B2D45
:101A6200A209A309A20A0319A30A0130F400740807
:101A7200A5063B2DA601A701200821040319422D2A
:101A8200432D782DA401A40A502D0130A035A10DBB
:101A9200890B472D0130F4007408A407502DA11FB3
:101AA200532D542D462D562D562D0130A635A70DFA
:101AB200890B572D21082302031D612D20082202C4
:101AC200031C642D652D6B2D2008A2022108A33B67
:101AD20026146B2D0130A136A00C890B6C2D013020
:101AE200A402031D752D762D562D782D782D2508EF
:101AF20003197C2D7D2D832DA609A709A60A03199A
:101B0200A70A832D2708A1002608A000882D080017
:101B1200742E893110218D310430F8000030F90023
:101B220005302000E5000030E6008C2E6630F4001F
:101B32007030F500883197208D312000A700A80170
:101B42002708A9002808AA002A08A3002908A20039
:101B52008B3146238D3102302000E5000030E60053
:101B62008C2E0A30A0000030A1006730F4007030E3
:101B7200F500883197208D312000A700A8012708A1
:101B8200A2002808A3008B31FA238D3120002108FE
:101B9200AA002008A9002A08A3002908A2008B3164
:101BA20046238D3103302000E5000030E6008C2E04
:101BB2006730F4007030F500883197208D312000B5
:101BC200A700A8012708A9002808AA002A08A3003C
:101BD2002908A2008B3146238D3104302000E50014
:101BE2000030E6008C2E2A08A3002908A2008B31BF
:101BF20046238D3105302000E5000030E6008C2EB2
:101C02000730E5000030E600893110218D310330C4
:101C1200F8000030F9008C2E07302000E50000307B
:101C2200E600893110218D310330F8000030F900CF
:101C32008C2E893110218D310230F8000030F900EC
:101C42000A302000E5000030E6008C2E8931102198
:101C52008D31FF30F800FF30F9007830F400703039
:101C6200F500883197208D312000A700A8012708B0
:101C7200A9002808AA002A08A3002908A2008B317B
:101C820046238D3109302000E5000030E6008C2E1D
:101C92000A30E5000030E6008C2E893110218D31AA
:101CA200FF30F800FF30F900FF302000E500FF3080
:101CB200E6008C2E893110218D31FF30F800FF3083
:101CC200F900FF302000E500FF30E6008C2E89315C
:101CD20010218D310330F8000030F9008C2E2000E5
:101CE200E501E6018C2E20006608003A03197D2EDC
:101CF200FF3A0319872E8C2E650884000C300402EB
:101D020003188C2E88310435183E82006508FF3A8C
:101D12000319682E8C2E0800E72F6630F40070300D
:101D2200F500883197208E312000BC00BD013C08AF
:101D3200BE003D08BF003F08A3003E08A2008B3151
:101D420046238E3101302000E5000030E600893163
:101D520010218E31FF30F800FF30F900FF2F66307E
:101D62002000AE007030AF000130B0000030B10092
:101D72000030B200B3008631F0268E3120002F08E9
:101D8200BF002E08BE003F08A3003E08A2008B3110
:101D920046238E31FF2F66302000AE007030AF0038
:101DA2000030B000B1000030B200B3008631F0263E
:101DB2008E3120002F08BF002E08BE003F08A3006E
:101DC2003E08A2008B3146238E31FF2F6730200060
:101DD200AE007030AF000130B0000030B100013011
:101DE200B2000030B3008631F0268E3120002F0879
:101DF200BF002E08BE003F08A3003E08A2008B31A0
:101E020046238E31FF2F67302000AE007030AF00C6
:101E12000030B000B1000130B2000030B3008631B2
:101E2200F0268E3120002F08BF002E08BE003F088A
:101E3200A3003E08A2008B3146238E31FF2F893149
:101E420010218E31FF30F800FF30F90020006B08BE
:101E52006C0403192D2F2E2F312F1616342F342FE9
:101E62001612342F342F0630E5000030E600FF2F23
:101E72006B036C04031D3E2F3F2F452FEB01EC013A
:101E8200422F1612FF2FFF2F0130EB000030EC0023
:101E92004A2F1616FF2FFF2FFF2F7830F4007030D5
:101EA200F500883197208E312000BC00BD013C082E
:101EB200BE003D08BF003F08A3003E08A2008B31D0
:101EC20046238E31893110218E31FF30F800FF30E8
:101ED200F90008302000E5000030E600FF2F7830DE
:101EE200AE007030AF000130B0000030B1000230FF
:101EF200B2000030B3008631F0268E3120002F0868
:101F0200BF002E08BE003F08A3003E08A2008B318E
:101F120046238E31FF2F78302000AE007030AF00A4
:101F22000030B000B1000230B2000030B3008631A0
:101F3200F0268E3120002F08BF002E08BE003F0879
:101F4200A3003E08A2008B3146238E31FF2F893138
:101F520010218E31FF30F800FF30F9007930F400A3
:101F62007030F500883197208E312000BC00BD0111
:101F72003C08BE003D08BF003F08A3003E08A20087
:101F82008B3146238E310B302000E5000030E60015
:101F9200FF2F7930AE007030AF000030B000B100DA
:101FA2000330B2000030B3008631F0268E312000BB
:101FB2002F08BF002E08BE003F08A3003E08A20063
:101FC2008B3146238E31FF2FFF2FFF2F2000660813
:101FD200003A0319F02FFF3A0319FA2FFF2F650871
:101FE20084000C3004020318FF2F88310435003EB0
:0E1FF20082006508FF3A0319FF2FFF2F080039
:102FD00024001410080025008E1708002400141483
:102FE000080024001410080025009417080025008C
:102FF0009413080024000E14080024000E1008008A
:1030000004340034323400343C3400341834003496
:083010000234003403340034E3
:020000040001F9
:0A000E00EC3FFF3F9F3FFF3FFF3F25
:00000001FF
