:020000040000FA
:1000000080314C28080008007E1480312E00161C18
:100010000A280B2813280C1C0E280F2813288E31B1
:10002000572680314A280B1F162817284A28991C62
:100030001A281B2821288F1C1E281F2821284A28FF
:100040004A28191C242825282B280F1C2828292851
:100050002B284A284A281A1D2E282F283728101DF9
:100060003228332837288F315F2780314A281A1CDD
:100070003A283B284A28101C3E283F284A288F311E
:10008000472780314A284A284A284A284A284A28A5
:100090004A284A287E10090080314E287530840095
:1000A0008E3085001200E2001200E3001200E4002E
:1000B0001200E5001200E6001200E700F601F70169
:1000C000F801F9014A308400003085000E308E318D
:1000D0006F2680317E10200085312B2D6530F40095
:1000E0007030F5008E31AE2680312000A700A801C7
:1000F0002708BF002808C0006430F4007030F50005
:100100008E31AE2680312000A700A8012708C1004B
:100110002808C2003F08400403198F289028BE28F1
:1001200042084006031D962841083F0603199928F6
:100130009A28A22814303F064004031DA028A128B5
:10014000BE28A2284008803AA70080302702031D5D
:10015000AB2815303F020318AE28AF28BE28200078
:100160004208803AA70080302702031DB9281530C5
:100170004102031CBC28BD280529BE282000BF0160
:10018000C001C101C2016530A0007030A1003F086C
:10019000A7002708A20087319D2780316430200006
:1001A000A0007030A1004108A7002708A2008731F5
:1001B0009D27803170302000A0007030A100A20186
:1001C00087319D2780316C302000A0007030A10065
:1001D000A20187319D2780317A302000A000703045
:1001E000A100C830A7002708A20087319D278031D1
:1001F00076302000A0007030A1000530A70027084D
:10020000A20087319D27803105298E31502680310B
:1002100020005308BC005208BB005108BE00500823
:10022000BD004F08BA004E08B9008E314D2680310E
:1002300066302000A0007030A1003B08A70027080E
:10024000A20087319D27803167302000A0007030E8
:10025000A1003D08A7002708A20087319D27803113
:100260002000B101B201B301B4013F0840040319F9
:100270003A293B295C294108033EF4007030423D95
:10028000F5008E31AE2680312000A700A801270896
:10029000B1002808B2004108023EF4007030423D2F
:1002A000F5008E31AE2680312000A700A801270876
:1002B000B3002808B4005C2932082406031D622913
:1002C00031082306031D652966297129340826068D
:1002D000031D6C293308250603196F297029782915
:1002E00071293F084004031D762977297F29782941
:1002F0003F084004031D7D297E29152A7F29B50169
:10030000B6014208803AA70080302702031D8A29DF
:1003100013304102031C8D298E2992292000B5013A
:10032000B6019A2920004108013EB5000030423D47
:10033000B6009A29B701B8014008803AA70080307A
:100340002702031DA52914303F020318A829A92953
:10035000B12920003F08013EB7000030403DB80001
:10036000B72920004008B8003F08B700B72964301B
:10037000A0007030A1003508A7002708A20087312F
:100380009D27803165302000A0007030A100370823
:10039000A7002708A20087319D278031200041084F
:1003A000003EA0007030423DA1003B08A700270896
:1003B000A20087319D27803120004108013EA00026
:1003C0007030423DA1003D08A7002708A2008731F8
:1003D0009D27803120004108023EA0007030423D40
:1003E000A1003908A7002708A20087319D27803186
:1003F00020004108033EA0007030423DA1002508C6
:10040000A7002708A20087319D27803120004108DE
:10041000043EA0007030423DA1002308A700270839
:10042000A20087319D278031152A7030F40070308A
:10043000F5008E31AE2680312000A700A8012708E4
:10044000A9002808AA006C30F4007030F5008E3145
:10045000AE2680312000A700A8012708AB0028089D
:10046000AC007A30F4007030F5008E31AE26803169
:100470002000A700A8012708AD002808AE007630AC
:10048000F4007030F5008E31AE2680312000A700D8
:10049000A8012708AF002808B0002608803AA70066
:1004A0002A08803A2702031D572A29082502031C1F
:1004B0005A2A5B2A982AD3302000A000E030A100FD
:1004C0003B08A7002708A20087319D2780316E30A6
:1004D0002000A0007030A1003D08A7002708A2005E
:1004E00087319D2780316F302000A0007030A1003F
:1004F0003908A7002708A20087319D278031703076
:100500002000A0007030A1002508A7002708A20045
:1005100087319D27803171302000A0007030A1000C
:100520002308A7002708A20087319D278031982A39
:1005300020002408803AA7002C08803A2702031DD7
:10054000A32A2B082302031CA62AA72AE42ACE30BA
:100550002000A000E030A1003B08A7002708A2006F
:1005600087319D27803169302000A0007030A100C4
:100570003D08A7002708A20087319D2780316A30F7
:100580002000A0007030A1003908A7002708A200B1
:1005900087319D2780316B302000A0007030A10092
:1005A0002508A7002708A20087319D2780316C30DD
:1005B0002000A0007030A1002308A7002708A20097
:1005C00087319D278031E42A20002E08803AA70039
:1005D0002608803A2702031DEF2A25082D02031C56
:1005E000F22AF32A302BDD302000A000E030A100F9
:1005F0003B08A7002708A20087319D27803178306B
:100600002000A0007030A1003D08A7002708A2002C
:1006100087319D27803179302000A0007030A10003
:100620003908A7002708A20087319D2780317A303A
:100630002000A0007030A1002508A7002708A20014
:1006400087319D2780317B302000A0007030A100D1
:100650002308A7002708A20087319D278031302B6F
:1006600020003008803AA7002408803A2702031DA2
:100670003B2B23082F02031C3E2B3F2B7C2BD83017
:100680002000A000E030A1003B08A7002708A2003E
:1006900087319D27803173302000A0007030A10089
:1006A0003D08A7002708A20087319D2780317430BC
:1006B0002000A0007030A1003908A7002708A20080
:1006C00087319D27803175302000A0007030A10057
:1006D0002508A7002708A20087319D2780317630A2
:1006E0002000A0007030A1002308A7002708A20066
:1006F00087319D2780317C2B20002608803AA70077
:100700006308803A2702031D872B6208250203181D
:100710008A2B8B2B9B2B20002408803AA70065088E
:10072000803A2702031D962B64082302031C992B91
:100730009A2BA12B9B2B01302000CC000030CD0048
:10074000A12B0800A42BA42B23000F0C890C01392A
:100750002000A000230011081F3920002004031DE1
:10076000B22BB32BA42B23001114B62B1118B92BC9
:10077000BA2BB62BBD2BBD2BBD2B23000F0C890C28
:1007800001392000A000230011081F392000200497
:10079000031DCB2BCC2BBD2BCD2B9A3086310A26BB
:1007A0008331D32BD32B23000F0C890C013920006C
:1007B000A000230011081F3920002004031DE12B95
:1007C000E22BD32BE32B013086310A268331E92B30
:1007D000E92B23000F0C890C01392000A000230015
:1007E00011081F3920002004031DF72BF82BE92BDB
:1007F00023009114FB2B9118FE2BFF2BFB2B022CBB
:10080000022C022C23000F0C890C01392000A000BF
:10081000230011081F3920002004031D102C112C67
:10082000022C122C9B3086310A268331182C182C6E
:1008300023000F0C890C01392000A00023001108AF
:100840001F3920002004031D262C272C182C282CAF
:100850008731E12783312000A0002008A100312C3E
:10086000312C23000F0C890C01392000A00023003B
:1008700011081F3920002004031D3F2C402C312C6F
:10088000230091161116442C111A472C482C442C85
:100890004B2C4B2C4B2C23000F0C890C01392000C6
:1008A000A000230011081F3920002004031D592C2B
:1008B0005A2C4B2C230011155D2C1119602C612C26
:1008C0005D2C2000211F652C662CA22B692C692C25
:1008D000692C23000F0C890C01392000A000230093
:1008E00011081F3920002004031D772C782C692C57
:1008F000230011147B2C11187E2C7F2C7B2C822C36
:10090000822C822C23000F0C890C01392000A000BE
:10091000230011081F3920002004031D902C912C66
:10092000822C922C9A3086310A268331982C982C6E
:1009300023000F0C890C01392000A00023001108AE
:100940001F3920002004031DA62CA72C982CA82CAE
:10095000003086310A268331AE2CAE2C23000F0CDA
:10096000890C01392000A000230011081F39200044
:100970002004031DBC2CBD2CAE2C23009114C02CD4
:100980009118C32CC42CC02CC72CC72CC72C2300F7
:100990000F0C890C01392000A000230011081F3919
:1009A00020002004031DD52CD62CC72CD72C9B301F
:1009B00086310A268331DD2CDD2C23000F0C890CB7
:1009C00001392000A000230011081F392000200455
:1009D000031DEB2CEC2CDD2CED2C8731E127833132
:1009E0002000A0002008A100F62CF62C23000F0CFC
:1009F000890C01392000A000230011081F392000B4
:100A00002004031D042D052DF62C2300911611162C
:100A1000092D111A0C2D0D2D092D102D102D102D15
:100A200023000F0C890C01392000A00023001108BD
:100A30001F3920002004031D1E2D1F2D102D230003
:100A40001115222D1119252D262D222D272D20009F
:100A500021082A2D08008F31A82785318E31E726FD
:100A600085312000931513163E00CF154F168B17B6
:100A70000B177130F4000730F5008E316326853195
:100A80007B30F4000E30F5008E315D268531453027
:100A9000F4000730F5008E31692685318E314A2603
:100AA00085312000C801C901C601C7011930E20023
:100AB0000030E3000130CE070030CF3D023084002B
:100AC00090308500003FA000013FA1004F08A30027
:100AD0004E08A200863168268531200020082104B6
:100AE000031D732D742D842D8631C626853120007B
:100AF0002408C9002308C8004908F5004808F40084
:100B00008731C1278531842D0230840090308500E3
:100B1000003F2000A000013FA1004F08A3004E08A5
:100B2000A200863168268531200020032104031DA0
:100B30009A2D9B2DAC2D00008331A22385312000FE
:100B4000C3004308C5004508C300C4014308C600EC
:100B50004408C7000000AC2D0230840090308500AE
:100B6000003F2000A000013FA1004F08A3004E0855
:100B7000A20086316826853102302000200621043B
:100B8000031DC32DC42D5A2D4908A4004808A300F5
:100B90004708A6004608A50080316E208531200058
:100BA0004C034D04031DD52DD62DEE2D4A084B04C4
:100BB000031DDB2DDC2DEE2D66036704031DE12DE7
:100BC000E22DEE2D8E31532685318E31472685312B
:100BD00001302000CA000030CB005A2D4C084D04D3
:100BE000031DF32DF42D5A2D4A034B04031DF92D3B
:100BF000FA2D5A2D0030F400F5008F318F27853102
:100C00002000CA01CB015A2D5A2D5A2D5A2D5A2D8A
:100C100080314C28F500750823008C00901F112EA0
:100C2000122E152E672E672E672E0F301005F4003A
:100C30000830740603191D2E1E2E392E0F30100594
:100C4000F4000B3074060319262E272E392E1016A9
:100C5000292E2E000F1C2D2E2E2E292E23000F198B
:100C6000322E332E672E0F08672E672E672E672EC3
:100C7000672E0F301005F400083074060319412E5A
:100C8000422E4D2E0F301005F4000B307406031D5C
:100C90004A2E4B2E672E4D2E4D2E0F18502E512EB4
:100CA0004D2E542E542E542E0F0C890C0139F40065
:100CB00011081F397404031D5E2E5F2E542E110877
:100CC000672E672E672E672E672E672E672E080009
:100CD0002000A501A31F6D2E6E2E762EA209A3095A
:100CE000A20A0319A30AA501A50A762EA11F792E2F
:100CF0007A2E802EA009A109A00A0319A10A802E2C
:100D0000200821040319852E862EB52EA401A40ADD
:100D1000932E0130A035A10D890B8A2E0130F400ED
:100D20007408A407932EA11F962E972E892E992E14
:100D3000992E21082302031D9F2E20082202031C46
:100D4000A22EA32EA82E2008A2022108A33BA82E83
:100D50000130A136A00C890BA92E0130A402031D7D
:100D6000B22EB32E992EB52EB52E25080319B92E05
:100D7000BA2EC02EA209A309A20A0319A30AC02EE3
:100D80002308A1002208A000C52E08000230200080
:100D9000A5000030A60000308F3177278631200073
:100DA0002108F9002008F800013079020030031909
:100DB00078020318DC2EDD2EE02EA501A601022FFD
:100DC000023079020030031978020318E82EE92E68
:100DD000EE2E0130A5000030A600022F033079026C
:100DE0000030031978020318F62EF72EFC2E02307D
:100DF000A5000030A600022F0330A5000030A60099
:100E0000022F022F2608A4002508A300072F0800A0
:100E100020009A01990196019701980107309500E9
:100E20000F309100FF309200FF309300FF309400AC
:100E3000FF303E00D900C730CE00EF30C30007308E
:100E4000E4000F30B800DA01E501C401B901CF01B7
:100E5000E601BA01C501D001DB01FF30BB00FF3064
:100E6000C600FF30D100FF30DC000730E7000C3057
:100E70003D0090001330C50014303E00A300153033
:100E8000A40014303D00C600080076087704031D56
:100E90004A2F4B2F4F2F8E31D72687314F2F64305B
:100EA000F6070030F73D7708F1007608F0008F3143
:100EB0001B278731E8307606033003197706031DB8
:100EC000622F632F702F8E3141268731F601F70193
:100ED000FC30F0000330F1008F311B278731702F79
:100EE000080001302000CE070030CF3D3C304E06D8
:100EF0004F04031D7C2F7D2F842F0130D00700303D
:100F0000D13DCE01CF01842F3C3050065104031D4A
:100F10008A2F8B2F922F0130D2070030D33DD00182
:100F2000D101922F8C1B952F962F992F96179C2FBE
:100F30009C2F96139C2F9C2F080000308B1B013098
:100F4000F4002000210830009B0020002008300021
:100F50009A002000220830009C001E171E158B13DB
:100F600055309F00AA309F009E14B62F9E18B92FAF
:100F7000BA2FB62F1E11740C031C8B1303188B177A
:100F800008007508803A2000A00080302002031D70
:100F9000CB2F02307402031CCE2FCF2FD32F200073
:100FA0009616D62FD62F20009612D62F741CD92F26
:100FB000DA2FDD2F1616E02FE02F1612E02FE02F8C
:100FC00008000F3023001005F400083074060319E0
:100FD000EA2FEB2FF42F0F301005F4000B307406BE
:100FE000031DF32FF42FF72F9115F72FF72F0F1C59
:100FF000FA2FFB2FF72FFC2F0C08FE2F08000800FC
:101C820024001410080025008E17080024001414E4
:101C9200080024001410080024000E140800240078
:101CA2000E1008008E3144268E3108002E000C10D2
:101CB2008E31BB268E31080075082000DD007408C5
:101CC200DC00080075082000DF007408DE00080050
:101CD20075082000D9007408D8000800640080014B
:101CE2000131890B702E003419340034023400346F
:101CF200013400342000CC01CD01FA300032890BCE
:101D02007F2E08002F0096019701980199019A01F0
:101D12009B010800623031008D008F019101023079
:101D22009300920108002E000C100B140230F400F4
:101D32000030F5008E315D268E312E00161408001B
:101D4200803027008E007C308D00C0308C00240053
:101D52001F08F33904389F000800750830009B0003
:101D620074089A001E171E140000000030001C08A0
:101D7200BA2E080020005C085D040319C12EC22E91
:101D8200C82E5D088A005C080A008E31C82E080041
:101D92000130250090008F019101F9308D008C01F6
:101DA2002E009010903025008E00080055303D0026
:101DB2008F00AA308F000F100E303E009600553073
:101DC2003D008F00AA308F000F1408002300901AE4
:101DD200EB2EEC2EF62E8F0128309000910103306D
:101DE2008D00F62EF62EF62EF62E080024000E1D7D
:101DF200FB2EFC2E032F0E1071088D0070088C0034
:101E02000E14082F71088D0070088C00082F08002E
:101E12002400141D0D2F0E2F152F1410710893007E
:101E22007008920014141A2F71089300700892001F
:101E32001A2F08007108F3007008F200F336F20C52
:101E4200F336F20C720827008D0070080339F20095
:101E52000530F235FF3E031D2A2F72358C00080033
:101E620022008E018F0190019101920193018D0157
:101E720021009E019B0194019501960197019A010F
:101E820099019801843093009D0108002E001010E2
:101E920020006108F1006008F0008E31F7268F31D2
:101EA20020005E085F040319572F582F5E2F5F082A
:101EB2008A005E080A008F315E2F08002E00101182
:101EC20020005B08F1005A08F0008F3109278F319A
:101ED20020005808590403196F2F702F762F5908C4
:101EE2008A0058080A008F31762F0800F40074081F
:101EF20021009E009317131313140000802F21005A
:101F02001318842F852F802F862F0D082000A10003
:101F120021000C082000A0008E2F08007508200068
:101F2200A1007408A000A136A00CA136A00C2008C4
:101F320027008D00740803392000A0000530A03569
:101F4200FF3E031DA02F203527008C0008008E3194
:101F520083268F31873108278F318E318B268F313F
:101F62008E31A1268F318F3131278F318F31E22788
:101F72008F318E31C9268F318E3194268F318F3138
:101F8200C4278F31080024008F0190010430910092
:101F920086308D00E8308C000D082000E10024001E
:101FA2000C082000E0002E0010101A140330F40078
:101FB2000030F5008E3163268F31053024008E000B
:101FC200080024009501960104309700E730930041
:101FD200C830920013082000DB0024001208200001
:101FE200DA002E0010111A15FF30F4000730F50048
:101FF2008E3169268F3101302400940008000234AA
:0620020000340334003439
:020000040001F9
:0A000E00EC3FFF3F9F3FFF3FFF3F25
:00000001FF
