:020000040000FA
:1000000080315928080008007E1480312E00161C0B
:100010000A280B2813280C1C0E280F2813289731A8
:100020008B27803157280B1F162817285728991C13
:100030001A281B2821288F1C1E281F2821285728F2
:100040005728191C242825282B280F1C2828292844
:100050002B28572857289A1D2E282F283728901DDF
:1000600032283328372888315C20803157281A1DE0
:100070003A283B284328101D3E283F284328893131
:100080001A21803157281A1C462847285728101C47
:100090004A284B2857288931022180315728572870
:1000A00057285728572857285728572857287E1049
:1000B000090080315B283430840088308500653049
:1000C00086000030870008309731AF278031F60175
:1000D000F701F801F9014530840000308500143043
:1000E0009731A92780317E1020008631822E65301D
:1000F000F4007030F5009731D72780312000A70039
:10010000A8012708BF002808C0006430F400703040
:10011000F5009731D72780312000A700A8012708D4
:10012000C1002808C2003F084004031998289928F4
:10013000C72842084006031D9F2841083F060319AF
:10014000A228A328AB2814303F064004031DA92889
:10015000AA28C728AB284008803AA7008030270289
:10016000031DB42815303F020318B728B828C72844
:1001700020004208803AA70080302702031DC228D1
:1001800015304102031CC528C6280E29C7282000A7
:10019000BF01C001C101C2016530A0007030A100E3
:1001A0003F08A7002708A2008A311F22803164304F
:1001B0002000A0007030A1004108A7002708A2007D
:1001C0008A311F22803170302000A0007030A100E1
:1001D000A2018A311F2280316C302000A0007030D3
:1001E000A100A2018A311F2280317A302000A000B4
:1001F0007030A100C830A7002708A2008A311F2252
:10020000803176302000A0007030A1000530A700BA
:100210002708A2008A311F2280310E298731FD274D
:10022000803120005408BC005308BB005208BE00B7
:100230005108BD005008BA004F08B9009731802717
:10024000803166302000A0007030A1003B08A7007C
:100250002708A2008A311F22803167302000A000C9
:100260007030A1003D08A7002708A2008A311F2294
:1002700080312000B101B201B301B4013F08400454
:1002800003194329442965294108033EF4007030CD
:10029000423DF5009731D72780312000A700A80103
:1002A0002708B1002808B2004108023EF40070306F
:1002B000423DF5009731D72780312000A700A801E3
:1002C0002708B3002808B400652932082406031D56
:1002D0006B2931082306031D6E296F297A293408FA
:1002E0002606031D7529330825060319782979295F
:1002F00081297A293F084004031D7F298029882904
:1003000081293F084004031D862987291E2A882940
:10031000B501B6014208803AA70080302702031DCC
:10032000932913304102031C962997299B29200009
:10033000B501B601A32920004108013EB5000030F7
:10034000423DB600A329B701B8014008803AA70092
:1003500080302702031DAE2914303F020318B12953
:10036000B229BA2920003F08013EB7000030403DC5
:10037000B800C02920004008B8003F08B700C029D5
:100380006430A0007030A1003508A7002708A20043
:100390008A311F22803165302000A0007030A1001A
:1003A0003708A7002708A2008A311F2280312000C9
:1003B0004108003EA0007030423DA1003B08A7006C
:1003C0002708A2008A311F22803120004108013E07
:1003D000A0007030423DA1003D08A7002708A20000
:1003E0008A311F22803120004108023EA000703077
:1003F000423DA1003908A7002708A2008A311F2228
:10040000803120004108033EA0007030423DA10031
:100410002508A7002708A2008A311F22803120006A
:100420004108043EA0007030423DA1002308A7000F
:100430002708A2008A311F2280311E2A7030F40062
:100440007030F5009731D72780312000A700A80130
:100450002708A9002808AA006C30F4007030F500C5
:100460009731D72780312000A700A8012708AB00CB
:100470002808AC007A30F4007030F5009731D727A7
:1004800080312000A700A8012708AD002808AE0091
:100490007630F4007030F5009731D7278031200096
:1004A000A700A8012708AF002808B0002608803A56
:1004B000A7002A08803A2702031D602A290825027E
:1004C000031C632A642AA12AD3302000A000E03054
:1004D000A1003B08A7002708A2008A311F22803113
:1004E0006E302000A0007030A1003D08A700270852
:1004F000A2008A311F2280316F302000A0007030AE
:10050000A1003908A7002708A2008A311F228031E4
:1005100070302000A0007030A1002508A700270837
:10052000A2008A311F22803171302000A00070307B
:10053000A1002308A7002708A2008A311F228031CA
:10054000A12A20002408803AA7002C08803A27021C
:10055000031DAC2A2B082302031CAF2AB02AED2A64
:10056000CE302000A000E030A1003B08A700270803
:10057000A2008A311F22803169302000A000703033
:10058000A1003D08A7002708A2008A311F22803160
:100590006A302000A0007030A1003908A7002708A9
:1005A000A2008A311F2280316B302000A000703001
:1005B000A1002508A7002708A2008A311F22803148
:1005C0006C302000A0007030A1002308A70027088D
:1005D000A2008A311F228031ED2A20002E08803AA5
:1005E000A7002608803A2702031DF82A25082D02B5
:1005F000031CFB2AFC2A392BDD302000A000E03050
:10060000A1003B08A7002708A2008A311F228031E1
:1006100078302000A0007030A1003D08A700270816
:10062000A2008A311F22803179302000A000703072
:10063000A1003908A7002708A2008A311F228031B3
:100640007A302000A0007030A1002508A7002708FC
:10065000A2008A311F2280317B302000A000703040
:10066000A1002308A7002708A2008A311F22803199
:10067000392B20003008803AA7002408803A27024E
:10068000031D442B23082F02031C472B482B852BCB
:10069000D8302000A000E030A1003B08A7002708C8
:1006A000A2008A311F22803173302000A0007030F8
:1006B000A1003D08A7002708A2008A311F2280312F
:1006C00074302000A0007030A1003908A70027086E
:1006D000A2008A311F22803175302000A0007030C6
:1006E000A1002508A7002708A2008A311F22803117
:1006F00076302000A0007030A1002308A700270852
:10070000A2008A311F228031852B0800882B882B7C
:1007100023000F0C890C01392000A00023001108D0
:100720001F3920002004031D962B972B882B2300B4
:1007300011149A2B11189D2B9E2B9A2BA12BA12BB8
:10074000A12B23000F0C890C01392000A0002300ED
:1007500011081F3920002004031DAF2BB02BA12B43
:10076000B12B9A308B31DB238331B72BB72B23008E
:100770000F0C890C01392000A000230011081F393B
:1007800020002004031DC52BC62BB72BC72B01301F
:100790008B31DB238331CD2BCD2B23000F0C890C28
:1007A00001392000A000230011081F392000200477
:1007B000031DDB2BDC2BCD2B23009114DF2B911899
:1007C000E22BE32BDF2BE62BE62BE62B23000F0C93
:1007D000890C01392000A000230011081F392000D6
:1007E0002004031DF42BF52BE62BF62B9B308B31CD
:1007F000DB238331FC2BFC2B23000F0C890C0139EC
:100800002000A000230011081F3920002004031D30
:100810000A2C0B2CFC2B0C2C89319F2183312000BE
:10082000A0002008A100152C152C23000F0C890C0A
:1008300001392000A000230011081F3920002004E6
:10084000031D232C242C152C230091161116282C63
:10085000111A2B2C2C2C282C2F2C2F2C2F2C230036
:100860000F0C890C01392000A000230011081F394A
:1008700020002004031D3D2C3E2C2F2C230011159D
:10088000412C1119442C452C412C2000211F492CAE
:100890004A2C862B4D2C4D2C4D2C23000F0C890CF3
:1008A00001392000A000230011081F392000200476
:1008B000031D5B2C5C2C4D2C230011145F2C111894
:1008C000622C632C5F2C662C662C662C23000F0C8C
:1008D000890C01392000A000230011081F392000D5
:1008E0002004031D742C752C662C762C9A308B31C9
:1008F000DB2383317C2C7C2C23000F0C890C0139E9
:100900002000A000230011081F3920002004031D2F
:100910008A2C8B2C7C2C8C2C00308B31DB2383316C
:10092000922C922C23000F0C890C01392000A0007E
:10093000230011081F3920002004031DA02CA12C26
:10094000922C23009114A42C9118A72CA82CA42C31
:10095000AB2CAB2CAB2C23000F0C890C01392000E5
:10096000A000230011081F3920002004031DB92C0A
:10097000BA2CAB2CBB2C9B308B31DB238331C12CAD
:10098000C12C23000F0C890C01392000A00023008A
:1009900011081F3920002004031DCF2CD02CC12C9E
:1009A000D12C89319F2183312000A0002008A10093
:1009B000DA2CDA2C23000F0C890C01392000A0005E
:1009C000230011081F3920002004031DE82CE92C06
:1009D000DA2C230091161116ED2C111AF02CF12CA3
:1009E000ED2CF42CF42CF42C23000F0C890C013981
:1009F0002000A000230011081F3920002004031D3F
:100A0000022D032DF42C23001115062D1119092D8B
:100A10000A2D062D0B2D200021080E2D0800692E11
:100A20006630F4007030F5009731D727853120000B
:100A3000BC00BD013C08BE003D08BF003F08A3004C
:100A40003E08A2008A31C922853101302000E5002C
:100A50000030E60088318C208531FF30F800FF300F
:100A6000F900812E66302000AE007030AF000130FA
:100A7000B0000030B1000030B200B3008E31F52676
:100A8000853120002F08BF002E08BE003F08A300BC
:100A90003E08A2008A31C9228531812E66302000AD
:100AA000AE007030AF000030B000B1000030B200D6
:100AB000B3008E31F526853120002F08BF002E08A7
:100AC000BE003F08A3003E08A2008A31C92285313A
:100AD000812E67302000AE007030AF000130B000D2
:100AE0000030B1000130B2000030B3008E31F52685
:100AF000853120002F08BF002E08BE003F08A3004C
:100B00003E08A2008A31C9228531812E673020003B
:100B1000AE007030AF000030B000B1000130B20064
:100B20000030B3008E31F526853120002F08BF003C
:100B30002E08BE003F08A3003E08A2008A31C92249
:100B40008531812E88318C208531FF30F800FF30CF
:100B5000F90020006B086C040319AF2DB02DB32DE4
:100B60001616B62DB62D1612B62DB62D0630E5008A
:100B70000030E600812E6B036C04031DC02DC12DD7
:100B8000C72DEB01EC01C42D1612812E812E0130F0
:100B9000EB000030EC00CC2D1616812E812E812E1C
:100BA0007830F4007030F5009731D7278531200078
:100BB000BC00BD013C08BE003D08BF003F08A300CB
:100BC0003E08A2008A31C922853188318C208531C6
:100BD000FF30F800FF30F90008302000E500003059
:100BE000E600812E7830AE007030AF000130B000EA
:100BF0000030B1000230B2000030B3008E31F52673
:100C0000853120002F08BF002E08BE003F08A3003A
:100C10003E08A2008A31C9228531812E7830200019
:100C2000AE007030AF000030B000B1000230B20052
:100C30000030B3008E31F526853120002F08BF002B
:100C40002E08BE003F08A3003E08A2008A31C92238
:100C50008531812E88318C208531FF30F800FF30BE
:100C6000F9007930F4007030F5009731D7278531DD
:100C70002000BC00BD013C08BE003D08BF003F088D
:100C8000A3003E08A2008A31C92285310B30200022
:100C9000E5000030E600812E7930AE007030AF0004
:100CA0000030B000B1000330B2000030B3008E312C
:100CB000F526853120002F08BF002E08BE003F0812
:100CC000A3003E08A2008A31C9228531812E812EDF
:100CD000812E20006608003A0319722EFF3A03198C
:100CE0007C2E812E650884000C3004020318812EAE
:100CF00088310435003E82006508FF3A0319812ED1
:100D0000812E08008931BD21863188317C208631D1
:100D10002000931513163E00CF154F168B170B1797
:100D20004330F4000A30F500973197278631393087
:100D3000F4000C30F5009731A32786319B30F40086
:100D40000A30F5009731912786316F30F4000A3070
:100D5000F50097319D27863197317127863197317C
:100D60008727863188316C2086310030F400F50009
:100D700089314A2186312100A501A601A101A201E4
:100D800019302000E7000030E8008D310C25863155
:100D9000C92E2000650A031DD12E660A031DD12E1F
:100DA000D22E8F2F0A30840098308500003FA0009B
:100DB000013FA1005008A3004F08A2008B317D2302
:100DC0008631200020082104031DE72EE82E132F72
:100DD0008B313B238631200024082100A60020000F
:100DE00023082100A5002608F5002508F400893114
:100DF000DC21863100302000A200A300210026085B
:100E00002000A500210025082000A4008D317A25AE
:100E1000863120004D084E04031D0F2F102F132F75
:100E20006300132F132F0A30840098308500003F91
:100E30002000A000013FA1005008A3004F08A2001D
:100E40008B317D238631200020032104031D292FAF
:100E50002A2F572F00008331862386312000C300BC
:100E600043082100A00020082000C300C40143085B
:100E70002100A100200044082100A2000000210060
:100E800022082000A300210021082000A200003039
:100E9000A400A5008D317A25863120004D084E042E
:100EA000031D532F542F572F6300572F572F0A30EE
:100EB000840098308500003F2000A000013FA10081
:100EC0005008A3004F08A2008B317D2386310230E9
:100ED000200020062104031D6E2F6F2FC92E210034
:100EE00026082000A400210025082000A3002100DE
:100EF00022082000A600210021082000A500803142
:100F00007720863100302000A200A3000030A4002A
:100F1000A5008D317A2586316300C92EC92E87310F
:100F2000FD27863197318327863101302100A300C8
:100F30000030A400DF2F8E1A9E2F9F2FB62F210086
:100F400023032404031DA52FA62FB62F85310F25BB
:100F5000863111302000C3003A30890BAD2FC30B0E
:100F6000AD2F00002100A301A401C82F20008E1E78
:100F7000BA2FBB2FC82F210023082404031DC12F23
:100F8000C22FC82F0130A3000030A400C82FC82FE3
:100F9000200047034804031DCE2FCF2FDF2FC701AA
:100FA000C8018D31F125863111302000C3003A305F
:100FB000890BD82FC30BD82F0000DF2FDF2F200085
:100FC000650A031DE72F660A031DE72FE82F9B2FF5
:100FD000E92F973187278631973180278631C92EAF
:100FE000C92EC92E80315928623031008D008F0101
:100FF0009101023093009201080024000E100800B5
:101000008531102D8531322D85314E2D8531692D5B
:101010008531862D8531A22D8531BB2D8531D02D91
:101020008531F22D86310E2E86312A2E86314C2EB8
:101030008D31F22D8D31FF2D8E311A2E8E31412EB4
:101040008E315C2E8E31692E8E31752E8E31822E30
:101050008E318F2E8E31B12E8E31B62E8E31C32E23
:1010600097317A2788310800FF34FF34193400346F
:101070000234003401340034200016123F28961246
:1010800041280030F000F1008831C0208831482824
:10109000200096134B28080055303D008F00AA30E1
:1010A0008F000F100E303E00960055303D008F002F
:1010B000AA308F000F1408002E009011200059084C
:1010C0005A040319642865286B285A088A005908AD
:1010D0000A0088316B28080055303D008F00AA3087
:1010E0008F000F100E303E00960055303D008F00EF
:1010F000AA308F000F1408002300901A802881283E
:101100008B288F0128309000910103308D008B28AF
:101110008B288B288B280800200016128F28961207
:1011200091280030F400F50089314A21883198284F
:10113000200096139B28080024000E1DA028A1283B
:10114000A8280E1071088D0070088C000E14AD28B0
:1011500071088D0070088C00AD2808002400141D53
:10116000B228B328BA2814107108930070089200AE
:101170001414BF287108930070089200BF2808005B
:101180007108F3007008F200F336F20CF336F20C3B
:10119000720827008D0070080339F2000530F2351F
:1011A000FF3E031DCF2872358C00080022008E01FF
:1011B0008F0190019101920193018D0121009E0107
:1011C0009B0194019501960197019A01990198015B
:1011D000843093009D01080004302500960095019D
:1011E0009701F130930092012E0090119A1503306F
:1011F000F4000030F5009731A3278831D030250066
:10120000940008002E00101020006408F10063080C
:10121000F00088319C2089312000610862040319A4
:1012200012291329192962088A0061080A008931E4
:10123000192908002E00101120005E08F1005D0839
:10124000F0008831AE20893120005B085C0403196E
:101250002A292B2931295C088A005B080A00893178
:1012600031290800F400740821009E00931713131D
:10127000131400003B29210013183F2940293B2962
:1012800041290D082000A10021000C082000A00029
:101290004929080075082000A1007408A000A136A3
:1012A000A00CA136A00C200827008D00740803397B
:1012B0002000A0000530A035FF3E031D5B2920352E
:1012C00027008C00080024008F0190010430910059
:1012D00086308D00E8308C000D082000E4002400EA
:1012E0000C082000E3002E0010101A146D30F400DA
:1012F0001730F500973197278931053024008E008B
:10130000080024009501960104309700E73093000F
:10131000C830920013082000DE00240012082000CC
:10132000DD002E0010111A150230F4000030F50017
:1013300097319D27893101302400940008000F3037
:1013400023001005F400083074060319A829A92900
:10135000B2290F301005F4000B307406031DB129BB
:10136000B229B5299115B529B5290F1CB829B92974
:10137000B529BA290C08BC2908009731B52789314D
:101380008A31FE2289318731F42789319731CA2782
:1013900089318831D620893189318121893188315B
:1013A000EC2089319731F2278931893163218931E4
:1013B0009731BD27893108007508803A2000A000C8
:1013C00080302002031DE62902307402031CE92943
:1013D000EA29EE2920009616F129F129200096121B
:1013E000F129741CF429F529F8291616FB29FB2983
:1013F0001612FB29FB2908002000AC01AD01002AD0
:10140000281C032A042A082A2A08AC072B08AD3D09
:101410000130AA35AB0D890B092A0130A936A80C79
:10142000890B0E2A28082904031D172A182A002AC6
:10143000192A2D08A9002C08A8001E2A080000302F
:101440008B1B0130F4002000210830009B0020009D
:10145000200830009A002000220830009C001E174F
:101460001E158B1355309F00AA309F009E14382AFA
:101470009E183B2A3C2A382A1E11740C031C8B131D
:1014800003188B17080001302000CF070030D03D33
:101490003C304F065004031D4E2A4F2A562A013075
:1014A000D1070030D23DCF01D001562A3C30510641
:1014B0005204031D5C2A5D2A642A0130D3070030E0
:1014C000D43DD101D201642A8C1B672A682A6B2A79
:1014D00096176E2A6E2A96136E2A6E2A08007608D0
:1014E0007704031D742A752A792A88314C208A31A1
:1014F000792A6430F6070030F73D7708F100760866
:10150000F0008831C0208A31E830760603300319B4
:101510007706031D8C2A8D2A9A2A97316E278A31E5
:10152000F601F701FC30F0000330F1008831C020F3
:101530008A319A2A080020004D034E04031DA12A77
:10154000A22AAB2ACD01CE010030F000F100883193
:10155000C0208A31C42A2000650A031DB32A660A06
:10156000031DB32AB42ABF2A88313C208A310530B2
:10157000F8000030F9002000E501E601C42A01303E
:10158000C7000030C800C42AFA300032890BC52ACF
:10159000080088318C208A312000221CD02AD12AD0
:1015A000D42A1616D62AD62A1612D62AA21CD92A28
:1015B000DA2ADD2A9616DF2ADF2A9612DF2A221D72
:1015C000E22AE32AEB2AFF30F4000330F5008931E8
:1015D0004A218A31F22A0030F400F50089314A218B
:1015E0008A31F22A2000A21DF62AF72AFA2A961733
:1015F000FD2AFD2A9613FD2AFD2A080020009A01E3
:101600009901960197019801073095000F309100DC
:10161000FF309200FF309300FF309400FF303E0017
:10162000D900C730CE00EF30C3000730E4000F30E0
:10163000B800DA01E501C401B901CF01E601BA0140
:10164000C501D001DB01FF30BB00FF30C600FF3019
:10165000D100FF30DC000730E7000C303D00900087
:101660001330C50014303E00A3001530A400143020
:101670003D00C600080002302000A5000030A60092
:101680000030893132218B3120002108CA00200826
:10169000C90001304A020030031949020318512BD6
:1016A000522B552BA501A601772B02304A020030A0
:1016B0000319490203185D2B5E2B632B0130A50033
:1016C0000030A600772B03304A020030031949028C
:1016D00003186B2B6C2B712B0230A5000030A60079
:1016E000772B0330A5000030A600772B772B260838
:1016F000A4002508A3007C2B08002000A601A31F3E
:10170000822B832B8B2BA209A309A20A0319A30AFC
:10171000A601A60A8B2BA11F8E2B8F2B952BA00920
:10172000A109A00A0319A10A952B20082104031975
:101730009A2B9B2BCA2BA501A50AA82B0130A035FB
:10174000A10D890B9F2B0130A4002408A507A82B0D
:10175000A11FAB2BAC2B9E2BAE2BAE2B2108230253
:10176000031DB42B20082202031CB72BB82BBD2B62
:101770002008A2022108A33BBD2B0130A136A00CFA
:10178000890BBE2B0130A502031DC72BC82BAE2B26
:10179000CA2BCA2B26080319CE2BCF2BD52BA20977
:1017A000A309A20A0319A30AD52B2308A100220822
:1017B000A000DA2B0800F500750823008C00901FAC
:1017C000E22BE32BE62B382C382C382C0F3010056D
:1017D000F400083074060319EE2BEF2B0A2C0F309F
:1017E0001005F4000B3074060319F72BF82B0A2CA4
:1017F0001016FA2B2E000F1CFE2BFF2BFA2B2300AA
:101800000F19032C042C382C0F08382C382C382CAA
:10181000382C382C0F301005F400083074060319EA
:10182000122C132C1E2C0F301005F4000B307406F4
:10183000031D1B2C1C2C382C1E2C1E2C0F18212C8D
:10184000222C1E2C252C252C252C0F0C890C013923
:10185000F40011081F397404031D2F2C302C252C83
:101860001108382C382C382C382C382C382C382CA3
:101870000800780A031D412C790A0319402C412CD9
:10188000A12C200045084604031D472C482C892C18
:101890005D2C5D2C1616702C702C9616702C702CEE
:1018A000FC30F0000330F1008831C0208C31702C06
:1018B00020009617702C702C702C7908003A0319B0
:1018C000622C702C7808023A03194A2C013A031949
:1018D0004D2C073A0319502C013A0319582C702C3F
:1018E00001302000C5000030C600A12C892C161242
:1018F0009C2C9C2C96129C2C9C2C0030F000F1000F
:101900008831C0208C319C2C200096139C2C9C2C60
:101910009C2C7908003A03198E2C9C2C7808023AEA
:101920000319772C013A03197A2C073A03197D2CF5
:10193000013A0319842C9C2C2000C501C601A12C5E
:10194000A12C08002000A501A11FA72CA82CB02CB9
:10195000A009A109A00A0319A10AA501A50AB02C92
:10196000A31FB32CB42CBE2CA209A309A20A0319ED
:10197000A30A0130F4007408A506BE2CA601A70135
:10198000200821040319C52CC62CFB2CA401A40A91
:10199000D32C0130A035A10D890BCA2C0130F400E5
:1019A0007408A407D32CA11FD62CD72CC92CD92C52
:1019B000D92C0130A635A70D890BDA2C210823027A
:1019C000031DE42C20082202031CE72CE82CEE2C3B
:1019D0002008A2022108A33B2614EE2C0130A136D8
:1019E000A00C890BEF2C0130A402031DF82CF92C5C
:1019F000D92CFB2CFB2C25080319FF2C002D062DC0
:101A0000A609A709A60A0319A70A062D2708A100F7
:101A10002608A0000B2D08006530F4007030F5009A
:101A20009731D7278D312000A000A1012008A40004
:101A30002108A5006430F4007030F5009731D727F5
:101A40008D312000A000A1012008A2002108A300E0
:101A500014302406250403192E2D2F2D412D230883
:101A60002506031D352D22082406031D382D392D8A
:101A7000792D14302406250403193F2D402D792D8E
:101A8000412D2508803AA00080302002031D4A2DF8
:101A90001530240203184D2D4E2D792D20002308DA
:101AA000803AA00080302002031D582D15302202FC
:101AB00003185B2D5C2D792D6630F4007030F50035
:101AC0009731D7278D312000A000A1012008D30035
:101AD0002108D4006730F4007030F5009731D72723
:101AE0008D312000A000A1012008D1002108D200E2
:101AF000792D08007930F4007030F5009731D72740
:101B00008D312000A600A7012608E9002708EA0079
:101B10007830F4007030F5009731D7278D312000F0
:101B2000A600A7012608E7002708E8002508803A54
:101B3000A6006A08803A2602031DA02D6908240227
:101B40000318A32DA42DB42D20002308803AA6004D
:101B50006808803A2602031DAF2D67082202031C85
:101B6000B22DB32DBA2DB42D01302000CD000030A0
:101B7000CE00BA2D20004D034E04031DC02DC12DF3
:101B8000D92D4B084C04031DC62DC72DD92D6B0331
:101B90006C04031DCC2DCD2DD92D883130208D31F5
:101BA00097317D278D3101302000CB000030CC00F3
:101BB000F02D4D084E04031DDE2DDF2DF02D4B03BF
:101BC0004C04031DE42DE52DF02D0030F400F5004C
:101BD00089314A218D312000CB01CC01F02DF02D2F
:101BE0000800DC2E88318C208D310430F800003064
:101BF000F90005302000E5000030E600F42E6630E4
:101C0000F4007030F5009731D7278D312000A70000
:101C1000A8012708A9002808AA002A08A300290863
:101C2000A2008A31C9228D3102302000E500003047
:101C3000E600F42E0A30A0000030A1006730F40066
:101C40007030F5009731D7278D312000A700A8010B
:101C50002708A2002808A3008B317D238D312000A6
:101C60002108AA002008A9002A08A3002908A20028
:101C70008A31C9228D3103302000E5000030E600B2
:101C8000F42E6730F4007030F5009731D7278D318E
:101C90002000A700A8012708A9002808AA002A08F0
:101CA000A3002908A2008A31C9228D310430200006
:101CB000E5000030E600F42E2A08A3002908A2005F
:101CC0008A31C9228D3105302000E5000030E60060
:101CD000F42E0730E5000030E60088318C208D318D
:101CE0000330F8000030F900F42E07302000E50042
:101CF0000030E60088318C208D310330F800003050
:101D0000F900F42E88318C208D310230F80000303B
:101D1000F9000A302000E5000030E600F42E88319A
:101D20008C208D31FF30F800FF30F9007830F4005E
:101D30007030F5009731D7278D312000A700A8011A
:101D40002708A9002808AA002A08A3002908A20039
:101D50008A31C9228D3109302000E5000030E600CB
:101D6000F42E0A30E5000030E600F42E88318C2095
:101D70008D31FF30F800FF30F900FF302000E50022
:101D8000FF30E600F42E88318C208D31FF30F800D2
:101D9000FF30F900FF302000E500FF30E600F42EB0
:101DA00088318C208D310330F8000030F900F42E9A
:101DB0002000E501E601F42E20006608003A031930
:101DC000E52EFF3A0319EF2EF42E650884000C303F
:101DD00004020318F42E88310435183E8200650889
:101DE000FF3A0319D02EF42E08001C2F0630840071
:101DF00098308500003F2000B800013FB900302F27
:101E00000430840098308500003FB800013FB900DD
:101E1000302F0230840098308500003FB800013F29
:101E2000B900302F0030840098308500003FB800A2
:101E3000013FB900302F302F20003308003A03193A
:101E4000222F302F3208003A0319F62E013A0319D7
:101E5000002F033A0319092F013A0319122F302FCB
:101E6000300831040319352F362F832F2F08F50042
:101E70002E08F4009731D7278E310A3E2000BA0091
:101E8000003003180130BB003B08803AB400390829
:101E9000803A3402031D4E2F38083A02031C512F9A
:101EA000522F632F0A302000A0000030A1003B0811
:101EB000A3003A08A2008B317D238E312000210837
:101EC000BB002008BA0020002F08A1002E08A000A7
:101ED0003A08B4003408A2008A311F228E310A3039
:101EE0002000A0000030A1003B08A3003A08A20097
:101EF0008C31A2248E3120002108AF002008AE00D2
:101F0000FF2FFF2FFF2F2F08F5002E08F400973129
:101F1000D7278E31013E2000BA000030031801306F
:101F2000BB003A08FF3EB600FF303B3DB7003B0820
:101F3000803AB4003908803A3402031DA12F3808D2
:101F40003A02031CA42FA52FA92F2000BA01BB0120
:101F5000ED2F0A302000A0000030A1003708A300B8
:101F60003608A2008C31A2248E3120002008B40053
:101F70002108B5000A30A0000030A1003B08A300F2
:101F80003A08A2008C31A2248E31200021083506A7
:101F9000031DCC2F200834060319CF2FD02FED2F8F
:101FA0000A30A0000030A1003708A3003608A200C4
:101FB0008C31A2248E3120002108A9002008A8001D
:101FC0000A30AA000030AB008931FC218E3120009C
:101FD0002908BB002808BA00ED2F2F08A1002E0801
:101FE000A0003A08B4003408A2008A311F228E31C2
:101FF00020003B08AF003A08AE00FF2FFF2F08007B
:102ED800080008002400141008002400141008003A
:102EE80025009417080025009413080025008E1764
:102EF800080024001414080024000E140800973158
:102F080074279731080097317727973108002E00EA
:102F18000C109731E4279731080075082000E0006D
:102F28007408DF00080075082000E2007408E1005A
:102F3800080075082000DC007408DB00080075082C
:102F48002000DA007408D90008006400800101310B
:102F5800890BAA2F0034FE0012001E00FE0BB02FB2
:102F680000342F0096019701980199019A019B015D
:102F780008002E000C100B146C30F4001730F5000C
:102F88009731912797312E001614080080302700BA
:102F98008E007C308D00C0308C0024001F08F3396F
:102FA80004389F000800750830009B0074089A00D8
:102FB8001E171E140000000030001C08E32F080034
:102FC80020005F0860040319EA2FEB2FF12F600837
:102FD8008A005F080A009731F12F080001302500A8
:102FE80090008F019101F9308D008C012E00901016
:102FF800903025008E000800043400343234003448
:103008003C340034183400340234003403340034BF
:020000040001F9
:0A000E00EC3FFF3F9F3FFF3FFF3F25
:00000001FF
