:020000040000FA
:0400000080312928FA
:100008007E1480312E00161C0A280B2813280C1C7D
:100018000E280F28132882319622803127280B1F9B
:100028001628172827281A1C1A281B282728101CC6
:100038001E281F2827288131E621803127282728D4
:100048002728272827287E10090080312B28FA0125
:10005800FB012000A001A101A201A301A401A501A7
:10006800A601A7017E10200080313A28823129227A
:1000780080318B170B177C30F2000130F30082318E
:100088008A2280314E30F2000230F3008231902211
:1000980080312000AE01AF0151289E3084008230AB
:1000A8008500003FF200013FF3007B08F5007A0865
:1000B800F4008031AB20803172087304031D652879
:1000C8006628762881310821803177082000AF0022
:1000D8007608AE002F08F3002E08F2008131A9211E
:1000E800803176289E30840082308500003FF200FF
:1000F800013FF3007B08F5007A08F4008031AB205B
:10010800803186289E30840082308500003FF200CE
:10011800013FF3007B08F5007A08F4008031AB203A
:100128008031023072067304031D9B289C285128D5
:10013800200022032304031DA228A32851281617F0
:100148005128512851285128512880312928F8014F
:10015800F51FAF28B028B828F409F509F40A0319DF
:10016800F50AF801F80AB828F31FBB28BC28C228EA
:10017800F209F309F20A0319F30AC2287208730490
:100188000319C728C828F728F701F70AD528013026
:10019800F235F30D890BCC280130F6007608F70705
:1001A800D528F31FD828D928CB28DB28DB287308C3
:1001B8007502031DE12872087402031CE428E5286F
:1001C800EA287208F4027308F53BEA280130F3368E
:1001D800F20C890BEB280130F702031DF428F528EF
:1001E800DB28F728F72878080319FB28FC280229B8
:1001F800F409F509F40A0319F50A02297508F30048
:100208007408F200072908000230F8000030F900ED
:10021800003082311422813173082000A100720855
:10022800A0000130210200300319200203181D2903
:100238001E292129F801F901432902302102003041
:1002480003192002031829292A292F290130F80027
:100258000030F9004329033021020030031920023D
:100268000318372938293D290230F8000030F900F1
:1002780043290330F8000030F9004329432979085D
:10028800F7007808F6004829080020009A0199012B
:10029800960197019801073095000F309100FF30C3
:1002A8009200FF309300FF309400FF303E00D900E9
:1002B800DF30CE00EF30C3000730E4000F30B80065
:1002C800DA01E501C401B901CF01E601BA01C501AE
:1002D800D001DB01FF30BB00FF30C600FF30D1008A
:1002E800FF30DC000730E7000C303D0090000800CC
:1002F8000130FA070030FB3D3C307A067B04031DD1
:10030800862987298F2901302000A4070030A53DC0
:10031800FA01FB018F293C30200024062504031D27
:10032800962997299E290130A6070030A73DA401E8
:10033800A5019E298C1BA129A229A5299617A829C0
:10034800A8299613A829A82908007308803AF40058
:1003580080307402031DB22902307202031CB529D1
:10036800B629BA2920009616BD29BD292000961263
:10037800BD29721CC029C129C4291616C729C72935
:100388001612C729C729080024008F0190010430DC
:10039800910086308D00E8308C000D082000AD00FB
:1003A80024000C082000AC002E0010101A14A030F5
:1003B800F2000230F30082318A22813105302400B4
:1003C8008E0008002E00101020002D08F1002C08C7
:1003D800F00082313C22813120002A082B040319C5
:1003E800F629F729FD292B088A002A080A008131F5
:1003F800FD29080022008E018F01900191019201D0
:1004080093018D0121009E019B01940195019601A4
:1004180097019A0199019801843093009D01080081
:10042800F500750821009E0093171313131400009C
:100438001D2A21001318212A222A1D2A232A0D08E1
:10044800F3000C08F200282A080082318222823147
:100458008131492182318231792282318131FE21F3
:1004680082318131C821823182316C228231080087
:1004780024000E1D402A412A482A0E1071088D00BA
:1004880070088C000E144D2A71088D0070088C00BD
:100498004D2A080020000C1B522A532A562A1617E8
:1004A800592A592A1613592A592AFA300032890B1F
:1004B8005A2A08002000280829040319642A652AF2
:1004C8006B2A29088A0028080A0082316B2A08004A
:1004D8002E000C100B14A130F2000230F300823110
:1004E800902282312E0016140800623031008D00EF
:1004F8008F01910102309300920108002F009601AC
:100508009701980199019A019B010800730820003E
:10051800AB007208AA00080073082000A90072083E
:10052800A80008002E000C1082315E2282310800DB
:0C053800023400340334003408000800D2
:020000040001F9
:0A000E00EC3FFF3F9F3FFF3FFF3F25
:00000001FF
