:020000040000FA
:0400000080313628ED
:100008007E1480312E00161C0A280B2813280C1C7D
:100018000E280F28132887314927803134280B1FD1
:100028001628172834281A1D1A281B282328101DBB
:100038001E281F28232886314926803134281A1C77
:10004800262827283428101C2A282B2834288631CB
:100058006026803134283428342834283428342839
:100068007E1009008031382887314F278031D80029
:10007800873150278031D900873151278031DA0004
:10008800873152278031DB00FA01FB01C601C70125
:10009800C801C901CA01CB01CC01CD01CE01CF01F4
:1000A800D001D1017E1020008331902B65302000D3
:1000B800A0007030A1008631C72680312000A8003A
:1000C800A9012808C0002908C1006430A0007030C8
:1000D800A1008631C72680312000A800A901280880
:1000E800C2002908C3004008410403197C287D2860
:1000F800AB2843084106031D83284208400603191C
:10010800862887288F28143040064104031D8D282F
:100118008E28AB288F284108803AA8008030280212
:10012800031D98281530400203189B289C28AB28EB
:1001380020004308803AA80080302802031DA62822
:1001480015304202031CA928AA28F228AB2820004F
:10015800C001C101C201C3016530A0007030A10017
:100168004008A8002808A20085317E258031643027
:100178002000A0007030A1004208A8002808A200B2
:1001880085317E25803170302000A0007030A100BC
:10019800A20185317E2580316C302000A0007030AE
:1001A800A100A20185317E2580317A302000A0008F
:1001B8007030A100C830A8002808A20085317E252B
:1001C800803176302000A0007030A1000530A800F2
:1001D8002808A20085317E258031F22887315727EB
:1001E800803120005108BD005008BC004F08BF00F6
:1001F8004E08BE004D08BB004C08BA0087315A278C
:10020800803166302000A0007030A1003C08A800B2
:100218002808A20085317E25803167302000A000A3
:100228007030A1003E08A8002808A20085317E256C
:1002380080312000B201B301B401B5014008410486
:1002480003192729282949294208033EA0007030AC
:10025800433DA1008631C72680312000A800A901AE
:100268002808B2002908B3004208023EA0007030F6
:10027800433DA1008631C72680312000A800A9018E
:100288002808B4002908B500492933082506031DA4
:100298004F2932082406031D522953295E2935089F
:1002A8002706031D59293408260603195C295D29E8
:1002B80065295E2940084104031D632964296C29C6
:1002C800652940084104031D6A296B29022A6C2903
:1002D800B601B7014308803AA80080302802031D00
:1002E800772913304202031C7A297B297F292000B1
:1002F800B601B701872920004208013EB600003048
:10030800433DB7008729B801B9014108803AA800E0
:1003180080302802031D92291430400203189529C1
:1003280096299E2920004008013EB8000030413D32
:10033800B900A42920004108B9004008B800A42940
:100348006430A0007030A1003608A8002808A20078
:1003580085317E25803165302000A0007030A100F5
:100368003808A8002808A20085317E2580312000A1
:100378004208003EA0007030433DA1003C08A800A0
:100388002808A20085317E25803120004208013EE0
:10039800A0007030433DA1003E08A8002808A20034
:1003A80085317E25803120004208023EA000703051
:1003B800433DA1003A08A8002808A20085317E25FF
:1003C800803120004208033EA0007030433DA10068
:1003D8002608A8002808A20085317E258031200043
:1003E8004208043EA0007030433DA1002408A80044
:1003F8002808A20085317E258031022A703020002D
:10040800A0007030A1008631C72680312000A800E6
:10041800A9012808AA002908AB006C30A000703098
:10042800A1008631C72680312000A800A90128082C
:10043800AC002908AD007A30A0007030A1008631E8
:10044800C72680312000A800A9012808AE00290885
:10045800AF007630A0007030A1008631C726803109
:100468002000A800A9012808B0002908B100270821
:10047800803AA8002B08803A2802031D452A2A083A
:100488002602031C482A492A862AD3302000A000C5
:10049800E030A1003C08A8002808A20085317E258C
:1004A80080316E302000A0007030A1003E08A80006
:1004B8002808A20085317E2580316F302000A000F9
:1004C8007030A1003A08A8002808A20085317E25CE
:1004D800803170302000A0007030A1002608A800EC
:1004E8002808A20085317E25803171302000A000C7
:1004F8007030A1002408A8002808A20085317E25B4
:100508008031862A20002508803AA8002D08803AE4
:100518002802031D912A2C082402031C942A952AD8
:10052800D22ACE302000A000E030A1003C08A8006C
:100538002808A20085317E25803169302000A0007E
:100548007030A1003E08A8002808A20085317E2549
:1005580080316A302000A0007030A1003A08A8005D
:100568002808A20085317E2580316B302000A0004C
:100578007030A1002608A8002808A20085317E2531
:1005880080316C302000A0007030A1002408A80041
:100598002808A20085317E258031D22A20002F0824
:1005A800803AA8002708803A2802031DDD2A260879
:1005B8002E02031CE02AE12A1E2BDD302000A000B9
:1005C800E030A1003C08A8002808A20085317E255B
:1005D800803178302000A0007030A1003E08A800CB
:1005E8002808A20085317E25803179302000A000BE
:1005F8007030A1003A08A8002808A20085317E259D
:1006080080317A302000A0007030A1002608A800B0
:100618002808A20085317E2580317B302000A0008B
:100628007030A1002408A8002808A20085317E2582
:1006380080311E2B20003108803AA8002508803A16
:100648002802031D292B24083002031C2C2B2D2BD8
:100658006A2BD8302000A000E030A1003C08A80098
:100668002808A20085317E25803173302000A00043
:100678007030A1003E08A8002808A20085317E2518
:10068800803174302000A0007030A1003A08A80022
:100698002808A20085317E25803175302000A00011
:1006A8007030A1002608A8002808A20085317E2500
:1006B800803176302000A0007030A1002408A80006
:1006C8002808A20085317E2580316A2B2000270862
:1006D800803AA8005908803A2802031D752B58084B
:1006E80026020318782B792B892B20002508803ABD
:1006F800A8005B08803A2802031D842B5A082402AC
:10070800031C872B882B8F2B892B01302000CA00D4
:100718000030CB008F2B08008531C32583318B1720
:100728000B1752302000A0000530A10087313D276B
:1007380083312F302000A0000730A10087314327E4
:100748008331E7302000A0000430A100873137272B
:10075800833187315D2783312000C401C501B42B63
:100768000130CC070030CD3D6B30840087308500E8
:10077800003FA000013FA1004D08A3004C08A200C3
:10078800843147248331200020082104031DCD2B08
:10079800CE2BDE2B8431A524833120002508C5000B
:1007A8002408C4004508A1004408A0008531A325F9
:1007B8008331DE2B6B30840087308500003F2000BA
:1007C800A000013FA1004D08A3004C08A2008431FD
:1007D80047248331EF2B6B30840087308500003F3E
:1007E8002000A000013FA1004D08A3004C08A20072
:1007F8008431472483310230200020062104031D60
:10080800062C072CB42B4508A5004408A400143076
:10081800A6000030A70080315A20833120004A0307
:100828004B04031D182C192C2B2C48084904031DB4
:100838001E2C1F2C2B2C873153278331873160279F
:10084800833101302000C8000030C900B42B4A08A9
:100858004B04031D302C312CB42B48034904031DD1
:10086800362C372CB42B0030A000A100863130265E
:1008780083312000C801C901B42BB42BB42BB42B8D
:10088800B42B803136282000A601A31F4C2C4D2CF8
:10089800552CA209A309A20A0319A30AA601A60AAC
:1008A800552CA11F582C592C5F2CA009A109A00A6E
:1008B8000319A10A5F2C200821040319642C652C54
:1008C800942CA501A50A722C0130A035A10D890B25
:1008D800692C0130A4002408A507722CA11F752CCF
:1008E800762C682C782C782C21082302031D7E2C6A
:1008F80020082202031C812C822C872C2008A202AB
:100908002108A33B872C0130A136A00C890B882C29
:100918000130A502031D912C922C782C942C942C38
:1009280026080319982C992C9F2CA209A309A20A1E
:100938000319A30A9F2C2308A1002208A000A42CB5
:10094800080002302000A6000030A70000308631E1
:100958001726843120002108C7002008C60001306E
:1009680047020030031946020318BB2CBC2CBF2CCD
:10097800A601A701E12C0230470200300319460204
:100988000318C72CC82CCD2C0130A6000030A700B6
:10099800E12C033047020030031946020318D52C16
:1009A800D62CDB2C0230A6000030A700E12C033047
:1009B800A6000030A700E12CE12C2708A500260896
:1009C800A400E62C08007A087B04031DEC2CED2C0F
:1009D800F12C8631D7268431F12C6430FA070030A7
:1009E800FB3D7B08F1007A08F00086318D268431C2
:1009F800E8307A06033003197B06031D042D052D04
:100A08001E2D873166278431FA01FB010030F00082
:100A1800F10086318D268431F401F501FC30F000B7
:100A28000330F10086318D2684310130F40700301F
:100A3800F53D1E2D080020009A01990196019701A5
:100A48009801073095000F309100FF309200FF3079
:100A58009300FF309400FF303E00D900DF30CE0015
:100A6800EF30C3000730E4000F30B800DA01E501C9
:100A7800C401B901CF01E601BA01C501D001DB010A
:100A8800FF30BB00FF30C600FF30D100FF30DC0074
:100A98000730E7000C303D009000080001302000CE
:100AA800CC070030CD3D3C304C064D04031D5D2D78
:100AB8005E2D652D0130CE070030CF3DCC01CD0134
:100AC800652D3C304E064F04031D6B2D6C2D732D88
:100AD8000130D0070030D13DCE01CF01732D8C1BE2
:100AE800762D772D7A2D96177D2D7D2D96137D2DBC
:100AF8007D2D080000308B1B01302000A300210849
:100B080030009B002000200830009A0020002208B6
:100B180030009C001E171E158B1355309F00AA30FD
:100B28009F009E14972D9E189A2D9B2D972D1E1170
:100B38002000230C031C8B1303188B1708002000BC
:100B48002108803AA20080302202031DAD2D023018
:100B58002002031CB02DB12DB52D20009616B82DFE
:100B6800B82D20009612B82D201CBB2DBC2DBF2DF2
:100B78001616C22DC22D1612C22DC22D080087319D
:100B88002727853185311F25853187311E278531F6
:100B98008731112785318631772685318531DF25E3
:100BA80085318631E72685318531FB2585318631CA
:100BB800F526853108002400950196010430970038
:100BC800E7309300C83092001308F7001208F600C7
:100BD8002E0010111A156D302000A0000730A1005A
:100BE800873137278531013024009400080024001C
:100BF8008F0190010430910086308D00E8308C0020
:100C08000D08F9000C08F8002E0010101A146E30A8
:100C18002000A0000730A10087313D27853105302D
:100C280024008E0008002000A300230821009E0055
:100C38009317131313140000212E21001318252EC7
:100C4800262E212E272E0D082000A10021000C0899
:100C58002000A0002F2E080020002108A300200853
:100C6800A200A336A20CA336A20C220827008D00EE
:100C7800200020080339A2000530A235FF3E031DDD
:100C8800412E223527008C0008002E00101177080D
:100C9800F1007608F0008631A3268631200052083C
:100CA80053040319582E592E5F2E53088A005208F0
:100CB8000A0086315F2E08002E0010107908F10016
:100CC8007808F0008631B52686312000560857048A
:100CD80003196F2E702E762E57088A0056080A00C0
:100CE8008631762E080022008E018F019001910135
:100CF800920193018D0121009E019B0194019501B0
:100D0800960197019A0199019801843093009D01F9
:100D180008007108F3007008F200F336F20CF3369D
:100D2800F20C720827008D0070080339F2000530B4
:100D3800F235FF3E031D9C2E72358C0008002400FE
:100D4800141DA72EA82EAF2E14107108930070083A
:100D580092001414B42E7108930070089200B42EF7
:100D6800080024000E1DB92EBA2EC12E0E107108CF
:100D78008D0070088C000E14C62E71088D00700846
:100D88008C00C62E08002000210830009B0020009F
:100D9800200830009A001E171E14000000003000C2
:100DA8001C08D62E080055303D008F00AA308F0051
:100DB8000F100E303E00960055303D008F00AA30CF
:100DC8008F000F1408000130250090008F01910159
:100DD800F9308D008C012E009010903025008E0087
:100DE80008002E000C100B146F302000A0000730F4
:100DF800A1008731432786312E00161408002000F1
:100E0800540855040319092F0A2F102F55088A0072
:100E180054080A008731102F0800803027008E0000
:100E28007C308D00C0308C0024001F08F339043852
:100E38009F000800623031008D008F01910102305F
:100E48009300920108002F009601970198019901DB
:100E58009A019B0108002000CA01CB01FA30003238
:100E6800890B332F080020002108D3002008D20066
:100E7800080020002108D7002008D600080020001C
:100E88002108D5002008D40008002E000C10873156
:100E98000327873108001E340034023400348731B8
:100EA80063278731080024000E10080024000E1460
:100EB8000800240014100800240014140800250059
:100EC8008E1708002400141008000234003403347C
:080ED8000034080008000800C6
:020000040001F9
:0A000E00EC3FFF3F9F3FFF3FFF3F25
:00000001FF
