:020000040000FA
:1000000080317928080008007E1480312E00161CEB
:100010000A280B2813280C1C0E280F2813289831A7
:100020008220803177280B1F162817287728991CE3
:100030001A281B2821288F1C1E281F2821287728D2
:100040007728191C242825282B280F1C2828292824
:100050002B2877287728191E2E282F283A280F1E9C
:10006000322833283A28230029088A0028080A0061
:1000700080317728991E3D283E2849288F1E412827
:1000800042284928230027088A0026080A008031D0
:1000900077289A1D4C284D285528901D5028512806
:1000A000552899315921803177281A1D5828592807
:1000B0006128101D5C285D2861289A314F2280310B
:1000C00077281A1C642865287728101C6828692856
:1000D00077289A3137228031772877287728772830
:1000E00077287728772877287728772877287E1029
:1000F000090080317B28F630840098308500E43098
:100100008600003087000C3098318E2080316030BE
:100110008400003085000B30983188208031CD304C
:1001200084000030850017309831882080312030DD
:1001300084000130850048309831882080317E105D
:1001400020009331662B220023082100AB002200FF
:1001500022082100AA00FD30993199218031220026
:1001600022089931992180319B2E21005D08993117
:100170009921803121005B0899319921803121003A
:100180005908993199218031AE2E2200250821008D
:10019000B900220024082100B8002200270821000D
:1001A000B500220026082100B40022002908210001
:1001B000B100220028082100B000B91BE028E12886
:1001C00013293908803AA80080302802031DEA2844
:1001D000183038020318ED28EE2813292100B51B2A
:1001E000F228F32813293508803AA8008030280225
:1001F000031DFC283C3034020318FF280029132972
:100200002100B11B0429052913293108803AA800CF
:1002100080302802031D0E293C303002031C1129B6
:10022000122918291329FF30993199218031AE2ED6
:10023000220025082100DE00220024082100DD0024
:10024000220027082100DC00220026082100DB0014
:10025000220029082100DA00220028082100D90004
:100260006730A0007030A100220024082100A800FF
:100270002808A2009B314C23803168302100A00067
:100280007030A100220026082100A8002808A20042
:100290009B314C2380310030993199218031AE2E31
:1002A000AE2E210053089931992180312100510847
:1002B000993199218031AE2E21006C089931992114
:1002C000803121006E08993199218031AE2E2200B3
:1002D00025082100B900220024082100B800B91B1C
:1002E0007229732981293908803AA80080302802B0
:1002F000031D7C2964303802031C7F29802986294C
:100300008129FF30993199218031AE2E22002508B4
:100310002100ED00220024082100EC00003099317A
:1003200099218031AE2EAE2E220025082100B90081
:10033000220024082100B800B91B9F29A029AE295A
:100340003908803AA80080302802031DA9293D30D1
:100350003802031CAC29AD29B329AE29FF309931ED
:1003600099218031AE2E220025082100EF002200C5
:1003700024082100EE000030993199218031AE2E01
:10038000AE2E21006608993199218031210068083C
:1003900099319921803121006A0899319921803160
:1003A000AE2E220025082100B900220024082100D9
:1003B000B800220027082100B500220026082100ED
:1003C000B400B91BE429E529052A3908803AA800B8
:1003D00080302802031DEE29333038020318F1293A
:1003E000F229052A2100B51BF629F729052A350827
:1003F000803AA80080302802031D002A043034020D
:10040000031C032A042A0A2A052AFF30993199215C
:100410008031AE2E220025082100E70022002408AA
:100420002100E600220027082100E900220026081A
:100430002100E8007E30A0007030A10022002608D4
:100440002100A8002808A2009B314C2380317D3078
:100450002100A0007030A100220024082100A80083
:100460002808A2009B314C2380310030993199211A
:100470008031AE2EAE2E220025082100B9002200C8
:1004800024082100B800380839040319482A492AE9
:10049000542A3803390403194E2A4F2A542AFF30AC
:1004A000993199218031AE2E220025082100EB00E0
:1004B000220024082100EA0000309931992180317E
:1004C000AE2EAE2E6E302100A6007030A7009931FE
:1004D000792180312100A800A9012808BC00290841
:1004E000BD003C089931992180316F302100A60070
:1004F0007030A7009931792180312100A800A9012D
:100500002808BC002908BD003C0899319921803198
:1005100070302100A6007030A70099317921803118
:100520002100A800A9012808BC002908BD003C083A
:1005300099319921803171302100A6007030A700D7
:100540009931792180312100A800A9012808BC0037
:100550002908BD003C089931992180317230210071
:10056000A6007030A7009931792180312100A800C0
:10057000A9012808BC002908BD003C08993199212F
:10058000803169302100A6007030A70099317921AF
:1005900080312100A800A9012808BC002908BD005D
:1005A0003C089931992180316A302100A6007030D1
:1005B000A7009931792180312100A800A9012808DC
:1005C000BC002908BD003C089931992180316B306D
:1005D0002100A6007030A7009931792180312100D7
:1005E000A800A9012808BC002908BD003C089931D1
:1005F000992180316C302100A6007030A70099311C
:10060000792180312100A800A9012808BC0029080F
:10061000BD003C089931992180316D302100A60040
:100620007030A7009931792180312100A800A901FB
:100630002808BC002908BD003C0899319921803167
:1006400078302100A6007030A700993179218031DF
:100650002100A800A9012808BC002908BD003C0809
:1006600099319921803179302100A6007030A7009E
:100670009931792180312100A800A9012808BC0006
:100680002908BD003C089931992180317A30210038
:10069000A6007030A7009931792180312100A8008F
:1006A000A9012808BC002908BD003C0899319921FE
:1006B00080317B302100A6007030A700993179216C
:1006C00080312100A800A9012808BC002908BD002C
:1006D0003C089931992180317C302100A60070308E
:1006E000A7009931792180312100A800A9012808AB
:1006F000BC002908BD003C08993199218031733034
:100700002100A6007030A7009931792180312100A5
:10071000A800A9012808BC002908BD003C0899319F
:100720009921803174302100A6007030A7009931E2
:10073000792180312100A800A9012808BC002908DE
:10074000BD003C0899319921803175302100A60007
:100750007030A7009931792180312100A800A901CA
:100760002808BC002908BD003C0899319921803136
:1007700076302100A6007030A700993179218031B0
:100780002100A800A9012808BC002908BD003C08D8
:1007900099319921803177302100A6007030A7006F
:1007A0009931792180312100A800A9012808BC00D5
:1007B0002908BD003C08993199218031AE2E713055
:1007C0002100A0007030A100A2019B314C23803198
:1007D0006D302100A0007030A100A2019B314C239C
:1007E00080317B302100A0007030A100C830A8000B
:1007F0002808A2009B314C23803177302100A000D3
:100800007030A1000530A8002808A2009B314C23BD
:1008100080310030993199218031AE2E14309931D8
:100820009921803166302100A6007030A7009931EF
:100830007921803199319921803165302100A600DC
:100840007030A70099317921803199319921803117
:1008500064302100A6007030A700993179218031E1
:10086000993199218031AE2E220025082100B70050
:10087000220024082100B6006530A6007030A700D1
:100880009931792180312100A800A9012808BA00F6
:100890002908BB006630A6007030A7009931792185
:1008A00080312100A800A9012808B2002908B3005E
:1008B0003308803AA8003708803A2802031D622CCA
:1008C000360832020318652C662C6C2C2100330884
:1008D000B7003208B600752C2100B71F702C712CA0
:1008E000752CB601B701752C752C360899319921F4
:1008F00080312100AC01AD013E2D01302100BA074D
:100900000030BB3D3B08803AA80080302802031D20
:100910008B2C14303A02031C8E2C8F2C932C21002C
:10092000BA01BB01932C21003B08A1003A08A000AA
:100930000530A2000030A3009A31E322803121006B
:100940002008003EA6007030213DA7009931792192
:1009500080312100A800A9012808BC002908BD0099
:100960003C0899319921803121003B08A1003A08C7
:10097000A0000530A2000030A3009A31E3228031AC
:1009800021002008013EA6007030213DA7009931CA
:10099000792180312100A800A9012808BC0029087C
:1009A000BD003C0899319921803121003B08A1000C
:1009B0003A08A0000530A2000030A3009A31E322DB
:1009C000803121002008023EA6007030213DA700A2
:1009D0009931792180312100A800A9012808BC00A3
:1009E0002908BD003C0899319921803121003B083C
:1009F000A1003A08A0000530A2000030A3009A31FF
:100A0000E322803121002008033EA6007030213D02
:100A1000A7009931792180312100A800A901280877
:100A2000BC002908BD003C08993199218031210082
:100A30003B08A1003A08A0000530A2000030A30046
:100A40009A31E322803121002008043EA600703054
:100A5000213DA7009931792180312100A800A90109
:100A60002808BC002908BD003C0899319921803133
:100A700001302100AC070030AD3D3E2D2D08803AFD
:100A8000A8003708803A2802031D482D36082C029A
:100A9000031C4B2D4C2D7D2C4D2D65302100A000CD
:100AA0007030A1003A08A8002808A2009B314C230E
:100AB0008031AE2E220025082100B7002200240834
:100AC0002100B600220027082100BB0022002608D2
:100AD0002100BA006630A6007030A7009931792154
:100AE00080312100A800A9012808B2002908B3001C
:100AF0003308803AA8003708803A2802031D822D67
:100B0000360832020318852D862D8C2D21003308DE
:100B1000B7003208B600952D2100B71F902D912DFA
:100B2000952DB601B701952D952D3608993199214E
:100B300080312100BB1B9D2D9E2DAC2D3B08803AA2
:100B4000A80080302802031DA72D15303A02031C8F
:100B5000AA2DAB2DB02DAC2D2100BA01BB01B02DBB
:100B600021003A089931992180312100AE01AF016D
:100B70007A2E01302100BA070030BB3D3B08803A95
:100B8000A80080302802031DC72D14303A02031C30
:100B9000CA2DCB2DCF2D2100BA01BB01CF2D2100B5
:100BA0003B08A1003A08A0000530A2000030A300D5
:100BB0009A31E322803121002008003EA6007030E7
:100BC000213DA7009931792180312100A800A90198
:100BD0002808BC002908BD003C08993199218031C2
:100BE00021003B08A1003A08A0000530A200003017
:100BF000A3009A31E322803121002008013EA600A3
:100C00007030213DA7009931792180312100A80061
:100C1000A9012808BC002908BD003C089931992188
:100C2000803121003B08A1003A08A0000530A20055
:100C30000030A3009A31E322803121002008023ED7
:100C4000A6007030213DA700993179218031210023
:100C5000A800A9012808BC002908BD003C0899315A
:100C60009921803121003B08A1003A08A0000530FD
:100C7000A2000030A3009A31E32280312100200835
:100C8000033EA6007030213DA700993179218031C3
:100C90002100A800A9012808BC002908BD003C08C3
:100CA00099319921803121003B08A1003A08A00028
:100CB0000530A2000030A3009A31E32280312100E8
:100CC0002008043EA6007030213DA700993179210B
:100CD00080312100A800A9012808BC002908BD0016
:100CE0003C0899319921803101302100AE07003054
:100CF000AF3D7A2E2F08803AA8003708803A2802A4
:100D0000031D842E36082E02031C872E882EB92D33
:100D1000892E65302100A0007030A1003A08A8009B
:100D20002808A2009B314C238031AE2EFF30993130
:100D300099218031AE2E21002B08003A0319A12EF3
:100D4000962E2A08403E031C962E84000E30040284
:100D50000318962E98310435003E8200FE309931FA
:100D6000992180310800CC2F9931AA218631043095
:100D70002100CF000030D0000530E4000030E50055
:100D8000E42F0A30A8000030A9006730A6007030B8
:100D9000A7009931792186312100B300B4013308CD
:100DA000AA003408AB009E3136268631210029087E
:100DB000B6002808B5003608B2003508B1009C31ED
:100DC0009524863102302100E4000030E500E42F54
:100DD0006830A6007030A700993179218631210052
:100DE000B300B4013308B5003408B6000A30A800D7
:100DF0000030A9003608AB003508AA009E319426C1
:100E0000863121002908B2002808B1009C319524C0
:100E1000863103302100E4000030E500E42F0A3081
:100E2000A8000030A9006830A6007030A7009931F2
:100E3000792186312100B300B4013308AA003408B7
:100E4000AB009E313626863121002908B6002808DD
:100E5000B5003608B2003508B1009C3195248631C2
:100E600004302100E4000030E500E42F0530E40008
:100E70000030E5009931AA21863104302100CF00ED
:100E80000030D000E42F0730E4000030E500993155
:100E9000AA21863103302100CF000030D000E42F9A
:100EA0000730E4000030E5009931AA218631033093
:100EB0002100CF000030D000E42F9931AA218631E3
:100EC00002302100CF000030D0000A30E4000030B2
:100ED000E500E42F9931AA218631FF302100CF00AF
:100EE000FF30D0000A30A8000030A9007D30A600F5
:100EF0007030A7009931792186312100B300B40107
:100F00003308AA003408AB009E3136268631210012
:100F10002908B6002808B5003608B2003508B10027
:100F20009C319524863109302100E4000030E50031
:100F3000E42F9931AA21863102302100CF00003000
:100F4000D0000A30E4000030E500E42F9931AA21F6
:100F50008631FF302100CF00FF30D000FF30E400A9
:100F6000FF30E500E42F9931AA218631FF302100BE
:100F7000CF00FF30D000FF30E400FF30E500E42F69
:100F80009931AA21863103302100CF000030D000F2
:100F9000E42FE401E501E42F21006508003A03197C
:100FA000D52FFF3A0319DF2FE42F640884000C309B
:100FB00004020318E42F983104351C3E82006408B3
:100FC000FF3A0319C02FE42F080021002108A300D5
:100FD0002008A200A336A20CA336A20C22082700E8
:100FE0008D00210020080339A2000530A235FF3E04
:100FF000031DF62F223527008C000800080008008A
:10100000220063082000CD00220062082000CC00EE
:10101000220061082000CB00220060082000CA00E6
:101020003D08CD003C08CC003B08CB003A08CA0084
:101030004A08BE004B08BF004C08C0004D08C10064
:101040001730C136C00CBF0CBE0C890B2128FF30F5
:101050003E05C20000303F05C3004208813EC80083
:10106000FF30433DC9004908803ABE0080303E024F
:10107000031D3C2817304802031C3F284028412804
:10108000EE282000C91B45284628A428FF30BE00B2
:10109000FF30BF007F30C0000030C100480A542834
:1010A000C137C00CBF0CBE0C890B50284108C700CB
:1010B0004008C6003F08C5003E08C4004A08440571
:1010C000BE004B084505BF004C084605C0004D0852
:1010D0004705C100410840043F043E04031D712838
:1010E00072287328EE284A08BE004B08BF004C083F
:1010F000C0004D08C1001F30C136C00CBF0CBE0C73
:10110000890B7C28410840043F043E04031D8928C4
:101110008A2893284408CA074508CB3D4608CC3D99
:101120004708CD3D93284409BE004509BF00460944
:10113000C0004709C1003E08CA053F08CB0540086A
:10114000CC054108CD05E5284A08BE004B08BF0084
:101150004C08C0004D08C1001F30C136C00CBF0C88
:10116000BE0C890BAD28410840043F043E0403191E
:10117000BA28BB28C4288030CD000030CC00003015
:10118000CB000030CA00E5284A08BE004B08BF006B
:101190004C08C0004D08C1000130BE35BF0DC00D68
:1011A000C10D890BCD28410840043F043E040319BA
:1011B000DA28DB28E5283F30CD008030CC00003035
:1011C000CB000030CA00E528E5284D08BD004C08DA
:1011D000BC004B08BB004A08BA00EE2808002000FB
:1011E00027088039A8002808B1002735A80028085A
:1011F000B800A61FFC28FD28FF283814FF2838084F
:101200000319032904291529380A031D0829092966
:1012100012290030A7000030A6000030A5000030E1
:10122000A4001229A617A7011E290030A70000302C
:10123000A6000030A5000030A4001E292308803934
:10124000A8002808B1062335A8002808B900A21F65
:101250002A292B292D2939142D2939080319312937
:1012600032294329390A031D3629372940290030FC
:10127000A3000030A2000030A1000030A0004029EF
:10128000A217A3014B290030A3000030A2000030B8
:10129000A1000030A0002308220421042004031D23
:1012A000522953296D290030A7000030A6000030D4
:1012B000A5000030A4008030A6047F30A7043108C8
:1012C000A8002808A7042708A3002608A2002508CC
:1012D000A1002408A000CD2ACD2A3808031D7129B9
:1012E000722984290030A7000030A6000030A50034
:1012F0000030A4002708A3002608A2002508A100AA
:101300002408A000CD2ACD2A3908A800A901A809DF
:10131000A909A80A0319A90A38082807AA00290850
:101320000318290AAB002A087F3EB20000302B3D8B
:10133000B3002708B0002608AF002508AE00240837
:10134000AD000030A7000030A6000030A50000303E
:10135000A4000030B7000030B6000030B500003007
:10136000B400B901F52939080319B729B829D429D6
:101370000130AD35AE0DAF0DB00D890BB92901307F
:10138000A435A50DA60DA70D890BC029B71FC92926
:10139000CA29CC292414CC290130B435B50DB60D99
:1013A000B70D890BCD29D42923083002031DE2296A
:1013B00022082F02031DE22921082E02031DE22923
:1013C00020082D02031CE529E629F02937172008FB
:1013D000AD022108AE3B2208AF3B2308B03BF02909
:1013E0000130A8002808B907F5291A303902031C72
:1013F000FA29FB29B329FC2930082F042E042D04D7
:101400000319032A042A202A3414202A202A01300E
:10141000A435A50DA60DA70D890B082AB71F112A03
:10142000122A142A2414142A0130B435B50DB60D2D
:10143000B70D890B152AFF30B207FF30B33D202AC4
:10144000A61F232A242A072A252AB901B71F292AD9
:101450002A2A4A2AFF303405A800FF303505A900A2
:10146000FF303605AA007F303705AB002B082A0471
:101470002904280403193D2A3E2A412AB901B90A40
:101480004A2A241C442A452A4A2AB901B90A4A2A66
:101490004A2A4A2A390803194E2A4F2A792A013042
:1014A000A4070030A53D0030A63D0030A73D271C15
:1014B0005A2A5B2A792A2408A8002508A9002608A8
:1014C000AA002708AB000130AC00AB37AA0CA90C6E
:1014D000A80CAC0B652A2B08A7002A08A60029082F
:1014E000A5002808A4000130B2070030B33D792AD6
:1014F000792A3308803AA80080302802031D822A06
:10150000FF303202031C852A862A932AFF302000EE
:10151000B2000030B3000030A7000030A600003059
:10152000A5000030A40020003308803AA8008030D5
:101530002802031D9D2A013032020318A02AA12A85
:10154000AD2A2000B201B3010030A7000030A60090
:101550000030A5000030A400B10120003208A8002E
:101560002808B800381CB52AB62AB82AA617BC2AFB
:101570007F30A8002808A6053836A8002808A7004C
:101580003108A8002808A7042708A3002608A200FD
:101590002508A1002408A000CD2A08009C2C993120
:1015A000AA218A310A302100A8000030A900673042
:1015B000A6007030A700993179218A312100C2003C
:1015C000C3014208AA004308AB009E3194268A3129
:1015D00021002908C5002808C4004508B2004408B5
:1015E000B1009C3195248A3101302100E4000030A3
:1015F000E500FF30CF00FF30D000B42C6730B100E1
:101600007030B2000130B3000030B4000030B500DB
:10161000B60096313D268A3121003208C5003108D6
:10162000C4000A30A8000030A9004508AB004408F7
:10163000AA009E3194268A3121002908B200280888
:10164000B1009C3195248A31B42C67302100B1005F
:101650007030B2000030B300B4000030B500B60006
:1016600096313D268A3121003208C5003108C40078
:101670000A30A8000030A9004508AB004408AA00C1
:101680009E3136268A3121002908B2002808B1008F
:101690009C3195248A31B42C68302100B10070301F
:1016A000B2000130B3000030B4000130B5000030AA
:1016B000B60096313D268A3121003208C500310836
:1016C000C4000A30A8000030A9004508AB00440857
:1016D000AA009E3194268A3121002908B2002808E8
:1016E000B1009C3195248A31B42C68302100B100BE
:1016F0007030B2000030B300B4000130B5000030EB
:10170000B60096313D268A3121003208C5003108E5
:10171000C4000A30A8000030A9004508AB00440806
:10172000AA009E3136268A3121002908B2002808F5
:10173000B1009C3195248A31B42C9931AA218A3187
:10174000FF302100CF00FF30D0006A086B0403197E
:10175000AA2BAB2BAF2B20001616B32BB32B2000DC
:101760001612B32BB32B06302100E4000030E50045
:10177000B42C6A036B04031DBE2BBF2BC62BEA01DE
:10178000EB01C22B20001612D02BD02B01302100F0
:10179000EA000030EB00CC2B20001616D02BD02B0B
:1017A00081302100A0007030A1006A08C200420808
:1017B000A2009B314C238A31B42C9931AA218A3161
:1017C0000A302100A8000030A9007D30A60070304A
:1017D000A700993179218A312100C200C301420852
:1017E000AA004308AB009E3194268A3121002908C3
:1017F000C5002808C4004508B2004408B1009C3167
:1018000095248A31FF302100CF00FF30D00008300E
:10181000E4000030E500B42C7D30B1007030B2003F
:101820000130B3000030B4000230B5000030B60023
:1018300096313D268A3121003208C5003108C400A6
:101840000A30A8000030A9004508AB004408AA00EF
:101850009E3194268A3121002908B2002808B1005F
:101860009C3195248A31B42C7D302100B100703038
:10187000B2000030B300B4000230B5000030B60052
:1018800096313D268A3121003208C5003108C40056
:101890000A30A8000030A9004508AB004408AA009F
:1018A0009E3136268A3121002908B2002808B1006D
:1018B0009C3195248A31B42C9931AA218A31FF3088
:1018C0002100CF00FF30D0007E30A6007030A7008E
:1018D000993179218A312100C200C3014208C40034
:1018E0004308C5004508B2004408B1009C31952466
:1018F0008A310B302100E4000030E500B42C7E304A
:10190000B1007030B2000030B300B4000330B50055
:101910000030B60096313D268A3121003208C500DC
:101920003108C4004508B2004408B1009C31952438
:101930008A31B42CB42CB42C21006508003A031968
:10194000A52CFF3A0319AF2CB42C640884000C308A
:1019500004020318B42C90310435003E8200640860
:10196000FF3A0319B42CB42C080066302100A600FD
:101970007030A700993179218C312100AC00AD0184
:101980002C08C4002D08C5006430A6007030A700E4
:10199000993179218C312100AC00AD012C08C600B1
:1019A0002D08C700440845040319D72CD82C062D50
:1019B00047084506031DDE2C460844060319E12CA2
:1019C000E22CEA2C143044064504031DE82CE92CD3
:1019D000062DEA2C4508803AAC0080302C02031D0D
:1019E000F32C153044020318F62CF72C062D210099
:1019F0004708803AAC0080302C02031D012D1530C1
:101A00004602031C042D052D4D2D062D2100C40179
:101A1000C501C601C7016630A0007030A1004408AE
:101A2000AC002C08A2009B314C238C316430210087
:101A3000A0007030A1004608AC002C08A2009B3129
:101A40004C238C3171302100A0007030A100A20124
:101A50009B314C238C316D302100A0007030A100EF
:101A6000A2019B314C238C317B302100A0007030CF
:101A7000A100C830AC002C08A2009B314C238C3153
:101A800077302100A0007030A1000530AC002C0898
:101A9000A2009B314C238C314D2D983163208C3129
:101AA00021005E08C1005D08C0005C08C3005B083F
:101AB000C2005A08BF005908BE00983160208C311E
:101AC00067302100A0007030A1004008AC002C0855
:101AD000A2009B314C238C3168302100A000703073
:101AE000A1004208AC002C08A2009B314C238C3191
:101AF0002100B601B701B801B90144084504031932
:101B0000822D832DA42D4608033EA6007030473D4C
:101B1000A700993179218C312100AC00AD012C084E
:101B2000B6002D08B7004608023EA6007030473DBB
:101B3000A700993179218C312100AC00AD012C082E
:101B4000B8002D08B900A42D37082906031DAA2DB9
:101B500036082806031DAD2DAE2DB92D39082B06EC
:101B6000031DB42D38082A060319B72DB82DC02D32
:101B7000B92D44084504031DBE2DBF2DC72DC02D12
:101B800044084504031DC52DC62D972EC72DBA0147
:101B9000BB014708803AAC0080302C02031DD22DD7
:101BA00013304602031CD52DD62DDA2D2100BA01A3
:101BB000BB01E22D21004608013EBA000030473D3E
:101BC000BB00E22DBC01BD014508803AAC0080306D
:101BD0002C02031DED2D143044020318F02DF12DBD
:101BE000322E21004408013EBC000030453DBD00BE
:101BF0000A303C063D04031DFE2DFF2D382EFD301E
:101C0000993199218C31CE30993199218C31143010
:101C1000993199218C3166302100A6007030A700DF
:101C2000993179218C31993199218C31653021009C
:101C3000A6007030A700993179218C319931992112
:101C40008C3164302100A6007030A70099317921D1
:101C50008C31993199218C31FE30993199218C3117
:101C6000382E382E21004508BD004408BC00382E0F
:101C700064302100A0007030A1003A08AC002C08AC
:101C8000A2009B314C238C3166302100A0007030C3
:101C9000A1003C08AC002C08A2009B314C238C31E5
:101CA00021004608003EA0007030473DA1004008DA
:101CB000AC002C08A2009B314C238C31210046083B
:101CC000013EA0007030473DA1004208AC002C0846
:101CD000A2009B314C238C3121004608023EA0001B
:101CE0007030473DA1003E08AC002C08A2009B319B
:101CF0004C238C3121004608033EA0007030473D44
:101D0000A1002A08AC002C08A2009B314C238C3186
:101D100021004608043EA0007030473DA10028087D
:101D2000AC002C08A2009B314C238C31972E7130D3
:101D30002100A6007030A700993179218C31210053
:101D4000AC00AD012C08AE002D08AF006D30A60030
:101D50007030A700993179218C312100AC00AD01A0
:101D60002C08B0002D08B1007B30A6007030A70011
:101D7000993179218C312100AC00AD012C08B200E1
:101D80002D08B3007730A6007030A7009931792173
:101D90008C312100AC00AD012C08B4002D08B50039
:101DA0002B08803AAC002F08803A2C02031DDA2E53
:101DB0002E082A02031CDD2EDE2E1B2FD53021001B
:101DC000A000E030A1004008AC002C08A2009B312C
:101DD0004C238C316F302100A0007030A1004208EC
:101DE000AC002C08A2009B314C238C3170302100B8
:101DF000A0007030A1003E08AC002C08A2009B316E
:101E00004C238C3171302100A0007030A1002A08D1
:101E1000AC002C08A2009B314C238C317230210085
:101E2000A0007030A1002808AC002C08A2009B3153
:101E30004C238C311B2F21002908803AAC0031083B
:101E4000803A2C02031D262F30082802031C292F5C
:101E50002A2F672FD0302100A000E030A1004008D9
:101E6000AC002C08A2009B314C238C316A3021003D
:101E7000A0007030A1004208AC002C08A2009B31E9
:101E80004C238C316B302100A0007030A1003E0843
:101E9000AC002C08A2009B314C238C316C3021000B
:101EA000A0007030A1002A08AC002C08A2009B31D1
:101EB0004C238C316D302100A0007030A100280827
:101EC000AC002C08A2009B314C238C31672F2100E1
:101ED0003308803AAC002B08803A2C02031D722F85
:101EE0002A083202031C752F762FB32FDF30210012
:101EF000A000E030A1004008AC002C08A2009B31FB
:101F00004C238C3179302100A0007030A1004208B0
:101F1000AC002C08A2009B314C238C317A3021007C
:101F2000A0007030A1003E08AC002C08A2009B313C
:101F30004C238C317B302100A0007030A1002A0896
:101F4000AC002C08A2009B314C238C317C3021004A
:101F5000A0007030A1002808AC002C08A2009B3122
:101F60004C238C31B32F21003508803AAC0029086E
:101F7000803A2C02031DBE2F28083402031CC12FF7
:101F8000C22FFF2FDA302100A000E030A10040086E
:101F9000AC002C08A2009B314C238C317430210002
:101FA000A0007030A1004208AC002C08A2009B31B8
:101FB0004C238C3175302100A0007030A1003E0808
:101FC000AC002C08A2009B314C238C3176302100D0
:101FD000A0007030A1002A08AC002C08A2009B31A0
:101FE0004C238C3177302100A0007030A1002808EC
:101FF000AC002C08A2009B314C238C31FF2F080031
:102000008A31CF2A8A31FE2A8B31252B8B314C2BFA
:102010008B31752B8B319D2B8B31B92B8B31DD2B7C
:102020008C310C2C8C31342C8C315C2C8C317F2CF1
:1020300021004F0A031D2128500A031920282128B6
:102040008728200064086504031D272828286E2897
:102050003F283F28200016165328532820009616A4
:1020600053285328FC30F0000330F1009931F4215B
:1020700090315328200096175328532853282100C5
:102080005008003A0319452853284F08023A03190B
:102090002A28013A03192E28073A03193228013A4F
:1020A00003193A28532801302000E4000030E500ED
:1020B00087286E2820001612822882282000961277
:1020C000822882280030F000F1009931F42190310B
:1020D0008228200096138228822882282100500816
:1020E000003A0319742882284F08023A03195A2823
:1020F000013A03195E28073A03196228013A0319C5
:10210000692882282000E401E50187288728080043
:102110007E302100A6007030A700993179219031DE
:102120002100AC00AD012C08E8002D08E9007D304D
:10213000A6007030A7009931792190312100AC00C0
:10214000AD012C08E6002D08E7002B08803AAC0012
:102150006908803A2C02031DAF2868082A02031878
:10216000B228B328C32821002908803AAC006708A8
:10217000803A2C02031DBE2866082802031CC128D1
:10218000C228CF28C32821006A036B04031DC92875
:10219000CA28CF280130D7000030D800CF2821002E
:1021A00057035804031DD528D628EE285508560491
:1021B000031DDB28DC28EE286A036B04031DE128DD
:1021C000E228EE2898317A20903198315D209031C4
:1021D00001302100D5000030D6001C2957085804D2
:1021E000031DF328F428FB28550356040319F92886
:1021F000FA280829FB286A086B04031D0029012915
:102200001C2957035804031D062907291C290829DE
:1022100057035804031D0D290E291129D701D80190
:1022200011290030A000A1008731E527903121005D
:10223000D501D6011C291C29080020006008610472
:10224000031D23292429272999314921913121006E
:102250006E08F0006F08F100890D893B8909F200D2
:10226000F30001309131BF21913173082000A700A4
:102270007208A6007108A5007008A4003E30A300F3
:102280004C30A200CC30A100CD30A0008831EF202E
:10229000913120002308DD002208DC002108DB004A
:1022A0002008DA004430A7007A30A6000030A500EC
:1022B0000030A4005D08A3005C08A2005B08A10038
:1022C0005A08A0008831EF20913120002308BD007A
:1022D0002208BC002108BB002008BA008831002079
:1022E000913120003D08D1003C08D0003B08CF00D0
:1022F0003A08CE009F316B27913120004F08DF0054
:102300004E08DE005E08E0075F08E13D62086304F6
:10231000031D8B298C299929FC30F0000330F10032
:102320009931F421913101302000E2000030E300C6
:10233000A3290030F000F1009931F42191312000FF
:10234000E201E301A3296108803AD90083305902F0
:10235000031DAC29E8306002031CAF29B029BE2957
:1023600098314E2091312000E001E101FC30F00075
:102370000330F1009931F4219131BE290800F800B1
:1023800078080319C429C529D929F31FC829C929DF
:10239000D9297009FA007109FB007209FC00730960
:1023A000FD00FA0A0319FB0A0319FC0A0319FD0AC6
:1023B000E1297308FD007208FC007108FB00700839
:1023C000FA007308720471047004031DE829E929F6
:1023D000F3290030F3000030F2000030F10000304B
:1023E000F000722A722A9630F4007408F900042A68
:1023F0000130F4007408F9070130FD36FC0CFB0CC9
:10240000FA0C890BFD29042AFE307D05031D092ADB
:102410000A2AF8291F2A1F2A0130F4007408F90734
:102420000130FA070030FB3D0030FC3D0030FD3D3F
:102430000130FD36FC0CFB0CFA0C890B192AFF301D
:102440007D05031D242A252A0C2A312A312A013030
:10245000F9020130FA35FB0DFC0DFD0D890B2A2A1E
:10246000312AFC1B342A352A3C2A0230790203180F
:102470003A2A3B2A272A3C2A79183F2A402A482A06
:10248000FF30FA05FF30FB057F30FC05FF30FD050E
:102490000310F90C7908F400F501F601F701183082
:1024A000F435F50DF60DF70D890B502A7408FA0472
:1024B0007508FB047608FC047708FD047808031906
:1024C000622A632A692AF31F662A672A692AFD1786
:1024D000692A7D08F3007C08F2007B08F1007A0885
:1024E000F000722A080066302100A6007030A700B4
:1024F0009931792192312100A800A9012808AC0066
:102500002908AD006430A6007030A7009931792108
:1025100092312100A800A9012808AA002908AB00CF
:1025200014302C062D040319962A972AA92A2B0861
:102530002D06031D9D2A2A082C06031DA02AA12A68
:10254000282B14302C062D040319A72AA82A282B7F
:10255000A92A2D08803AA80080302802031DB22A3B
:1025600015302C020318B52AB62A282B21002B0877
:10257000803AA80080302802031DC02A15302A02A4
:102580000318C32AC42A282B67302100A600703004
:10259000A7009931792192312100A800A9012808CA
:1025A000DD002908DE006830A6007030A7009931F0
:1025B000792192312100A800A9012808DB0029080F
:1025C000DC007E30A6007030A7009931792192316D
:1025D0002100A800A9012808E8002908E9007D30A9
:1025E000A6007030A7009931792192312100A8000E
:1025F000A9012808E6002908E7008030A60070300D
:10260000A7009931792192312100A800A901280859
:10261000EC002908ED007F30A6007030A70099314A
:10262000792192312100A800A9012808EE0029088B
:10263000EF008130A6007030A700993179219231E6
:102640002100A800A9012808EA002908EB00652B51
:102650007E302100A0007030A1006808A800280882
:10266000A2009B314C2392317D302100A0007030BC
:10267000A1006608A8002808A2009B314C239231D3
:1026800080302100A0007030A1006C08A80028084C
:10269000A2009B314C2392317F302100A00070308A
:1026A000A1006E08A8002808A2009B314C2392319B
:1026B0007F302100A0007030A1006A08A80028081F
:1026C000A2009B314C239231652B08009A31C12224
:1026D00093319931892193312000931513163E00CF
:1026E000CF154F168B170B1798302100A0001B3009
:1026F000A1009831DB20933118302100A000103068
:10270000A1009831ED209331C5302100A0001B308D
:10271000A1009831C92093311D302100A000113053
:10272000A1009831E42093319831512093319831B0
:102730007620933199316921933100302100A00036
:10274000A1008731E527933119302100E6000030E0
:10275000E700923173229331AD2B2100640A031DEF
:10276000B52B650A031DB52BB62B4B2C6D08A900A4
:102770006C08A8005A08AB005908AA009E313626FA
:102780009331210028082904031DC72BC82BE32BF4
:102790009D319F25933121002508D2002408D100C6
:1027A0005208A1005108A0009B310623933100304C
:1027B0002100A800A9005208AB005108AA009031DE
:1027C00088209331E32B21006D08A9006C08A80034
:1027D0005A08AB005908AA009E31362693312100D1
:1027E00028032904031DF52BF62B122C000094312D
:1027F000B42493312100C8004808CA004A08C80020
:10280000C9014808D3004908D40000002100540839
:10281000A9005308A8000030AA00AB00903188201E
:102820009331122C21006D08A9006C08A8005A08E9
:10283000AB005908AA009E313626933102302100A0
:1028400028062904031D252C262C412C5208A900FA
:102850005108A8005408AB005308AA008C31B524D5
:10286000933100302100A800A9000030AA00AB007D
:10287000903188209331412C412C9D31EA259331B0
:10288000412C98316E209331003A031D482C492C7D
:102890003D2CAD2BAD2B98316320933198317220B4
:1028A000933101302100CB000030CC009C2C200063
:1028B0008E1A5B2C5C2C732C21004B034C04031DE3
:1028C000622C632C732C8A31CE229331113021007B
:1028D000C8003A30890B6A2CC80B6A2C0000210012
:1028E000CB01CC01852C20008E1E772C782C852CDA
:1028F00021004B084C04031D7E2C7F2C852C0130BD
:10290000CB000030CC00852C852C200066036704AA
:10291000031D8B2C8C2C9C2CE601E7018631B32601
:10292000933111302100C8003A30890B952CC80B27
:10293000952C00009C2C9C2C2100640A031DA42CC7
:10294000650A031DA42CA52C572CA62C98317620A3
:1029500093319831602093319C315B249331AD2BBE
:10296000AD2BAD2B80317928B62CB62C23000F0C63
:10297000890C01392100A200230011081F39210010
:102980002204031DC42CC52CB62C23001114C82C02
:102990001118CB2CCC2CC82CCF2CCF2CCF2C230017
:1029A0000F0C890C01392100A200230011081F39E6
:1029B00021002204031DDD2CDE2CCF2CDF2C9A30CD
:1029C0009E31FE269431E52CE52C23000F0C890C5A
:1029D00001392100A200230011081F39210022041F
:1029E000031DF32CF42CE52CF52C01309E31FE2632
:1029F0009431FB2CFB2C23000F0C890C0139210096
:102A0000A200230011081F3921002204031D092DF3
:102A10000A2DFB2C230091140D2D9118102D112D32
:102A20000D2D142D142D142D23000F0C890C01399C
:102A30002100A200230011081F3921002204031DD8
:102A4000222D232D142D242D9B309E31FE269431D2
:102A50002A2D2A2D23000F0C890C01392100A200F8
:102A6000230011081F3921002204031D382D392DA0
:102A70002A2D3A2D9B31292394312100A2002208CE
:102A8000A300432D432D23000F0C890C0139210095
:102A9000A200230011081F3921002204031D512D1B
:102AA000522D432D230091161116562D111A592D12
:102AB0005A2D562D5D2D5D2D5D2D23000F0C890C9B
:102AC00001392100A200230011081F39210022042E
:102AD000031D6B2D6C2D5D2D230011156F2D11190C
:102AE000722D732D6F2D2100231F772D782DB42C7F
:102AF0007B2D7B2D7B2D23000F0C890C01392100B0
:102B0000A200230011081F3921002204031D892D72
:102B10008A2D7B2D230011148D2D1118902D912DB0
:102B20008D2D942D942D942D23000F0C890C01399B
:102B30002100A200230011081F3921002204031DD7
:102B4000A22DA32D942DA42D9A309E31FE269431D2
:102B5000AA2DAA2D23000F0C890C01392100A200F7
:102B6000230011081F3921002204031DB82DB92D9F
:102B7000AA2DBA2D00309E31FE269431C02DC02DD5
:102B800023000F0C890C01392100A2002300110839
:102B90001F3921002204031DCE2DCF2DC02D23006F
:102BA0009114D22D9118D52DD62DD22DD92DD92DC8
:102BB000D92D23000F0C890C01392100A20023001C
:102BC00011081F3921002204031DE72DE82DD92DFE
:102BD000E92D9B309E31FE269431EF2DEF2D230001
:102BE0000F0C890C01392100A200230011081F39A4
:102BF00021002204031DFD2DFE2DEF2DFF2D9B3105
:102C0000292394312100A2002208A300082E082EB7
:102C100023000F0C890C01392100A20023001108A8
:102C20001F3921002204031D162E172E082E230003
:102C3000911611161B2E111A1E2E1F2E1B2E222E20
:102C4000222E222E23000F0C890C01392100A20014
:102C5000230011081F3921002204031D302E312EBC
:102C6000222E23001115342E1119372E382E342E12
:102C7000392E210023083C2E0800642E3A308400AF
:102C800098308500003F2100BA00013FBB00782E3C
:102C90003830840098308500003FBA00013FBB0007
:102CA000782E3630840098308500003FBA00013F0E
:102CB000BB00782E3430840098308500003FBA0085
:102CC000013FBB00782E782E21003608003A031908
:102CD0006A2E782E3508003A03193E2E013A031960
:102CE000482E033A0319512E013A03195A2E782E11
:102CF0003308340403197D2E7E2E242F3208A700BA
:102D00003108A6009931792196310A3E2100C00090
:102D1000003003180130C1000330350636040319B2
:102D2000922E932E1C2F0A30A8000030A9004108D3
:102D3000AB004008AA009E31942696312100280855
:102D4000B7002908B8000A30A8000030A9003B08E5
:102D5000AB003A08AA009E3194269631210038082B
:102D6000803AB9002908803A3902031DB92E280893
:102D70003702031CBC2EBD2ECC2E21003503360499
:102D80000319C32EC42EFF2E023035063604031954
:102D9000CA2ECB2EFF2ECC2E0A302100A8000030E8
:102DA000A9003B08AB003A08AA009E319426963150
:102DB00021002808B7002908B8000A30A800003010
:102DC000A9004108AB004008AA009E319426963124
:102DD00021003808803AB9002908803A3902031DD9
:102DE000F32E280837020318F62EF72E0F2F210096
:102DF00035083604031DFD2EFE2E0F2FFF2E0A3040
:102E0000A8000030A9004108AB004008AA009E318C
:102E10003626963121002908C1002808C00021006B
:102E20003208A1003108A0004008B7003708A2000E
:102E30009B314C2396311C2F21004108B2004008E1
:102E4000B100FF2FFF2FFF2F3208A7003108A60087
:102E50009931792196312100B700B8013708C000B7
:102E60003808C1000A30A8000030A9004108AB00B2
:102E70004008AA009E319426963121002908BD0001
:102E80002808BC000A30A8000030A9004108AB00A7
:102E90004008AA009E313626963121002908BF003D
:102EA0002808BE0009303E063F04031D582F592F45
:102EB000882F0A30A8000030A9003B08AB003A0870
:102EC000AA009E319426963121003C08013EB700AD
:102ED00000303D3DB8003808803AB9002908803AF2
:102EE0003902031D752F280837020318782F792F10
:102EF000882F21003503360403197F2F802FC12F1F
:102F00000230350636040319862F872FC12F882FEC
:102F1000093021003E063F04031D8F2F902FAB2F59
:102F20003C08013EB70000303D3DB8003808803A0B
:102F3000B90080303902031D9F2F03303702031878
:102F4000A22FA32FAB2F2100350836040319A92F78
:102F5000AA2FC12FAB2F033021003E063F04031DD3
:102F6000B22FB32FD62F02303C063D04031DB92FDC
:102F7000BA2FD62F35083604031DBF2FC02FD62FEA
:102F8000C12FBE01BF013D08A1003C08A0000A30CE
:102F9000A2000030A3009A31E322963121003E08BE
:102FA0002007C0003F08213DC100ED2F03303E0641
:102FB0003F04031DDC2FDD2FE72F033035063604D9
:102FC000031DE32FE42FE72FC001C101ED2F0130D6
:102FD000C0070030C13DED2FED2F3208A1003108B0
:102FE000A0004008B7003708A2009B314C2396315F
:102FF00021004108B2004008B100FF2FFF2F080058
:103000008031B5288031C5288131512981315C2931
:1030100081316729813194298131C1298131D129B7
:1030200082313B2A8231622A8331DF2B84310E2C9C
:103030008431342C85315A2D8631B42E8631C12EFF
:103040008631E82E87310F2F8731362F8731432F76
:103050008731502F87315D2F87316A2F8731992F24
:103060008731A62F8731B32F043400343234003433
:083070003C3400341834003434
:10309A000800240014100800240014100800250059
:1030AA009417080025009413080025008E170800BD
:1030BA0024001414080024000E14080024000E1022
:1030CA0008009A3167229831080022001D121D1645
:1030DA00080021005F0871280800983154209831AF
:1030EA000800983157209831080098315A209831B1
:1030FA00080020006F08812808002E000C10993162
:10310A000F2198310800640080010131890B892858
:10311A000034FE0012001E00FE0B8F2800342F0020
:10312A0096019701980199019A019B0108002100D3
:10313A0021082300A100210020082300A000080084
:10314A00210021082300A500210020082300A40053
:10315A000800210021082300A300210020082300E1
:10316A00A2000800210021082300A700210020084E
:10317A002300A6000800210021082300A90021003D
:10318A0020082300A8000800210021082200ED00E1
:10319A00210020082200EC000800623031008D0076
:1031AA008F01910102309300920108002100210849
:1031BA002200EF00210020082200EE000800210072
:1031CA0021082200EB00210020082200EA00080062
:1031DA00210021082200E900210020082200E8003D
:1031EA000800FF34FF341934003402340034013447
:1031FA0000340334003402340034803027008E0057
:10320A007C308D00C0308C0024001F08F33904384C
:10321A009F00080022006C086D040319152916295D
:10322A001C296D088A006C080A0099311C290800BB
:10323A002E000C100B1402302100A0000030A10057
:10324A009831C92099312E00161408000130250042
:10325A0090008F019101F9308D008C012E009010A1
:10326A00903025008E000800200016123C29961284
:10327A003E290030F000F1009931F42199314529B5
:10328A00200096134829080055303D008F00AA30C7
:10329A008F000F100E303E00960055303D008F0013
:1032AA00AA308F000F1408002E009011220068081F
:1032BA006904031961296229682969088A0068086A
:1032CA000A0099316829080055303D008F00AA305C
:1032DA008F000F100E303E00960055303D008F00D3
:1032EA00AA308F000F1408002100270830009B0025
:1032FA002100260830009A001E171E140000000044
:10330A0030001C08882908002300901A8D298E296C
:10331A0098298F0128309000910103308D00982957
:10332A0098299829982908002100A20098317E201E
:10333A009931003A0319A229A329A92921002208AF
:10334A009B31F4239931A929080020001612AD29CE
:10335A009612AF2900302100A000A1008731E5278D
:10336A009931B72920009613BA29080024000E1DA6
:10337A00BF29C029C7290E1071088D0070088C005A
:10338A000E14CC2971088D0070088C00CC29080015
:10339A002400141DD129D229D929141071089300A7
:1033AA00700892001414DE297108930070089200C4
:1033BA00DE2908002100A30023089E009317131397
:1033CA0013140000E82921001318EC29ED29E82933
:1033DA00EE290D08A1000C08A000F32908007108C5
:1033EA00F3007008F200F336F20CF336F20C7208AE
:1033FA0027008D0070080339F2000530F235FF3ED0
:10340A00031D032A72358C00080022008E018F01E9
:10341A0090019101920193018D0121009E019B016E
:10342A0094019501960197019A01990198018430B6
:10343A0093009D010800043025009600950197012C
:10344A00F130930092012E0090119A15FE3021005E
:10345A00A0000730A1009831ED209A31D030250024
:10346A00940008002E00101020006E08F1006D086C
:10347A00F0009931BB219A3122006E086F040319BA
:10348A00472A482A4E2A6F088A006E080A009A318B
:10349A004E2A08002E00101120006C08F1006B085B
:1034AA00F0009931CD219A3122006A086B04031980
:1034BA005F2A602A662A6B088A006A080A009A311B
:1034CA00662A080022001908F00021006108503E0F
:1034DA00860001308700700881000130F000700812
:1034EA00E10708306102031C7B2A7C2A7E2AE1015B
:1034FA007E2A0130F0007008DF07080024008F01DF
:10350A0090010430910086308D00E8308C000D085F
:10351A002000EE0024000C082000ED002E00101000
:10352A001A1403302100A0000030A1009831DB20DA
:10353A009A31053024008E00080024009501960176
:10354A0004309700E7309300C83092001308200037
:10355A00EC00240012082000EB002E0010111A15AE
:10356A00FF302100A0000730A1009831E4209A31F1
:10357A000130240094000800983194209A319C313B
:10358A00D3249A319831D2209A31993102219A3131
:10359A009A310A229A319A31A2229A319A312022F8
:1035AA009A3199312B219A3199311D219A319A31C7
:1035BA0083229A319D3158259A3108002100A401AD
:1035CA00A501E72A201CEA2AEB2AEF2A2208A407E7
:1035DA002308A53D0130A235A30D890BF02A01303D
:1035EA00A136A00C890BF52A20082104031DFE2A06
:1035FA00FF2AE72A002B2508A1002408A000052B92
:10360A00080021002108803AA20080302202031D0E
:10361A00102B02302002031C132B142B182B200012
:10362A0096161B2B1B2B200096121B2B2100201CED
:10363A001F2B202B242B20001616282B282B20008A
:10364A001612282B282B08000F3023001005210002
:10365A00A000083020060319332B342B3F2B0F30E0
:10366A00230010052100A0000B302006031D3E2B6D
:10367A003F2B432B23009115432B432B23000F1C75
:10368A00472B482B432B492B0C084B2B08000030A7
:10369A008B1B01302100A300210830009B00210070
:1036AA00200830009A002100220830009C001E17D2
:1036BA001E158B1355309F00AA309F009E14652B50
:1036CA009E18682B692B652B1E112100230C031CE5
:1036DA008B1303188B170800083020006F02031899
:1036EA00772B782B942B21006208583E86000130F4
:1036FA008700010822009A000130F00070082100BA
:10370A00E20708306202031C8B2B8C2B8E2BE20102
:10371A008E2B0130F00070082000EF07972B2E0047
:10372A001912972B080001302100D9070030DA3D21
:10373A003C3059065A04031DA32BA42BAB2B013092
:10374A00DB070030DC3DD901DA01AB2B3C305B06EC
:10375A005C04031DB12BB22BB92B0130DD070030FD
:10376A00DE3DDB01DC01B92B20008C1BBD2BBE2BFF
:10377A00C12B9617C42BC42B9613C42BC42B080039
:10378A00210057035804031DCB2BCC2BD52BD70173
:10379A00D8010030F000F1009931F4219B31EF2B70
:1037AA002100640A031DDD2B650A031DDD2BDE2BB8
:1037BA00E92B993139219B3105302100CF000030A6
:1037CA00D000E401E501EF2B01302000E6000030D3
:1037DA00E700EF2BFA300032890BF02B08002100AA
:1037EA00A100F82BF82B20006F080319FD2BFE2BE4
:1037FA00F82B2E00191A022C032C082C2100210860
:10380A0022009A00232C191221002108A000630823
:10381A00583E860001308700200881000130A00050
:10382A002008E30708306302031C1C2C1D2C1F2CE4
:10383A00E3011F2C01302000EF02232C2E00191661
:10384A0008002100A1012A2C2A2C5F0803192E2C1A
:10385A002F2C2A2C302C6008483E86000130870025
:10386A000108A00020082000EA0021006008503E5C
:10387A008600013087000108A0002008A10001305D
:10388A00A0002008E00708306002031C4D2C4E2CD3
:10389A00502CE001502C2E00991201302100DF0239
:1038AA002E009916210021085A2C080067302100A1
:1038BA00A6007030A700993179219C312100A80017
:1038CA00A9012808DD002908DE006830A60070304A
:1038DA00A700993179219C312100A800A901280863
:1038EA00DB002908DC007E30A6007030A700993181
:1038FA0079219C312100A800A9012808E80029089B
:10390A00E9007D30A6007030A700993179219C31F9
:10391A002100A800A9012808E6002908E7000800F4
:10392A009931AA219C312100311C9C2C9D2CA12C5F
:10393A0020001616A42CA42C20001612A42C210058
:10394A00B11CA82CA92CAD2C20009616B02CB02C9A
:10395A0020009612B02C2100311DB42CB52CBD2CA0
:10396A00FF30A0000330A1008731E5279C31C52C28
:10397A0000302100A000A1008731E5279C31C52C29
:10398A002100B11DC92CCA2CCE2C20009617D22C8E
:10399A00D22C20009613D22CD22C080020009A0197
:1039AA009901960197019801073095000F3091000F
:1039BA00FF309200BF309300FF309400FF303E008A
:1039CA00D9004730CE00EF30C3000730E4000F3093
:1039DA00B800DA01E501C401B901CF01E601BA0173
:1039EA00C501D001DB01FF30BB00FF30C600FF304C
:1039FA00D100FF30DC000730E7000C303D009000BA
:103A0A001730CB001330C50014303E00A300153028
:103A1A00A4001030A60014303D00C60008002100A2
:103A2A006108483E860001308700810122001D1D81
:103A3A001F2D202D2E2D21006108483E86000130C1
:103A4A0087008114230025088A0024080A009D3172
:103A5A002E2D22009D1C322D332D412D210061086F
:103A6A00483E8600013087000115230023088A009A
:103A7A0022080A009D31412D21006108483E860036
:103A8A0001308700010803194B2D4C2D532D2300BB
:103A9A0021088A0020080A009D31572D9A31672291
:103AAA009D31572D08002E00991214302100A000D4
:103ABA001D30A1009831B7209D312E0019127130A6
:103ACA002100A0001B30A1009831C0209D31083090
:103ADA0022009F0090309D0024309E0019309B00E8
:103AEA009C014D302100A0001830A1009831A5207A
:103AFA009D316A302100A0001830A1009831AE2013
:103B0A009D3166302100A0001830A10098319C2018
:103B1A009D312000EA012100E301E2010830A20000
:103B2A0022082000EF002100E101E001DF012E0060
:103B3A009916080002302100A6000030A7000030C4
:103B4A009931DF219D31210021082000E90021005F
:103B5A0020082000E80001306902003003196802D9
:103B6A000318B82DB92DBD2D2100A601A701E42DFA
:103B7A000230200069020030031968020318C62DBA
:103B8A00C72DCD2D01302100A6000030A700E42D5D
:103B9A000330200069020030031968020318D62D89
:103BAA00D72DDD2D02302100A6000030A700E42D1C
:103BBA0003302100A6000030A700E42DE42D2708D9
:103BCA00A5002608A400E92D08009C3126249D3171
:103BDA002100BE003E08C000FD304006031DF62D40
:103BEA00F72D082E4008BE00BF014D35203E860045
:103BFA00013087003E08C03F3F08C13F0130CD0772
:103C0A000030CE3D352E4E08803ABE0080303E024E
:103C1A00031D112E01304D02031C142E152E352EB4
:103C2A0021004008BE00BF014D35203E860001300C
:103C3A0087003E08C03F3F08C13F0130CD07003032
:103C4A00CE3DFE304006031D2B2E2C2E352E803104
:103C5A00A3209D312100CD01CE01352E352E352EE2
:103C6A0008002100AE01AB1F3B2E3C2E442EAA09B0
:103C7A00AB09AA0A0319AB0AAE01AE0A442EA91F60
:103C8A00472E482E4E2EA809A909A80A0319A90ADF
:103C9A004E2E280829040319532E542E832EAD01C3
:103CAA00AD0A612E0130A835A90D890B582E0130B5
:103CBA00AC002C08AD07612EA91F642E652E572E65
:103CCA00672E672E29082B02031D6D2E28082A024B
:103CDA00031C702E712E762E2808AA022908AB3BE7
:103CEA00762E0130A936A80C890B772E0130AD0249
:103CFA00031D802E812E672E832E832E2E080319F4
:103D0A00872E882E8E2EAA09AB09AA0A0319AB0A96
:103D1A008E2E2B08A9002A08A800932E080021003D
:103D2A00AE01A91F992E9A2EA22EA809A909A80A9E
:103D3A000319A90AAE01AE0AA22EAB1FA52EA62E02
:103D4A00B02EAA09AB09AA0A0319AB0A0130AC00C2
:103D5A002C08AE06B02EAF01B001280829040319B9
:103D6A00B72EB82EED2EAD01AD0AC52E0130A835FD
:103D7A00A90D890BBC2E0130AC002C08AD07C52E4D
:103D8A00A91FC82EC92EBB2ECB2ECB2E0130AF3584
:103D9A00B00D890BCC2E29082B02031DD62E28081C
:103DAA002A02031CD92EDA2EE02E2808AA02290894
:103DBA00AB3B2F14E02E0130A936A80C890BE12E5B
:103DCA000130AD02031DEA2EEB2ECB2EED2EED2E89
:103DDA002E080319F12EF22EF82EAF09B009AF0AF8
:103DEA000319B00AF82E3008A9002F08A800FD2EE2
:103DFA0008002100A100210823008C00901F062F33
:103E0A00072F0A2F6A2F6A2F6A2F0F3010052100F9
:103E1A00A000083020060319132F142F322F0F3059
:103E2A00230010052100A0000B30200603191E2FC5
:103E3A001F2F322F23001016222F2E000F1C262F81
:103E4A00272F222F23000F192B2F2C2F6A2F0F0811
:103E5A006A2F6A2F6A2F6A2F6A2F0F3023001005E4
:103E6A002100A0000830200603193C2F3D2F4A2FBD
:103E7A000F30230010052100A0000B302006031D7F
:103E8A00472F482F6A2F4A2F4A2F23000F184E2FE9
:103E9A004F2F4A2F522F522F522F23000F0C890CCB
:103EAA0001392100A000230011081F392100200434
:103EBA00031D602F612F522F230011086A2F6A2FCA
:103ECA006A2F6A2F6A2F6A2F6A2F080020004E086D
:103EDA00D2004F08D3005008D4005108D50003106F
:103EEA00540D550DD6005608D8005808031D7E2FCC
:103EFA007F2F892F0030D1000030D0000030CF0052
:103F0A000030CE00FF2FFF2F4E08D2004F08D300FB
:103F1A005008D4005108D5001F30D536D40CD30C24
:103F2A00D20C890B922F5208D6005608D700D01708
:103F3A00FF30CE05FF30CF05FF30D0050030D10568
:103F4A009630D802D81FAA2FAB2FCE2F5808803A06
:103F5A00973E0318B12FB22FBD2F0030D100003089
:103F6A00D0000030CF000030CE00FF2FFF2FBD2F32
:103F7A000130D136D00CCF0CCE0C890BBE2F0130BC
:103F8A00D2005208D807031DCB2FCC2FBD2FEF2FFD
:103F9A00EF2F20305802031CD32FD42FE82F0030E4
:103FAA00D1000030D0000030CF000030CE00FF2F0B
:103FBA00FF2FE82F0130CE35CF0DD00DD10D890B53
:103FCA00E02F0130D8025808031DEC2FED2FDF2F08
:103FDA00EF2FEF2F57080319F32FF42FFF2FCE09D6
:103FEA00CF09D009D109CE0A0319CF0A0319D00A79
:063FFA000319D10A0800C2
:020000040001F9
:0A000E00EC3FFF3F9F3FFF3FFF3F25
:00000001FF
